{
	"contracts/SimpleStorage.sol": {
		"SimpleStorage": {
			"abi": [
				{
					"inputs": [
						{
							"internalType": "string",
							"name": "_newName",
							"type": "string"
						}
					],
					"name": "changeName",
					"outputs": [],
					"stateMutability": "nonpayable",
					"type": "function"
				},
				{
					"inputs": [
						{
							"internalType": "uint256",
							"name": "_num",
							"type": "uint256"
						}
					],
					"name": "changeNumber",
					"outputs": [],
					"stateMutability": "nonpayable",
					"type": "function"
				},
				{
					"inputs": [],
					"name": "getName",
					"outputs": [
						{
							"internalType": "string",
							"name": "",
							"type": "string"
						}
					],
					"stateMutability": "view",
					"type": "function"
				},
				{
					"inputs": [],
					"name": "getNumber",
					"outputs": [
						{
							"internalType": "uint256",
							"name": "",
							"type": "uint256"
						}
					],
					"stateMutability": "view",
					"type": "function"
				},
				{
					"inputs": [],
					"name": "myNumber",
					"outputs": [
						{
							"internalType": "uint256",
							"name": "",
							"type": "uint256"
						}
					],
					"stateMutability": "view",
					"type": "function"
				},
				{
					"inputs": [],
					"name": "name",
					"outputs": [
						{
							"internalType": "string",
							"name": "",
							"type": "string"
						}
					],
					"stateMutability": "view",
					"type": "function"
				},
				{
					"inputs": [],
					"name": "sami",
					"outputs": [
						{
							"internalType": "uint256",
							"name": "personAge",
							"type": "uint256"
						},
						{
							"internalType": "string",
							"name": "personName",
							"type": "string"
						}
					],
					"stateMutability": "view",
					"type": "function"
				}
			],
			"devdoc": {
				"kind": "dev",
				"methods": {},
				"version": 1
			},
			"evm": {
				"assembly": "    /* \"contracts/SimpleStorage.sol\":59:668  contract SimpleStorage {... */\n  mstore(0x40, 0x80)\n    /* \"contracts/SimpleStorage.sol\":165:208  People({personAge: 17, personName: \"Sami\"}) */\n  mload(0x40)\n  dup1\n  0x40\n  add\n  0x40\n  mstore\n  dup1\n    /* \"contracts/SimpleStorage.sol\":184:186  17 */\n  0x11\n    /* \"contracts/SimpleStorage.sol\":165:208  People({personAge: 17, personName: \"Sami\"}) */\n  dup2\n  mstore\n  0x20\n  add\n  mload(0x40)\n  dup1\n  0x40\n  add\n  0x40\n  mstore\n  dup1\n  0x04\n  dup2\n  mstore\n  0x20\n  add\n  0x53616d6900000000000000000000000000000000000000000000000000000000\n  dup2\n  mstore\n  pop\n  dup2\n  mstore\n  pop\n    /* \"contracts/SimpleStorage.sol\":144:208  People public sami = People({personAge: 17, personName: \"Sami\"}) */\n  0x02\n  0x00\n  dup3\n  add\n  mload\n  dup2\n  0x00\n  add\n  sstore\n  0x20\n  dup3\n  add\n  mload\n  dup2\n  0x01\n  add\n  swap1\n  dup1\n  mload\n  swap1\n  0x20\n  add\n  swap1\n  tag_1\n  swap3\n  swap2\n  swap1\n  tag_2\n  jump\t// in\ntag_1:\n  pop\n  pop\n  pop\n    /* \"contracts/SimpleStorage.sol\":59:668  contract SimpleStorage {... */\n  callvalue\n  dup1\n  iszero\n  tag_3\n  jumpi\n  0x00\n  dup1\n  revert\ntag_3:\n  pop\n  jump(tag_4)\ntag_2:\n  dup3\n  dup1\n  sload\n  tag_5\n  swap1\n  tag_6\n  jump\t// in\ntag_5:\n  swap1\n  0x00\n  mstore\n  keccak256(0x00, 0x20)\n  swap1\n  0x1f\n  add\n  0x20\n  swap1\n  div\n  dup2\n  add\n  swap3\n  dup3\n  tag_8\n  jumpi\n  0x00\n  dup6\n  sstore\n  jump(tag_7)\ntag_8:\n  dup3\n  0x1f\n  lt\n  tag_9\n  jumpi\n  dup1\n  mload\n  not(0xff)\n  and\n  dup4\n  dup1\n  add\n  or\n  dup6\n  sstore\n  jump(tag_7)\ntag_9:\n  dup3\n  dup1\n  add\n  0x01\n  add\n  dup6\n  sstore\n  dup3\n  iszero\n  tag_7\n  jumpi\n  swap2\n  dup3\n  add\ntag_10:\n  dup3\n  dup2\n  gt\n  iszero\n  tag_11\n  jumpi\n  dup3\n  mload\n  dup3\n  sstore\n  swap2\n  0x20\n  add\n  swap2\n  swap1\n  0x01\n  add\n  swap1\n  jump(tag_10)\ntag_11:\ntag_7:\n  pop\n  swap1\n  pop\n  tag_12\n  swap2\n  swap1\n  tag_13\n  jump\t// in\ntag_12:\n  pop\n  swap1\n  jump\t// out\ntag_13:\ntag_14:\n  dup1\n  dup3\n  gt\n  iszero\n  tag_15\n  jumpi\n  0x00\n  dup2\n  0x00\n  swap1\n  sstore\n  pop\n  0x01\n  add\n  jump(tag_14)\ntag_15:\n  pop\n  swap1\n  jump\t// out\n    /* \"#utility.yul\":7:187   */\ntag_16:\n    /* \"#utility.yul\":55:132   */\n  0x4e487b7100000000000000000000000000000000000000000000000000000000\n    /* \"#utility.yul\":52:53   */\n  0x00\n    /* \"#utility.yul\":45:133   */\n  mstore\n    /* \"#utility.yul\":152:156   */\n  0x22\n    /* \"#utility.yul\":149:150   */\n  0x04\n    /* \"#utility.yul\":142:157   */\n  mstore\n    /* \"#utility.yul\":176:180   */\n  0x24\n    /* \"#utility.yul\":173:174   */\n  0x00\n    /* \"#utility.yul\":166:181   */\n  revert\n    /* \"#utility.yul\":193:513   */\ntag_6:\n    /* \"#utility.yul\":237:243   */\n  0x00\n    /* \"#utility.yul\":274:275   */\n  0x02\n    /* \"#utility.yul\":268:272   */\n  dup3\n    /* \"#utility.yul\":264:276   */\n  div\n    /* \"#utility.yul\":254:276   */\n  swap1\n  pop\n    /* \"#utility.yul\":321:322   */\n  0x01\n    /* \"#utility.yul\":315:319   */\n  dup3\n    /* \"#utility.yul\":311:323   */\n  and\n    /* \"#utility.yul\":342:360   */\n  dup1\n    /* \"#utility.yul\":332:413   */\n  tag_20\n  jumpi\n    /* \"#utility.yul\":398:402   */\n  0x7f\n    /* \"#utility.yul\":390:396   */\n  dup3\n    /* \"#utility.yul\":386:403   */\n  and\n    /* \"#utility.yul\":376:403   */\n  swap2\n  pop\n    /* \"#utility.yul\":332:413   */\ntag_20:\n    /* \"#utility.yul\":460:462   */\n  0x20\n    /* \"#utility.yul\":452:458   */\n  dup3\n    /* \"#utility.yul\":449:463   */\n  lt\n    /* \"#utility.yul\":429:447   */\n  dup2\n    /* \"#utility.yul\":426:464   */\n  eq\n    /* \"#utility.yul\":423:507   */\n  iszero\n  tag_21\n  jumpi\n    /* \"#utility.yul\":479:497   */\n  tag_22\n  tag_16\n  jump\t// in\ntag_22:\n    /* \"#utility.yul\":423:507   */\ntag_21:\n    /* \"#utility.yul\":244:513   */\n  pop\n    /* \"#utility.yul\":193:513   */\n  swap2\n  swap1\n  pop\n  jump\t// out\n    /* \"contracts/SimpleStorage.sol\":59:668  contract SimpleStorage {... */\ntag_4:\n  dataSize(sub_0)\n  dup1\n  dataOffset(sub_0)\n  0x00\n  codecopy\n  0x00\n  return\nstop\n\nsub_0: assembly {\n        /* \"contracts/SimpleStorage.sol\":59:668  contract SimpleStorage {... */\n      mstore(0x40, 0x80)\n      callvalue\n      dup1\n      iszero\n      tag_1\n      jumpi\n      0x00\n      dup1\n      revert\n    tag_1:\n      pop\n      jumpi(tag_2, lt(calldatasize, 0x04))\n      shr(0xe0, calldataload(0x00))\n      dup1\n      0x17d7de7c\n      gt\n      tag_10\n      jumpi\n      dup1\n      0x17d7de7c\n      eq\n      tag_6\n      jumpi\n      dup1\n      0x23fd0e40\n      eq\n      tag_7\n      jumpi\n      dup1\n      0x5353a2d8\n      eq\n      tag_8\n      jumpi\n      dup1\n      0xf2c9ecd8\n      eq\n      tag_9\n      jumpi\n      jump(tag_2)\n    tag_10:\n      dup1\n      0x06fdde03\n      eq\n      tag_3\n      jumpi\n      dup1\n      0x07391dd6\n      eq\n      tag_4\n      jumpi\n      dup1\n      0x087a2f59\n      eq\n      tag_5\n      jumpi\n    tag_2:\n      0x00\n      dup1\n      revert\n        /* \"contracts/SimpleStorage.sol\":119:137  string public name */\n    tag_3:\n      tag_11\n      tag_12\n      jump\t// in\n    tag_11:\n      mload(0x40)\n      tag_13\n      swap2\n      swap1\n      tag_14\n      jump\t// in\n    tag_13:\n      mload(0x40)\n      dup1\n      swap2\n      sub\n      swap1\n      return\n        /* \"contracts/SimpleStorage.sol\":307:384  function changeNumber(uint256 _num) public {... */\n    tag_4:\n      tag_15\n      0x04\n      dup1\n      calldatasize\n      sub\n      dup2\n      add\n      swap1\n      tag_16\n      swap2\n      swap1\n      tag_17\n      jump\t// in\n    tag_16:\n      tag_18\n      jump\t// in\n    tag_15:\n      stop\n        /* \"contracts/SimpleStorage.sol\":144:208  People public sami = People({personAge: 17, personName: \"Sami\"}) */\n    tag_5:\n      tag_19\n      tag_20\n      jump\t// in\n    tag_19:\n      mload(0x40)\n      tag_21\n      swap3\n      swap2\n      swap1\n      tag_22\n      jump\t// in\n    tag_21:\n      mload(0x40)\n      dup1\n      swap2\n      sub\n      swap1\n      return\n        /* \"contracts/SimpleStorage.sol\":485:569  function getName() public view returns(string memory) {... */\n    tag_6:\n      tag_23\n      tag_24\n      jump\t// in\n    tag_23:\n      mload(0x40)\n      tag_25\n      swap2\n      swap1\n      tag_14\n      jump\t// in\n    tag_25:\n      mload(0x40)\n      dup1\n      swap2\n      sub\n      swap1\n      return\n        /* \"contracts/SimpleStorage.sol\":89:112  uint256 public myNumber */\n    tag_7:\n      tag_26\n      tag_27\n      jump\t// in\n    tag_26:\n      mload(0x40)\n      tag_28\n      swap2\n      swap1\n      tag_29\n      jump\t// in\n    tag_28:\n      mload(0x40)\n      dup1\n      swap2\n      sub\n      swap1\n      return\n        /* \"contracts/SimpleStorage.sol\":392:477  function changeName(string memory _newName) public {... */\n    tag_8:\n      tag_30\n      0x04\n      dup1\n      calldatasize\n      sub\n      dup2\n      add\n      swap1\n      tag_31\n      swap2\n      swap1\n      tag_32\n      jump\t// in\n    tag_31:\n      tag_33\n      jump\t// in\n    tag_30:\n      stop\n        /* \"contracts/SimpleStorage.sol\":581:665  function getNumber() public view returns(uint256) {... */\n    tag_9:\n      tag_34\n      tag_35\n      jump\t// in\n    tag_34:\n      mload(0x40)\n      tag_36\n      swap2\n      swap1\n      tag_29\n      jump\t// in\n    tag_36:\n      mload(0x40)\n      dup1\n      swap2\n      sub\n      swap1\n      return\n        /* \"contracts/SimpleStorage.sol\":119:137  string public name */\n    tag_12:\n      0x01\n      dup1\n      sload\n      tag_37\n      swap1\n      tag_38\n      jump\t// in\n    tag_37:\n      dup1\n      0x1f\n      add\n      0x20\n      dup1\n      swap2\n      div\n      mul\n      0x20\n      add\n      mload(0x40)\n      swap1\n      dup2\n      add\n      0x40\n      mstore\n      dup1\n      swap3\n      swap2\n      swap1\n      dup2\n      dup2\n      mstore\n      0x20\n      add\n      dup3\n      dup1\n      sload\n      tag_39\n      swap1\n      tag_38\n      jump\t// in\n    tag_39:\n      dup1\n      iszero\n      tag_40\n      jumpi\n      dup1\n      0x1f\n      lt\n      tag_41\n      jumpi\n      0x0100\n      dup1\n      dup4\n      sload\n      div\n      mul\n      dup4\n      mstore\n      swap2\n      0x20\n      add\n      swap2\n      jump(tag_40)\n    tag_41:\n      dup3\n      add\n      swap2\n      swap1\n      0x00\n      mstore\n      keccak256(0x00, 0x20)\n      swap1\n    tag_42:\n      dup2\n      sload\n      dup2\n      mstore\n      swap1\n      0x01\n      add\n      swap1\n      0x20\n      add\n      dup1\n      dup4\n      gt\n      tag_42\n      jumpi\n      dup3\n      swap1\n      sub\n      0x1f\n      and\n      dup3\n      add\n      swap2\n    tag_40:\n      pop\n      pop\n      pop\n      pop\n      pop\n      dup2\n      jump\t// out\n        /* \"contracts/SimpleStorage.sol\":307:384  function changeNumber(uint256 _num) public {... */\n    tag_18:\n        /* \"contracts/SimpleStorage.sol\":372:376  _num */\n      dup1\n        /* \"contracts/SimpleStorage.sol\":361:369  myNumber */\n      0x00\n        /* \"contracts/SimpleStorage.sol\":361:376  myNumber = _num */\n      dup2\n      swap1\n      sstore\n      pop\n        /* \"contracts/SimpleStorage.sol\":307:384  function changeNumber(uint256 _num) public {... */\n      pop\n      jump\t// out\n        /* \"contracts/SimpleStorage.sol\":144:208  People public sami = People({personAge: 17, personName: \"Sami\"}) */\n    tag_20:\n      0x02\n      dup1\n      0x00\n      add\n      sload\n      swap1\n      dup1\n      0x01\n      add\n      dup1\n      sload\n      tag_44\n      swap1\n      tag_38\n      jump\t// in\n    tag_44:\n      dup1\n      0x1f\n      add\n      0x20\n      dup1\n      swap2\n      div\n      mul\n      0x20\n      add\n      mload(0x40)\n      swap1\n      dup2\n      add\n      0x40\n      mstore\n      dup1\n      swap3\n      swap2\n      swap1\n      dup2\n      dup2\n      mstore\n      0x20\n      add\n      dup3\n      dup1\n      sload\n      tag_45\n      swap1\n      tag_38\n      jump\t// in\n    tag_45:\n      dup1\n      iszero\n      tag_46\n      jumpi\n      dup1\n      0x1f\n      lt\n      tag_47\n      jumpi\n      0x0100\n      dup1\n      dup4\n      sload\n      div\n      mul\n      dup4\n      mstore\n      swap2\n      0x20\n      add\n      swap2\n      jump(tag_46)\n    tag_47:\n      dup3\n      add\n      swap2\n      swap1\n      0x00\n      mstore\n      keccak256(0x00, 0x20)\n      swap1\n    tag_48:\n      dup2\n      sload\n      dup2\n      mstore\n      swap1\n      0x01\n      add\n      swap1\n      0x20\n      add\n      dup1\n      dup4\n      gt\n      tag_48\n      jumpi\n      dup3\n      swap1\n      sub\n      0x1f\n      and\n      dup3\n      add\n      swap2\n    tag_46:\n      pop\n      pop\n      pop\n      pop\n      pop\n      swap1\n      pop\n      dup3\n      jump\t// out\n        /* \"contracts/SimpleStorage.sol\":485:569  function getName() public view returns(string memory) {... */\n    tag_24:\n        /* \"contracts/SimpleStorage.sol\":524:537  string memory */\n      0x60\n        /* \"contracts/SimpleStorage.sol\":557:561  name */\n      0x01\n        /* \"contracts/SimpleStorage.sol\":550:561  return name */\n      dup1\n      sload\n      tag_50\n      swap1\n      tag_38\n      jump\t// in\n    tag_50:\n      dup1\n      0x1f\n      add\n      0x20\n      dup1\n      swap2\n      div\n      mul\n      0x20\n      add\n      mload(0x40)\n      swap1\n      dup2\n      add\n      0x40\n      mstore\n      dup1\n      swap3\n      swap2\n      swap1\n      dup2\n      dup2\n      mstore\n      0x20\n      add\n      dup3\n      dup1\n      sload\n      tag_51\n      swap1\n      tag_38\n      jump\t// in\n    tag_51:\n      dup1\n      iszero\n      tag_52\n      jumpi\n      dup1\n      0x1f\n      lt\n      tag_53\n      jumpi\n      0x0100\n      dup1\n      dup4\n      sload\n      div\n      mul\n      dup4\n      mstore\n      swap2\n      0x20\n      add\n      swap2\n      jump(tag_52)\n    tag_53:\n      dup3\n      add\n      swap2\n      swap1\n      0x00\n      mstore\n      keccak256(0x00, 0x20)\n      swap1\n    tag_54:\n      dup2\n      sload\n      dup2\n      mstore\n      swap1\n      0x01\n      add\n      swap1\n      0x20\n      add\n      dup1\n      dup4\n      gt\n      tag_54\n      jumpi\n      dup3\n      swap1\n      sub\n      0x1f\n      and\n      dup3\n      add\n      swap2\n    tag_52:\n      pop\n      pop\n      pop\n      pop\n      pop\n      swap1\n      pop\n        /* \"contracts/SimpleStorage.sol\":485:569  function getName() public view returns(string memory) {... */\n      swap1\n      jump\t// out\n        /* \"contracts/SimpleStorage.sol\":89:112  uint256 public myNumber */\n    tag_27:\n      sload(0x00)\n      dup2\n      jump\t// out\n        /* \"contracts/SimpleStorage.sol\":392:477  function changeName(string memory _newName) public {... */\n    tag_33:\n        /* \"contracts/SimpleStorage.sol\":461:469  _newName */\n      dup1\n        /* \"contracts/SimpleStorage.sol\":454:458  name */\n      0x01\n        /* \"contracts/SimpleStorage.sol\":454:469  name = _newName */\n      swap1\n      dup1\n      mload\n      swap1\n      0x20\n      add\n      swap1\n      tag_56\n      swap3\n      swap2\n      swap1\n      tag_57\n      jump\t// in\n    tag_56:\n      pop\n        /* \"contracts/SimpleStorage.sol\":392:477  function changeName(string memory _newName) public {... */\n      pop\n      jump\t// out\n        /* \"contracts/SimpleStorage.sol\":581:665  function getNumber() public view returns(uint256) {... */\n    tag_35:\n        /* \"contracts/SimpleStorage.sol\":622:629  uint256 */\n      0x00\n        /* \"contracts/SimpleStorage.sol\":649:657  myNumber */\n      dup1\n      sload\n        /* \"contracts/SimpleStorage.sol\":642:657  return myNumber */\n      swap1\n      pop\n        /* \"contracts/SimpleStorage.sol\":581:665  function getNumber() public view returns(uint256) {... */\n      swap1\n      jump\t// out\n    tag_57:\n      dup3\n      dup1\n      sload\n      tag_59\n      swap1\n      tag_38\n      jump\t// in\n    tag_59:\n      swap1\n      0x00\n      mstore\n      keccak256(0x00, 0x20)\n      swap1\n      0x1f\n      add\n      0x20\n      swap1\n      div\n      dup2\n      add\n      swap3\n      dup3\n      tag_61\n      jumpi\n      0x00\n      dup6\n      sstore\n      jump(tag_60)\n    tag_61:\n      dup3\n      0x1f\n      lt\n      tag_62\n      jumpi\n      dup1\n      mload\n      not(0xff)\n      and\n      dup4\n      dup1\n      add\n      or\n      dup6\n      sstore\n      jump(tag_60)\n    tag_62:\n      dup3\n      dup1\n      add\n      0x01\n      add\n      dup6\n      sstore\n      dup3\n      iszero\n      tag_60\n      jumpi\n      swap2\n      dup3\n      add\n    tag_63:\n      dup3\n      dup2\n      gt\n      iszero\n      tag_64\n      jumpi\n      dup3\n      mload\n      dup3\n      sstore\n      swap2\n      0x20\n      add\n      swap2\n      swap1\n      0x01\n      add\n      swap1\n      jump(tag_63)\n    tag_64:\n    tag_60:\n      pop\n      swap1\n      pop\n      tag_65\n      swap2\n      swap1\n      tag_66\n      jump\t// in\n    tag_65:\n      pop\n      swap1\n      jump\t// out\n    tag_66:\n    tag_67:\n      dup1\n      dup3\n      gt\n      iszero\n      tag_68\n      jumpi\n      0x00\n      dup2\n      0x00\n      swap1\n      sstore\n      pop\n      0x01\n      add\n      jump(tag_67)\n    tag_68:\n      pop\n      swap1\n      jump\t// out\n        /* \"#utility.yul\":7:106   */\n    tag_69:\n        /* \"#utility.yul\":59:65   */\n      0x00\n        /* \"#utility.yul\":93:98   */\n      dup2\n        /* \"#utility.yul\":87:99   */\n      mload\n        /* \"#utility.yul\":77:99   */\n      swap1\n      pop\n        /* \"#utility.yul\":7:106   */\n      swap2\n      swap1\n      pop\n      jump\t// out\n        /* \"#utility.yul\":112:281   */\n    tag_70:\n        /* \"#utility.yul\":196:207   */\n      0x00\n        /* \"#utility.yul\":230:236   */\n      dup3\n        /* \"#utility.yul\":225:228   */\n      dup3\n        /* \"#utility.yul\":218:237   */\n      mstore\n        /* \"#utility.yul\":270:274   */\n      0x20\n        /* \"#utility.yul\":265:268   */\n      dup3\n        /* \"#utility.yul\":261:275   */\n      add\n        /* \"#utility.yul\":246:275   */\n      swap1\n      pop\n        /* \"#utility.yul\":112:281   */\n      swap3\n      swap2\n      pop\n      pop\n      jump\t// out\n        /* \"#utility.yul\":287:594   */\n    tag_71:\n        /* \"#utility.yul\":355:356   */\n      0x00\n        /* \"#utility.yul\":365:478   */\n    tag_95:\n        /* \"#utility.yul\":379:385   */\n      dup4\n        /* \"#utility.yul\":376:377   */\n      dup2\n        /* \"#utility.yul\":373:386   */\n      lt\n        /* \"#utility.yul\":365:478   */\n      iszero\n      tag_97\n      jumpi\n        /* \"#utility.yul\":464:465   */\n      dup1\n        /* \"#utility.yul\":459:462   */\n      dup3\n        /* \"#utility.yul\":455:466   */\n      add\n        /* \"#utility.yul\":449:467   */\n      mload\n        /* \"#utility.yul\":445:446   */\n      dup2\n        /* \"#utility.yul\":440:443   */\n      dup5\n        /* \"#utility.yul\":436:447   */\n      add\n        /* \"#utility.yul\":429:468   */\n      mstore\n        /* \"#utility.yul\":401:403   */\n      0x20\n        /* \"#utility.yul\":398:399   */\n      dup2\n        /* \"#utility.yul\":394:404   */\n      add\n        /* \"#utility.yul\":389:404   */\n      swap1\n      pop\n        /* \"#utility.yul\":365:478   */\n      jump(tag_95)\n    tag_97:\n        /* \"#utility.yul\":496:502   */\n      dup4\n        /* \"#utility.yul\":493:494   */\n      dup2\n        /* \"#utility.yul\":490:503   */\n      gt\n        /* \"#utility.yul\":487:588   */\n      iszero\n      tag_98\n      jumpi\n        /* \"#utility.yul\":576:577   */\n      0x00\n        /* \"#utility.yul\":567:573   */\n      dup5\n        /* \"#utility.yul\":562:565   */\n      dup5\n        /* \"#utility.yul\":558:574   */\n      add\n        /* \"#utility.yul\":551:578   */\n      mstore\n        /* \"#utility.yul\":487:588   */\n    tag_98:\n        /* \"#utility.yul\":336:594   */\n      pop\n        /* \"#utility.yul\":287:594   */\n      pop\n      pop\n      pop\n      jump\t// out\n        /* \"#utility.yul\":600:702   */\n    tag_72:\n        /* \"#utility.yul\":641:647   */\n      0x00\n        /* \"#utility.yul\":692:694   */\n      0x1f\n        /* \"#utility.yul\":688:695   */\n      not\n        /* \"#utility.yul\":683:685   */\n      0x1f\n        /* \"#utility.yul\":676:681   */\n      dup4\n        /* \"#utility.yul\":672:686   */\n      add\n        /* \"#utility.yul\":668:696   */\n      and\n        /* \"#utility.yul\":658:696   */\n      swap1\n      pop\n        /* \"#utility.yul\":600:702   */\n      swap2\n      swap1\n      pop\n      jump\t// out\n        /* \"#utility.yul\":708:1072   */\n    tag_73:\n        /* \"#utility.yul\":796:799   */\n      0x00\n        /* \"#utility.yul\":824:863   */\n      tag_101\n        /* \"#utility.yul\":857:862   */\n      dup3\n        /* \"#utility.yul\":824:863   */\n      tag_69\n      jump\t// in\n    tag_101:\n        /* \"#utility.yul\":879:950   */\n      tag_102\n        /* \"#utility.yul\":943:949   */\n      dup2\n        /* \"#utility.yul\":938:941   */\n      dup6\n        /* \"#utility.yul\":879:950   */\n      tag_70\n      jump\t// in\n    tag_102:\n        /* \"#utility.yul\":872:950   */\n      swap4\n      pop\n        /* \"#utility.yul\":959:1011   */\n      tag_103\n        /* \"#utility.yul\":1004:1010   */\n      dup2\n        /* \"#utility.yul\":999:1002   */\n      dup6\n        /* \"#utility.yul\":992:996   */\n      0x20\n        /* \"#utility.yul\":985:990   */\n      dup7\n        /* \"#utility.yul\":981:997   */\n      add\n        /* \"#utility.yul\":959:1011   */\n      tag_71\n      jump\t// in\n    tag_103:\n        /* \"#utility.yul\":1036:1065   */\n      tag_104\n        /* \"#utility.yul\":1058:1064   */\n      dup2\n        /* \"#utility.yul\":1036:1065   */\n      tag_72\n      jump\t// in\n    tag_104:\n        /* \"#utility.yul\":1031:1034   */\n      dup5\n        /* \"#utility.yul\":1027:1066   */\n      add\n        /* \"#utility.yul\":1020:1066   */\n      swap2\n      pop\n        /* \"#utility.yul\":800:1072   */\n      pop\n        /* \"#utility.yul\":708:1072   */\n      swap3\n      swap2\n      pop\n      pop\n      jump\t// out\n        /* \"#utility.yul\":1078:1391   */\n    tag_14:\n        /* \"#utility.yul\":1191:1195   */\n      0x00\n        /* \"#utility.yul\":1229:1231   */\n      0x20\n        /* \"#utility.yul\":1218:1227   */\n      dup3\n        /* \"#utility.yul\":1214:1232   */\n      add\n        /* \"#utility.yul\":1206:1232   */\n      swap1\n      pop\n        /* \"#utility.yul\":1278:1287   */\n      dup2\n        /* \"#utility.yul\":1272:1276   */\n      dup2\n        /* \"#utility.yul\":1268:1288   */\n      sub\n        /* \"#utility.yul\":1264:1265   */\n      0x00\n        /* \"#utility.yul\":1253:1262   */\n      dup4\n        /* \"#utility.yul\":1249:1266   */\n      add\n        /* \"#utility.yul\":1242:1289   */\n      mstore\n        /* \"#utility.yul\":1306:1384   */\n      tag_106\n        /* \"#utility.yul\":1379:1383   */\n      dup2\n        /* \"#utility.yul\":1370:1376   */\n      dup5\n        /* \"#utility.yul\":1306:1384   */\n      tag_73\n      jump\t// in\n    tag_106:\n        /* \"#utility.yul\":1298:1384   */\n      swap1\n      pop\n        /* \"#utility.yul\":1078:1391   */\n      swap3\n      swap2\n      pop\n      pop\n      jump\t// out\n        /* \"#utility.yul\":1397:1472   */\n    tag_74:\n        /* \"#utility.yul\":1430:1436   */\n      0x00\n        /* \"#utility.yul\":1463:1465   */\n      0x40\n        /* \"#utility.yul\":1457:1466   */\n      mload\n        /* \"#utility.yul\":1447:1466   */\n      swap1\n      pop\n        /* \"#utility.yul\":1397:1472   */\n      swap1\n      jump\t// out\n        /* \"#utility.yul\":1478:1595   */\n    tag_75:\n        /* \"#utility.yul\":1587:1588   */\n      0x00\n        /* \"#utility.yul\":1584:1585   */\n      dup1\n        /* \"#utility.yul\":1577:1589   */\n      revert\n        /* \"#utility.yul\":1601:1718   */\n    tag_76:\n        /* \"#utility.yul\":1710:1711   */\n      0x00\n        /* \"#utility.yul\":1707:1708   */\n      dup1\n        /* \"#utility.yul\":1700:1712   */\n      revert\n        /* \"#utility.yul\":1724:1801   */\n    tag_77:\n        /* \"#utility.yul\":1761:1768   */\n      0x00\n        /* \"#utility.yul\":1790:1795   */\n      dup2\n        /* \"#utility.yul\":1779:1795   */\n      swap1\n      pop\n        /* \"#utility.yul\":1724:1801   */\n      swap2\n      swap1\n      pop\n      jump\t// out\n        /* \"#utility.yul\":1807:1929   */\n    tag_78:\n        /* \"#utility.yul\":1880:1904   */\n      tag_112\n        /* \"#utility.yul\":1898:1903   */\n      dup2\n        /* \"#utility.yul\":1880:1904   */\n      tag_77\n      jump\t// in\n    tag_112:\n        /* \"#utility.yul\":1873:1878   */\n      dup2\n        /* \"#utility.yul\":1870:1905   */\n      eq\n        /* \"#utility.yul\":1860:1923   */\n      tag_113\n      jumpi\n        /* \"#utility.yul\":1919:1920   */\n      0x00\n        /* \"#utility.yul\":1916:1917   */\n      dup1\n        /* \"#utility.yul\":1909:1921   */\n      revert\n        /* \"#utility.yul\":1860:1923   */\n    tag_113:\n        /* \"#utility.yul\":1807:1929   */\n      pop\n      jump\t// out\n        /* \"#utility.yul\":1935:2074   */\n    tag_79:\n        /* \"#utility.yul\":1981:1986   */\n      0x00\n        /* \"#utility.yul\":2019:2025   */\n      dup2\n        /* \"#utility.yul\":2006:2026   */\n      calldataload\n        /* \"#utility.yul\":1997:2026   */\n      swap1\n      pop\n        /* \"#utility.yul\":2035:2068   */\n      tag_115\n        /* \"#utility.yul\":2062:2067   */\n      dup2\n        /* \"#utility.yul\":2035:2068   */\n      tag_78\n      jump\t// in\n    tag_115:\n        /* \"#utility.yul\":1935:2074   */\n      swap3\n      swap2\n      pop\n      pop\n      jump\t// out\n        /* \"#utility.yul\":2080:2409   */\n    tag_17:\n        /* \"#utility.yul\":2139:2145   */\n      0x00\n        /* \"#utility.yul\":2188:2190   */\n      0x20\n        /* \"#utility.yul\":2176:2185   */\n      dup3\n        /* \"#utility.yul\":2167:2174   */\n      dup5\n        /* \"#utility.yul\":2163:2186   */\n      sub\n        /* \"#utility.yul\":2159:2191   */\n      slt\n        /* \"#utility.yul\":2156:2275   */\n      iszero\n      tag_117\n      jumpi\n        /* \"#utility.yul\":2194:2273   */\n      tag_118\n      tag_75\n      jump\t// in\n    tag_118:\n        /* \"#utility.yul\":2156:2275   */\n    tag_117:\n        /* \"#utility.yul\":2314:2315   */\n      0x00\n        /* \"#utility.yul\":2339:2392   */\n      tag_119\n        /* \"#utility.yul\":2384:2391   */\n      dup5\n        /* \"#utility.yul\":2375:2381   */\n      dup3\n        /* \"#utility.yul\":2364:2373   */\n      dup6\n        /* \"#utility.yul\":2360:2382   */\n      add\n        /* \"#utility.yul\":2339:2392   */\n      tag_79\n      jump\t// in\n    tag_119:\n        /* \"#utility.yul\":2329:2392   */\n      swap2\n      pop\n        /* \"#utility.yul\":2285:2402   */\n      pop\n        /* \"#utility.yul\":2080:2409   */\n      swap3\n      swap2\n      pop\n      pop\n      jump\t// out\n        /* \"#utility.yul\":2415:2533   */\n    tag_80:\n        /* \"#utility.yul\":2502:2526   */\n      tag_121\n        /* \"#utility.yul\":2520:2525   */\n      dup2\n        /* \"#utility.yul\":2502:2526   */\n      tag_77\n      jump\t// in\n    tag_121:\n        /* \"#utility.yul\":2497:2500   */\n      dup3\n        /* \"#utility.yul\":2490:2527   */\n      mstore\n        /* \"#utility.yul\":2415:2533   */\n      pop\n      pop\n      jump\t// out\n        /* \"#utility.yul\":2539:2962   */\n    tag_22:\n        /* \"#utility.yul\":2680:2684   */\n      0x00\n        /* \"#utility.yul\":2718:2720   */\n      0x40\n        /* \"#utility.yul\":2707:2716   */\n      dup3\n        /* \"#utility.yul\":2703:2721   */\n      add\n        /* \"#utility.yul\":2695:2721   */\n      swap1\n      pop\n        /* \"#utility.yul\":2731:2802   */\n      tag_123\n        /* \"#utility.yul\":2799:2800   */\n      0x00\n        /* \"#utility.yul\":2788:2797   */\n      dup4\n        /* \"#utility.yul\":2784:2801   */\n      add\n        /* \"#utility.yul\":2775:2781   */\n      dup6\n        /* \"#utility.yul\":2731:2802   */\n      tag_80\n      jump\t// in\n    tag_123:\n        /* \"#utility.yul\":2849:2858   */\n      dup2\n        /* \"#utility.yul\":2843:2847   */\n      dup2\n        /* \"#utility.yul\":2839:2859   */\n      sub\n        /* \"#utility.yul\":2834:2836   */\n      0x20\n        /* \"#utility.yul\":2823:2832   */\n      dup4\n        /* \"#utility.yul\":2819:2837   */\n      add\n        /* \"#utility.yul\":2812:2860   */\n      mstore\n        /* \"#utility.yul\":2877:2955   */\n      tag_124\n        /* \"#utility.yul\":2950:2954   */\n      dup2\n        /* \"#utility.yul\":2941:2947   */\n      dup5\n        /* \"#utility.yul\":2877:2955   */\n      tag_73\n      jump\t// in\n    tag_124:\n        /* \"#utility.yul\":2869:2955   */\n      swap1\n      pop\n        /* \"#utility.yul\":2539:2962   */\n      swap4\n      swap3\n      pop\n      pop\n      pop\n      jump\t// out\n        /* \"#utility.yul\":2968:3190   */\n    tag_29:\n        /* \"#utility.yul\":3061:3065   */\n      0x00\n        /* \"#utility.yul\":3099:3101   */\n      0x20\n        /* \"#utility.yul\":3088:3097   */\n      dup3\n        /* \"#utility.yul\":3084:3102   */\n      add\n        /* \"#utility.yul\":3076:3102   */\n      swap1\n      pop\n        /* \"#utility.yul\":3112:3183   */\n      tag_126\n        /* \"#utility.yul\":3180:3181   */\n      0x00\n        /* \"#utility.yul\":3169:3178   */\n      dup4\n        /* \"#utility.yul\":3165:3182   */\n      add\n        /* \"#utility.yul\":3156:3162   */\n      dup5\n        /* \"#utility.yul\":3112:3183   */\n      tag_80\n      jump\t// in\n    tag_126:\n        /* \"#utility.yul\":2968:3190   */\n      swap3\n      swap2\n      pop\n      pop\n      jump\t// out\n        /* \"#utility.yul\":3196:3313   */\n    tag_81:\n        /* \"#utility.yul\":3305:3306   */\n      0x00\n        /* \"#utility.yul\":3302:3303   */\n      dup1\n        /* \"#utility.yul\":3295:3307   */\n      revert\n        /* \"#utility.yul\":3319:3436   */\n    tag_82:\n        /* \"#utility.yul\":3428:3429   */\n      0x00\n        /* \"#utility.yul\":3425:3426   */\n      dup1\n        /* \"#utility.yul\":3418:3430   */\n      revert\n        /* \"#utility.yul\":3442:3622   */\n    tag_83:\n        /* \"#utility.yul\":3490:3567   */\n      0x4e487b7100000000000000000000000000000000000000000000000000000000\n        /* \"#utility.yul\":3487:3488   */\n      0x00\n        /* \"#utility.yul\":3480:3568   */\n      mstore\n        /* \"#utility.yul\":3587:3591   */\n      0x41\n        /* \"#utility.yul\":3584:3585   */\n      0x04\n        /* \"#utility.yul\":3577:3592   */\n      mstore\n        /* \"#utility.yul\":3611:3615   */\n      0x24\n        /* \"#utility.yul\":3608:3609   */\n      0x00\n        /* \"#utility.yul\":3601:3616   */\n      revert\n        /* \"#utility.yul\":3628:3909   */\n    tag_84:\n        /* \"#utility.yul\":3711:3738   */\n      tag_131\n        /* \"#utility.yul\":3733:3737   */\n      dup3\n        /* \"#utility.yul\":3711:3738   */\n      tag_72\n      jump\t// in\n    tag_131:\n        /* \"#utility.yul\":3703:3709   */\n      dup2\n        /* \"#utility.yul\":3699:3739   */\n      add\n        /* \"#utility.yul\":3841:3847   */\n      dup2\n        /* \"#utility.yul\":3829:3839   */\n      dup2\n        /* \"#utility.yul\":3826:3848   */\n      lt\n        /* \"#utility.yul\":3805:3823   */\n      0xffffffffffffffff\n        /* \"#utility.yul\":3793:3803   */\n      dup3\n        /* \"#utility.yul\":3790:3824   */\n      gt\n        /* \"#utility.yul\":3787:3849   */\n      or\n        /* \"#utility.yul\":3784:3872   */\n      iszero\n      tag_132\n      jumpi\n        /* \"#utility.yul\":3852:3870   */\n      tag_133\n      tag_83\n      jump\t// in\n    tag_133:\n        /* \"#utility.yul\":3784:3872   */\n    tag_132:\n        /* \"#utility.yul\":3892:3902   */\n      dup1\n        /* \"#utility.yul\":3888:3890   */\n      0x40\n        /* \"#utility.yul\":3881:3903   */\n      mstore\n        /* \"#utility.yul\":3671:3909   */\n      pop\n        /* \"#utility.yul\":3628:3909   */\n      pop\n      pop\n      jump\t// out\n        /* \"#utility.yul\":3915:4044   */\n    tag_85:\n        /* \"#utility.yul\":3949:3955   */\n      0x00\n        /* \"#utility.yul\":3976:3996   */\n      tag_135\n      tag_74\n      jump\t// in\n    tag_135:\n        /* \"#utility.yul\":3966:3996   */\n      swap1\n      pop\n        /* \"#utility.yul\":4005:4038   */\n      tag_136\n        /* \"#utility.yul\":4033:4037   */\n      dup3\n        /* \"#utility.yul\":4025:4031   */\n      dup3\n        /* \"#utility.yul\":4005:4038   */\n      tag_84\n      jump\t// in\n    tag_136:\n        /* \"#utility.yul\":3915:4044   */\n      swap2\n      swap1\n      pop\n      jump\t// out\n        /* \"#utility.yul\":4050:4358   */\n    tag_86:\n        /* \"#utility.yul\":4112:4116   */\n      0x00\n        /* \"#utility.yul\":4202:4220   */\n      0xffffffffffffffff\n        /* \"#utility.yul\":4194:4200   */\n      dup3\n        /* \"#utility.yul\":4191:4221   */\n      gt\n        /* \"#utility.yul\":4188:4244   */\n      iszero\n      tag_138\n      jumpi\n        /* \"#utility.yul\":4224:4242   */\n      tag_139\n      tag_83\n      jump\t// in\n    tag_139:\n        /* \"#utility.yul\":4188:4244   */\n    tag_138:\n        /* \"#utility.yul\":4262:4291   */\n      tag_140\n        /* \"#utility.yul\":4284:4290   */\n      dup3\n        /* \"#utility.yul\":4262:4291   */\n      tag_72\n      jump\t// in\n    tag_140:\n        /* \"#utility.yul\":4254:4291   */\n      swap1\n      pop\n        /* \"#utility.yul\":4346:4350   */\n      0x20\n        /* \"#utility.yul\":4340:4344   */\n      dup2\n        /* \"#utility.yul\":4336:4351   */\n      add\n        /* \"#utility.yul\":4328:4351   */\n      swap1\n      pop\n        /* \"#utility.yul\":4050:4358   */\n      swap2\n      swap1\n      pop\n      jump\t// out\n        /* \"#utility.yul\":4364:4518   */\n    tag_87:\n        /* \"#utility.yul\":4448:4454   */\n      dup3\n        /* \"#utility.yul\":4443:4446   */\n      dup2\n        /* \"#utility.yul\":4438:4441   */\n      dup4\n        /* \"#utility.yul\":4425:4455   */\n      calldatacopy\n        /* \"#utility.yul\":4510:4511   */\n      0x00\n        /* \"#utility.yul\":4501:4507   */\n      dup4\n        /* \"#utility.yul\":4496:4499   */\n      dup4\n        /* \"#utility.yul\":4492:4508   */\n      add\n        /* \"#utility.yul\":4485:4512   */\n      mstore\n        /* \"#utility.yul\":4364:4518   */\n      pop\n      pop\n      pop\n      jump\t// out\n        /* \"#utility.yul\":4524:4936   */\n    tag_88:\n        /* \"#utility.yul\":4602:4607   */\n      0x00\n        /* \"#utility.yul\":4627:4693   */\n      tag_143\n        /* \"#utility.yul\":4643:4692   */\n      tag_144\n        /* \"#utility.yul\":4685:4691   */\n      dup5\n        /* \"#utility.yul\":4643:4692   */\n      tag_86\n      jump\t// in\n    tag_144:\n        /* \"#utility.yul\":4627:4693   */\n      tag_85\n      jump\t// in\n    tag_143:\n        /* \"#utility.yul\":4618:4693   */\n      swap1\n      pop\n        /* \"#utility.yul\":4716:4722   */\n      dup3\n        /* \"#utility.yul\":4709:4714   */\n      dup2\n        /* \"#utility.yul\":4702:4723   */\n      mstore\n        /* \"#utility.yul\":4754:4758   */\n      0x20\n        /* \"#utility.yul\":4747:4752   */\n      dup2\n        /* \"#utility.yul\":4743:4759   */\n      add\n        /* \"#utility.yul\":4792:4795   */\n      dup5\n        /* \"#utility.yul\":4783:4789   */\n      dup5\n        /* \"#utility.yul\":4778:4781   */\n      dup5\n        /* \"#utility.yul\":4774:4790   */\n      add\n        /* \"#utility.yul\":4771:4796   */\n      gt\n        /* \"#utility.yul\":4768:4880   */\n      iszero\n      tag_145\n      jumpi\n        /* \"#utility.yul\":4799:4878   */\n      tag_146\n      tag_82\n      jump\t// in\n    tag_146:\n        /* \"#utility.yul\":4768:4880   */\n    tag_145:\n        /* \"#utility.yul\":4889:4930   */\n      tag_147\n        /* \"#utility.yul\":4923:4929   */\n      dup5\n        /* \"#utility.yul\":4918:4921   */\n      dup3\n        /* \"#utility.yul\":4913:4916   */\n      dup6\n        /* \"#utility.yul\":4889:4930   */\n      tag_87\n      jump\t// in\n    tag_147:\n        /* \"#utility.yul\":4608:4936   */\n      pop\n        /* \"#utility.yul\":4524:4936   */\n      swap4\n      swap3\n      pop\n      pop\n      pop\n      jump\t// out\n        /* \"#utility.yul\":4956:5296   */\n    tag_89:\n        /* \"#utility.yul\":5012:5017   */\n      0x00\n        /* \"#utility.yul\":5061:5064   */\n      dup3\n        /* \"#utility.yul\":5054:5058   */\n      0x1f\n        /* \"#utility.yul\":5046:5052   */\n      dup4\n        /* \"#utility.yul\":5042:5059   */\n      add\n        /* \"#utility.yul\":5038:5065   */\n      slt\n        /* \"#utility.yul\":5028:5150   */\n      tag_149\n      jumpi\n        /* \"#utility.yul\":5069:5148   */\n      tag_150\n      tag_81\n      jump\t// in\n    tag_150:\n        /* \"#utility.yul\":5028:5150   */\n    tag_149:\n        /* \"#utility.yul\":5186:5192   */\n      dup2\n        /* \"#utility.yul\":5173:5193   */\n      calldataload\n        /* \"#utility.yul\":5211:5290   */\n      tag_151\n        /* \"#utility.yul\":5286:5289   */\n      dup5\n        /* \"#utility.yul\":5278:5284   */\n      dup3\n        /* \"#utility.yul\":5271:5275   */\n      0x20\n        /* \"#utility.yul\":5263:5269   */\n      dup7\n        /* \"#utility.yul\":5259:5276   */\n      add\n        /* \"#utility.yul\":5211:5290   */\n      tag_88\n      jump\t// in\n    tag_151:\n        /* \"#utility.yul\":5202:5290   */\n      swap2\n      pop\n        /* \"#utility.yul\":5018:5296   */\n      pop\n        /* \"#utility.yul\":4956:5296   */\n      swap3\n      swap2\n      pop\n      pop\n      jump\t// out\n        /* \"#utility.yul\":5302:5811   */\n    tag_32:\n        /* \"#utility.yul\":5371:5377   */\n      0x00\n        /* \"#utility.yul\":5420:5422   */\n      0x20\n        /* \"#utility.yul\":5408:5417   */\n      dup3\n        /* \"#utility.yul\":5399:5406   */\n      dup5\n        /* \"#utility.yul\":5395:5418   */\n      sub\n        /* \"#utility.yul\":5391:5423   */\n      slt\n        /* \"#utility.yul\":5388:5507   */\n      iszero\n      tag_153\n      jumpi\n        /* \"#utility.yul\":5426:5505   */\n      tag_154\n      tag_75\n      jump\t// in\n    tag_154:\n        /* \"#utility.yul\":5388:5507   */\n    tag_153:\n        /* \"#utility.yul\":5574:5575   */\n      0x00\n        /* \"#utility.yul\":5563:5572   */\n      dup3\n        /* \"#utility.yul\":5559:5576   */\n      add\n        /* \"#utility.yul\":5546:5577   */\n      calldataload\n        /* \"#utility.yul\":5604:5622   */\n      0xffffffffffffffff\n        /* \"#utility.yul\":5596:5602   */\n      dup2\n        /* \"#utility.yul\":5593:5623   */\n      gt\n        /* \"#utility.yul\":5590:5707   */\n      iszero\n      tag_155\n      jumpi\n        /* \"#utility.yul\":5626:5705   */\n      tag_156\n      tag_76\n      jump\t// in\n    tag_156:\n        /* \"#utility.yul\":5590:5707   */\n    tag_155:\n        /* \"#utility.yul\":5731:5794   */\n      tag_157\n        /* \"#utility.yul\":5786:5793   */\n      dup5\n        /* \"#utility.yul\":5777:5783   */\n      dup3\n        /* \"#utility.yul\":5766:5775   */\n      dup6\n        /* \"#utility.yul\":5762:5784   */\n      add\n        /* \"#utility.yul\":5731:5794   */\n      tag_89\n      jump\t// in\n    tag_157:\n        /* \"#utility.yul\":5721:5794   */\n      swap2\n      pop\n        /* \"#utility.yul\":5517:5804   */\n      pop\n        /* \"#utility.yul\":5302:5811   */\n      swap3\n      swap2\n      pop\n      pop\n      jump\t// out\n        /* \"#utility.yul\":5817:5997   */\n    tag_90:\n        /* \"#utility.yul\":5865:5942   */\n      0x4e487b7100000000000000000000000000000000000000000000000000000000\n        /* \"#utility.yul\":5862:5863   */\n      0x00\n        /* \"#utility.yul\":5855:5943   */\n      mstore\n        /* \"#utility.yul\":5962:5966   */\n      0x22\n        /* \"#utility.yul\":5959:5960   */\n      0x04\n        /* \"#utility.yul\":5952:5967   */\n      mstore\n        /* \"#utility.yul\":5986:5990   */\n      0x24\n        /* \"#utility.yul\":5983:5984   */\n      0x00\n        /* \"#utility.yul\":5976:5991   */\n      revert\n        /* \"#utility.yul\":6003:6323   */\n    tag_38:\n        /* \"#utility.yul\":6047:6053   */\n      0x00\n        /* \"#utility.yul\":6084:6085   */\n      0x02\n        /* \"#utility.yul\":6078:6082   */\n      dup3\n        /* \"#utility.yul\":6074:6086   */\n      div\n        /* \"#utility.yul\":6064:6086   */\n      swap1\n      pop\n        /* \"#utility.yul\":6131:6132   */\n      0x01\n        /* \"#utility.yul\":6125:6129   */\n      dup3\n        /* \"#utility.yul\":6121:6133   */\n      and\n        /* \"#utility.yul\":6152:6170   */\n      dup1\n        /* \"#utility.yul\":6142:6223   */\n      tag_160\n      jumpi\n        /* \"#utility.yul\":6208:6212   */\n      0x7f\n        /* \"#utility.yul\":6200:6206   */\n      dup3\n        /* \"#utility.yul\":6196:6213   */\n      and\n        /* \"#utility.yul\":6186:6213   */\n      swap2\n      pop\n        /* \"#utility.yul\":6142:6223   */\n    tag_160:\n        /* \"#utility.yul\":6270:6272   */\n      0x20\n        /* \"#utility.yul\":6262:6268   */\n      dup3\n        /* \"#utility.yul\":6259:6273   */\n      lt\n        /* \"#utility.yul\":6239:6257   */\n      dup2\n        /* \"#utility.yul\":6236:6274   */\n      eq\n        /* \"#utility.yul\":6233:6317   */\n      iszero\n      tag_161\n      jumpi\n        /* \"#utility.yul\":6289:6307   */\n      tag_162\n      tag_90\n      jump\t// in\n    tag_162:\n        /* \"#utility.yul\":6233:6317   */\n    tag_161:\n        /* \"#utility.yul\":6054:6323   */\n      pop\n        /* \"#utility.yul\":6003:6323   */\n      swap2\n      swap1\n      pop\n      jump\t// out\n\n    auxdata: 0xa2646970667358221220551a5176780e1b5f5120851dcc5f6c52b70d7a76175b13514cd71d21b9f8274564736f6c63430008080033\n}\n",
				"bytecode": {
					"linkReferences": {},
					"object": "60806040526040518060400160405280601181526020016040518060400160405280600481526020017f53616d6900000000000000000000000000000000000000000000000000000000815250815250600260008201518160000155602082015181600101908051906020019061007792919061008c565b50505034801561008657600080fd5b50610190565b8280546100989061015e565b90600052602060002090601f0160209004810192826100ba5760008555610101565b82601f106100d357805160ff1916838001178555610101565b82800160010185558215610101579182015b828111156101005782518255916020019190600101906100e5565b5b50905061010e9190610112565b5090565b5b8082111561012b576000816000905550600101610113565b5090565b7f4e487b7100000000000000000000000000000000000000000000000000000000600052602260045260246000fd5b6000600282049050600182168061017657607f821691505b6020821081141561018a5761018961012f565b5b50919050565b6107828061019f6000396000f3fe608060405234801561001057600080fd5b506004361061007d5760003560e01c806317d7de7c1161005b57806317d7de7c146100db57806323fd0e40146100f95780635353a2d814610117578063f2c9ecd8146101335761007d565b806306fdde031461008257806307391dd6146100a0578063087a2f59146100bc575b600080fd5b61008a610151565b604051610097919061047a565b60405180910390f35b6100ba60048036038101906100b591906104e6565b6101df565b005b6100c46101e9565b6040516100d2929190610522565b60405180910390f35b6100e3610283565b6040516100f0919061047a565b60405180910390f35b610101610315565b60405161010e9190610552565b60405180910390f35b610131600480360381019061012c91906106a2565b61031b565b005b61013b610335565b6040516101489190610552565b60405180910390f35b6001805461015e9061071a565b80601f016020809104026020016040519081016040528092919081815260200182805461018a9061071a565b80156101d75780601f106101ac576101008083540402835291602001916101d7565b820191906000526020600020905b8154815290600101906020018083116101ba57829003601f168201915b505050505081565b8060008190555050565b60028060000154908060010180546102009061071a565b80601f016020809104026020016040519081016040528092919081815260200182805461022c9061071a565b80156102795780601f1061024e57610100808354040283529160200191610279565b820191906000526020600020905b81548152906001019060200180831161025c57829003601f168201915b5050505050905082565b6060600180546102929061071a565b80601f01602080910402602001604051908101604052809291908181526020018280546102be9061071a565b801561030b5780601f106102e05761010080835404028352916020019161030b565b820191906000526020600020905b8154815290600101906020018083116102ee57829003601f168201915b5050505050905090565b60005481565b806001908051906020019061033192919061033e565b5050565b60008054905090565b82805461034a9061071a565b90600052602060002090601f01602090048101928261036c57600085556103b3565b82601f1061038557805160ff19168380011785556103b3565b828001600101855582156103b3579182015b828111156103b2578251825591602001919060010190610397565b5b5090506103c091906103c4565b5090565b5b808211156103dd5760008160009055506001016103c5565b5090565b600081519050919050565b600082825260208201905092915050565b60005b8381101561041b578082015181840152602081019050610400565b8381111561042a576000848401525b50505050565b6000601f19601f8301169050919050565b600061044c826103e1565b61045681856103ec565b93506104668185602086016103fd565b61046f81610430565b840191505092915050565b600060208201905081810360008301526104948184610441565b905092915050565b6000604051905090565b600080fd5b600080fd5b6000819050919050565b6104c3816104b0565b81146104ce57600080fd5b50565b6000813590506104e0816104ba565b92915050565b6000602082840312156104fc576104fb6104a6565b5b600061050a848285016104d1565b91505092915050565b61051c816104b0565b82525050565b60006040820190506105376000830185610513565b81810360208301526105498184610441565b90509392505050565b60006020820190506105676000830184610513565b92915050565b600080fd5b600080fd5b7f4e487b7100000000000000000000000000000000000000000000000000000000600052604160045260246000fd5b6105af82610430565b810181811067ffffffffffffffff821117156105ce576105cd610577565b5b80604052505050565b60006105e161049c565b90506105ed82826105a6565b919050565b600067ffffffffffffffff82111561060d5761060c610577565b5b61061682610430565b9050602081019050919050565b82818337600083830152505050565b6000610645610640846105f2565b6105d7565b90508281526020810184848401111561066157610660610572565b5b61066c848285610623565b509392505050565b600082601f8301126106895761068861056d565b5b8135610699848260208601610632565b91505092915050565b6000602082840312156106b8576106b76104a6565b5b600082013567ffffffffffffffff8111156106d6576106d56104ab565b5b6106e284828501610674565b91505092915050565b7f4e487b7100000000000000000000000000000000000000000000000000000000600052602260045260246000fd5b6000600282049050600182168061073257607f821691505b60208210811415610746576107456106eb565b5b5091905056fea2646970667358221220551a5176780e1b5f5120851dcc5f6c52b70d7a76175b13514cd71d21b9f8274564736f6c63430008080033",
					"opcodes": "PUSH1 0x80 PUSH1 0x40 MSTORE PUSH1 0x40 MLOAD DUP1 PUSH1 0x40 ADD PUSH1 0x40 MSTORE DUP1 PUSH1 0x11 DUP2 MSTORE PUSH1 0x20 ADD PUSH1 0x40 MLOAD DUP1 PUSH1 0x40 ADD PUSH1 0x40 MSTORE DUP1 PUSH1 0x4 DUP2 MSTORE PUSH1 0x20 ADD PUSH32 0x53616D6900000000000000000000000000000000000000000000000000000000 DUP2 MSTORE POP DUP2 MSTORE POP PUSH1 0x2 PUSH1 0x0 DUP3 ADD MLOAD DUP2 PUSH1 0x0 ADD SSTORE PUSH1 0x20 DUP3 ADD MLOAD DUP2 PUSH1 0x1 ADD SWAP1 DUP1 MLOAD SWAP1 PUSH1 0x20 ADD SWAP1 PUSH2 0x77 SWAP3 SWAP2 SWAP1 PUSH2 0x8C JUMP JUMPDEST POP POP POP CALLVALUE DUP1 ISZERO PUSH2 0x86 JUMPI PUSH1 0x0 DUP1 REVERT JUMPDEST POP PUSH2 0x190 JUMP JUMPDEST DUP3 DUP1 SLOAD PUSH2 0x98 SWAP1 PUSH2 0x15E JUMP JUMPDEST SWAP1 PUSH1 0x0 MSTORE PUSH1 0x20 PUSH1 0x0 KECCAK256 SWAP1 PUSH1 0x1F ADD PUSH1 0x20 SWAP1 DIV DUP2 ADD SWAP3 DUP3 PUSH2 0xBA JUMPI PUSH1 0x0 DUP6 SSTORE PUSH2 0x101 JUMP JUMPDEST DUP3 PUSH1 0x1F LT PUSH2 0xD3 JUMPI DUP1 MLOAD PUSH1 0xFF NOT AND DUP4 DUP1 ADD OR DUP6 SSTORE PUSH2 0x101 JUMP JUMPDEST DUP3 DUP1 ADD PUSH1 0x1 ADD DUP6 SSTORE DUP3 ISZERO PUSH2 0x101 JUMPI SWAP2 DUP3 ADD JUMPDEST DUP3 DUP2 GT ISZERO PUSH2 0x100 JUMPI DUP3 MLOAD DUP3 SSTORE SWAP2 PUSH1 0x20 ADD SWAP2 SWAP1 PUSH1 0x1 ADD SWAP1 PUSH2 0xE5 JUMP JUMPDEST JUMPDEST POP SWAP1 POP PUSH2 0x10E SWAP2 SWAP1 PUSH2 0x112 JUMP JUMPDEST POP SWAP1 JUMP JUMPDEST JUMPDEST DUP1 DUP3 GT ISZERO PUSH2 0x12B JUMPI PUSH1 0x0 DUP2 PUSH1 0x0 SWAP1 SSTORE POP PUSH1 0x1 ADD PUSH2 0x113 JUMP JUMPDEST POP SWAP1 JUMP JUMPDEST PUSH32 0x4E487B7100000000000000000000000000000000000000000000000000000000 PUSH1 0x0 MSTORE PUSH1 0x22 PUSH1 0x4 MSTORE PUSH1 0x24 PUSH1 0x0 REVERT JUMPDEST PUSH1 0x0 PUSH1 0x2 DUP3 DIV SWAP1 POP PUSH1 0x1 DUP3 AND DUP1 PUSH2 0x176 JUMPI PUSH1 0x7F DUP3 AND SWAP2 POP JUMPDEST PUSH1 0x20 DUP3 LT DUP2 EQ ISZERO PUSH2 0x18A JUMPI PUSH2 0x189 PUSH2 0x12F JUMP JUMPDEST JUMPDEST POP SWAP2 SWAP1 POP JUMP JUMPDEST PUSH2 0x782 DUP1 PUSH2 0x19F PUSH1 0x0 CODECOPY PUSH1 0x0 RETURN INVALID PUSH1 0x80 PUSH1 0x40 MSTORE CALLVALUE DUP1 ISZERO PUSH2 0x10 JUMPI PUSH1 0x0 DUP1 REVERT JUMPDEST POP PUSH1 0x4 CALLDATASIZE LT PUSH2 0x7D JUMPI PUSH1 0x0 CALLDATALOAD PUSH1 0xE0 SHR DUP1 PUSH4 0x17D7DE7C GT PUSH2 0x5B JUMPI DUP1 PUSH4 0x17D7DE7C EQ PUSH2 0xDB JUMPI DUP1 PUSH4 0x23FD0E40 EQ PUSH2 0xF9 JUMPI DUP1 PUSH4 0x5353A2D8 EQ PUSH2 0x117 JUMPI DUP1 PUSH4 0xF2C9ECD8 EQ PUSH2 0x133 JUMPI PUSH2 0x7D JUMP JUMPDEST DUP1 PUSH4 0x6FDDE03 EQ PUSH2 0x82 JUMPI DUP1 PUSH4 0x7391DD6 EQ PUSH2 0xA0 JUMPI DUP1 PUSH4 0x87A2F59 EQ PUSH2 0xBC JUMPI JUMPDEST PUSH1 0x0 DUP1 REVERT JUMPDEST PUSH2 0x8A PUSH2 0x151 JUMP JUMPDEST PUSH1 0x40 MLOAD PUSH2 0x97 SWAP2 SWAP1 PUSH2 0x47A JUMP JUMPDEST PUSH1 0x40 MLOAD DUP1 SWAP2 SUB SWAP1 RETURN JUMPDEST PUSH2 0xBA PUSH1 0x4 DUP1 CALLDATASIZE SUB DUP2 ADD SWAP1 PUSH2 0xB5 SWAP2 SWAP1 PUSH2 0x4E6 JUMP JUMPDEST PUSH2 0x1DF JUMP JUMPDEST STOP JUMPDEST PUSH2 0xC4 PUSH2 0x1E9 JUMP JUMPDEST PUSH1 0x40 MLOAD PUSH2 0xD2 SWAP3 SWAP2 SWAP1 PUSH2 0x522 JUMP JUMPDEST PUSH1 0x40 MLOAD DUP1 SWAP2 SUB SWAP1 RETURN JUMPDEST PUSH2 0xE3 PUSH2 0x283 JUMP JUMPDEST PUSH1 0x40 MLOAD PUSH2 0xF0 SWAP2 SWAP1 PUSH2 0x47A JUMP JUMPDEST PUSH1 0x40 MLOAD DUP1 SWAP2 SUB SWAP1 RETURN JUMPDEST PUSH2 0x101 PUSH2 0x315 JUMP JUMPDEST PUSH1 0x40 MLOAD PUSH2 0x10E SWAP2 SWAP1 PUSH2 0x552 JUMP JUMPDEST PUSH1 0x40 MLOAD DUP1 SWAP2 SUB SWAP1 RETURN JUMPDEST PUSH2 0x131 PUSH1 0x4 DUP1 CALLDATASIZE SUB DUP2 ADD SWAP1 PUSH2 0x12C SWAP2 SWAP1 PUSH2 0x6A2 JUMP JUMPDEST PUSH2 0x31B JUMP JUMPDEST STOP JUMPDEST PUSH2 0x13B PUSH2 0x335 JUMP JUMPDEST PUSH1 0x40 MLOAD PUSH2 0x148 SWAP2 SWAP1 PUSH2 0x552 JUMP JUMPDEST PUSH1 0x40 MLOAD DUP1 SWAP2 SUB SWAP1 RETURN JUMPDEST PUSH1 0x1 DUP1 SLOAD PUSH2 0x15E SWAP1 PUSH2 0x71A JUMP JUMPDEST DUP1 PUSH1 0x1F ADD PUSH1 0x20 DUP1 SWAP2 DIV MUL PUSH1 0x20 ADD PUSH1 0x40 MLOAD SWAP1 DUP2 ADD PUSH1 0x40 MSTORE DUP1 SWAP3 SWAP2 SWAP1 DUP2 DUP2 MSTORE PUSH1 0x20 ADD DUP3 DUP1 SLOAD PUSH2 0x18A SWAP1 PUSH2 0x71A JUMP JUMPDEST DUP1 ISZERO PUSH2 0x1D7 JUMPI DUP1 PUSH1 0x1F LT PUSH2 0x1AC JUMPI PUSH2 0x100 DUP1 DUP4 SLOAD DIV MUL DUP4 MSTORE SWAP2 PUSH1 0x20 ADD SWAP2 PUSH2 0x1D7 JUMP JUMPDEST DUP3 ADD SWAP2 SWAP1 PUSH1 0x0 MSTORE PUSH1 0x20 PUSH1 0x0 KECCAK256 SWAP1 JUMPDEST DUP2 SLOAD DUP2 MSTORE SWAP1 PUSH1 0x1 ADD SWAP1 PUSH1 0x20 ADD DUP1 DUP4 GT PUSH2 0x1BA JUMPI DUP3 SWAP1 SUB PUSH1 0x1F AND DUP3 ADD SWAP2 JUMPDEST POP POP POP POP POP DUP2 JUMP JUMPDEST DUP1 PUSH1 0x0 DUP2 SWAP1 SSTORE POP POP JUMP JUMPDEST PUSH1 0x2 DUP1 PUSH1 0x0 ADD SLOAD SWAP1 DUP1 PUSH1 0x1 ADD DUP1 SLOAD PUSH2 0x200 SWAP1 PUSH2 0x71A JUMP JUMPDEST DUP1 PUSH1 0x1F ADD PUSH1 0x20 DUP1 SWAP2 DIV MUL PUSH1 0x20 ADD PUSH1 0x40 MLOAD SWAP1 DUP2 ADD PUSH1 0x40 MSTORE DUP1 SWAP3 SWAP2 SWAP1 DUP2 DUP2 MSTORE PUSH1 0x20 ADD DUP3 DUP1 SLOAD PUSH2 0x22C SWAP1 PUSH2 0x71A JUMP JUMPDEST DUP1 ISZERO PUSH2 0x279 JUMPI DUP1 PUSH1 0x1F LT PUSH2 0x24E JUMPI PUSH2 0x100 DUP1 DUP4 SLOAD DIV MUL DUP4 MSTORE SWAP2 PUSH1 0x20 ADD SWAP2 PUSH2 0x279 JUMP JUMPDEST DUP3 ADD SWAP2 SWAP1 PUSH1 0x0 MSTORE PUSH1 0x20 PUSH1 0x0 KECCAK256 SWAP1 JUMPDEST DUP2 SLOAD DUP2 MSTORE SWAP1 PUSH1 0x1 ADD SWAP1 PUSH1 0x20 ADD DUP1 DUP4 GT PUSH2 0x25C JUMPI DUP3 SWAP1 SUB PUSH1 0x1F AND DUP3 ADD SWAP2 JUMPDEST POP POP POP POP POP SWAP1 POP DUP3 JUMP JUMPDEST PUSH1 0x60 PUSH1 0x1 DUP1 SLOAD PUSH2 0x292 SWAP1 PUSH2 0x71A JUMP JUMPDEST DUP1 PUSH1 0x1F ADD PUSH1 0x20 DUP1 SWAP2 DIV MUL PUSH1 0x20 ADD PUSH1 0x40 MLOAD SWAP1 DUP2 ADD PUSH1 0x40 MSTORE DUP1 SWAP3 SWAP2 SWAP1 DUP2 DUP2 MSTORE PUSH1 0x20 ADD DUP3 DUP1 SLOAD PUSH2 0x2BE SWAP1 PUSH2 0x71A JUMP JUMPDEST DUP1 ISZERO PUSH2 0x30B JUMPI DUP1 PUSH1 0x1F LT PUSH2 0x2E0 JUMPI PUSH2 0x100 DUP1 DUP4 SLOAD DIV MUL DUP4 MSTORE SWAP2 PUSH1 0x20 ADD SWAP2 PUSH2 0x30B JUMP JUMPDEST DUP3 ADD SWAP2 SWAP1 PUSH1 0x0 MSTORE PUSH1 0x20 PUSH1 0x0 KECCAK256 SWAP1 JUMPDEST DUP2 SLOAD DUP2 MSTORE SWAP1 PUSH1 0x1 ADD SWAP1 PUSH1 0x20 ADD DUP1 DUP4 GT PUSH2 0x2EE JUMPI DUP3 SWAP1 SUB PUSH1 0x1F AND DUP3 ADD SWAP2 JUMPDEST POP POP POP POP POP SWAP1 POP SWAP1 JUMP JUMPDEST PUSH1 0x0 SLOAD DUP2 JUMP JUMPDEST DUP1 PUSH1 0x1 SWAP1 DUP1 MLOAD SWAP1 PUSH1 0x20 ADD SWAP1 PUSH2 0x331 SWAP3 SWAP2 SWAP1 PUSH2 0x33E JUMP JUMPDEST POP POP JUMP JUMPDEST PUSH1 0x0 DUP1 SLOAD SWAP1 POP SWAP1 JUMP JUMPDEST DUP3 DUP1 SLOAD PUSH2 0x34A SWAP1 PUSH2 0x71A JUMP JUMPDEST SWAP1 PUSH1 0x0 MSTORE PUSH1 0x20 PUSH1 0x0 KECCAK256 SWAP1 PUSH1 0x1F ADD PUSH1 0x20 SWAP1 DIV DUP2 ADD SWAP3 DUP3 PUSH2 0x36C JUMPI PUSH1 0x0 DUP6 SSTORE PUSH2 0x3B3 JUMP JUMPDEST DUP3 PUSH1 0x1F LT PUSH2 0x385 JUMPI DUP1 MLOAD PUSH1 0xFF NOT AND DUP4 DUP1 ADD OR DUP6 SSTORE PUSH2 0x3B3 JUMP JUMPDEST DUP3 DUP1 ADD PUSH1 0x1 ADD DUP6 SSTORE DUP3 ISZERO PUSH2 0x3B3 JUMPI SWAP2 DUP3 ADD JUMPDEST DUP3 DUP2 GT ISZERO PUSH2 0x3B2 JUMPI DUP3 MLOAD DUP3 SSTORE SWAP2 PUSH1 0x20 ADD SWAP2 SWAP1 PUSH1 0x1 ADD SWAP1 PUSH2 0x397 JUMP JUMPDEST JUMPDEST POP SWAP1 POP PUSH2 0x3C0 SWAP2 SWAP1 PUSH2 0x3C4 JUMP JUMPDEST POP SWAP1 JUMP JUMPDEST JUMPDEST DUP1 DUP3 GT ISZERO PUSH2 0x3DD JUMPI PUSH1 0x0 DUP2 PUSH1 0x0 SWAP1 SSTORE POP PUSH1 0x1 ADD PUSH2 0x3C5 JUMP JUMPDEST POP SWAP1 JUMP JUMPDEST PUSH1 0x0 DUP2 MLOAD SWAP1 POP SWAP2 SWAP1 POP JUMP JUMPDEST PUSH1 0x0 DUP3 DUP3 MSTORE PUSH1 0x20 DUP3 ADD SWAP1 POP SWAP3 SWAP2 POP POP JUMP JUMPDEST PUSH1 0x0 JUMPDEST DUP4 DUP2 LT ISZERO PUSH2 0x41B JUMPI DUP1 DUP3 ADD MLOAD DUP2 DUP5 ADD MSTORE PUSH1 0x20 DUP2 ADD SWAP1 POP PUSH2 0x400 JUMP JUMPDEST DUP4 DUP2 GT ISZERO PUSH2 0x42A JUMPI PUSH1 0x0 DUP5 DUP5 ADD MSTORE JUMPDEST POP POP POP POP JUMP JUMPDEST PUSH1 0x0 PUSH1 0x1F NOT PUSH1 0x1F DUP4 ADD AND SWAP1 POP SWAP2 SWAP1 POP JUMP JUMPDEST PUSH1 0x0 PUSH2 0x44C DUP3 PUSH2 0x3E1 JUMP JUMPDEST PUSH2 0x456 DUP2 DUP6 PUSH2 0x3EC JUMP JUMPDEST SWAP4 POP PUSH2 0x466 DUP2 DUP6 PUSH1 0x20 DUP7 ADD PUSH2 0x3FD JUMP JUMPDEST PUSH2 0x46F DUP2 PUSH2 0x430 JUMP JUMPDEST DUP5 ADD SWAP2 POP POP SWAP3 SWAP2 POP POP JUMP JUMPDEST PUSH1 0x0 PUSH1 0x20 DUP3 ADD SWAP1 POP DUP2 DUP2 SUB PUSH1 0x0 DUP4 ADD MSTORE PUSH2 0x494 DUP2 DUP5 PUSH2 0x441 JUMP JUMPDEST SWAP1 POP SWAP3 SWAP2 POP POP JUMP JUMPDEST PUSH1 0x0 PUSH1 0x40 MLOAD SWAP1 POP SWAP1 JUMP JUMPDEST PUSH1 0x0 DUP1 REVERT JUMPDEST PUSH1 0x0 DUP1 REVERT JUMPDEST PUSH1 0x0 DUP2 SWAP1 POP SWAP2 SWAP1 POP JUMP JUMPDEST PUSH2 0x4C3 DUP2 PUSH2 0x4B0 JUMP JUMPDEST DUP2 EQ PUSH2 0x4CE JUMPI PUSH1 0x0 DUP1 REVERT JUMPDEST POP JUMP JUMPDEST PUSH1 0x0 DUP2 CALLDATALOAD SWAP1 POP PUSH2 0x4E0 DUP2 PUSH2 0x4BA JUMP JUMPDEST SWAP3 SWAP2 POP POP JUMP JUMPDEST PUSH1 0x0 PUSH1 0x20 DUP3 DUP5 SUB SLT ISZERO PUSH2 0x4FC JUMPI PUSH2 0x4FB PUSH2 0x4A6 JUMP JUMPDEST JUMPDEST PUSH1 0x0 PUSH2 0x50A DUP5 DUP3 DUP6 ADD PUSH2 0x4D1 JUMP JUMPDEST SWAP2 POP POP SWAP3 SWAP2 POP POP JUMP JUMPDEST PUSH2 0x51C DUP2 PUSH2 0x4B0 JUMP JUMPDEST DUP3 MSTORE POP POP JUMP JUMPDEST PUSH1 0x0 PUSH1 0x40 DUP3 ADD SWAP1 POP PUSH2 0x537 PUSH1 0x0 DUP4 ADD DUP6 PUSH2 0x513 JUMP JUMPDEST DUP2 DUP2 SUB PUSH1 0x20 DUP4 ADD MSTORE PUSH2 0x549 DUP2 DUP5 PUSH2 0x441 JUMP JUMPDEST SWAP1 POP SWAP4 SWAP3 POP POP POP JUMP JUMPDEST PUSH1 0x0 PUSH1 0x20 DUP3 ADD SWAP1 POP PUSH2 0x567 PUSH1 0x0 DUP4 ADD DUP5 PUSH2 0x513 JUMP JUMPDEST SWAP3 SWAP2 POP POP JUMP JUMPDEST PUSH1 0x0 DUP1 REVERT JUMPDEST PUSH1 0x0 DUP1 REVERT JUMPDEST PUSH32 0x4E487B7100000000000000000000000000000000000000000000000000000000 PUSH1 0x0 MSTORE PUSH1 0x41 PUSH1 0x4 MSTORE PUSH1 0x24 PUSH1 0x0 REVERT JUMPDEST PUSH2 0x5AF DUP3 PUSH2 0x430 JUMP JUMPDEST DUP2 ADD DUP2 DUP2 LT PUSH8 0xFFFFFFFFFFFFFFFF DUP3 GT OR ISZERO PUSH2 0x5CE JUMPI PUSH2 0x5CD PUSH2 0x577 JUMP JUMPDEST JUMPDEST DUP1 PUSH1 0x40 MSTORE POP POP POP JUMP JUMPDEST PUSH1 0x0 PUSH2 0x5E1 PUSH2 0x49C JUMP JUMPDEST SWAP1 POP PUSH2 0x5ED DUP3 DUP3 PUSH2 0x5A6 JUMP JUMPDEST SWAP2 SWAP1 POP JUMP JUMPDEST PUSH1 0x0 PUSH8 0xFFFFFFFFFFFFFFFF DUP3 GT ISZERO PUSH2 0x60D JUMPI PUSH2 0x60C PUSH2 0x577 JUMP JUMPDEST JUMPDEST PUSH2 0x616 DUP3 PUSH2 0x430 JUMP JUMPDEST SWAP1 POP PUSH1 0x20 DUP2 ADD SWAP1 POP SWAP2 SWAP1 POP JUMP JUMPDEST DUP3 DUP2 DUP4 CALLDATACOPY PUSH1 0x0 DUP4 DUP4 ADD MSTORE POP POP POP JUMP JUMPDEST PUSH1 0x0 PUSH2 0x645 PUSH2 0x640 DUP5 PUSH2 0x5F2 JUMP JUMPDEST PUSH2 0x5D7 JUMP JUMPDEST SWAP1 POP DUP3 DUP2 MSTORE PUSH1 0x20 DUP2 ADD DUP5 DUP5 DUP5 ADD GT ISZERO PUSH2 0x661 JUMPI PUSH2 0x660 PUSH2 0x572 JUMP JUMPDEST JUMPDEST PUSH2 0x66C DUP5 DUP3 DUP6 PUSH2 0x623 JUMP JUMPDEST POP SWAP4 SWAP3 POP POP POP JUMP JUMPDEST PUSH1 0x0 DUP3 PUSH1 0x1F DUP4 ADD SLT PUSH2 0x689 JUMPI PUSH2 0x688 PUSH2 0x56D JUMP JUMPDEST JUMPDEST DUP2 CALLDATALOAD PUSH2 0x699 DUP5 DUP3 PUSH1 0x20 DUP7 ADD PUSH2 0x632 JUMP JUMPDEST SWAP2 POP POP SWAP3 SWAP2 POP POP JUMP JUMPDEST PUSH1 0x0 PUSH1 0x20 DUP3 DUP5 SUB SLT ISZERO PUSH2 0x6B8 JUMPI PUSH2 0x6B7 PUSH2 0x4A6 JUMP JUMPDEST JUMPDEST PUSH1 0x0 DUP3 ADD CALLDATALOAD PUSH8 0xFFFFFFFFFFFFFFFF DUP2 GT ISZERO PUSH2 0x6D6 JUMPI PUSH2 0x6D5 PUSH2 0x4AB JUMP JUMPDEST JUMPDEST PUSH2 0x6E2 DUP5 DUP3 DUP6 ADD PUSH2 0x674 JUMP JUMPDEST SWAP2 POP POP SWAP3 SWAP2 POP POP JUMP JUMPDEST PUSH32 0x4E487B7100000000000000000000000000000000000000000000000000000000 PUSH1 0x0 MSTORE PUSH1 0x22 PUSH1 0x4 MSTORE PUSH1 0x24 PUSH1 0x0 REVERT JUMPDEST PUSH1 0x0 PUSH1 0x2 DUP3 DIV SWAP1 POP PUSH1 0x1 DUP3 AND DUP1 PUSH2 0x732 JUMPI PUSH1 0x7F DUP3 AND SWAP2 POP JUMPDEST PUSH1 0x20 DUP3 LT DUP2 EQ ISZERO PUSH2 0x746 JUMPI PUSH2 0x745 PUSH2 0x6EB JUMP JUMPDEST JUMPDEST POP SWAP2 SWAP1 POP JUMP INVALID LOG2 PUSH5 0x6970667358 0x22 SLT KECCAK256 SSTORE BYTE MLOAD PUSH23 0x780E1B5F5120851DCC5F6C52B70D7A76175B13514CD71D 0x21 0xB9 0xF8 0x27 GASLIMIT PUSH5 0x736F6C6343 STOP ADDMOD ADDMOD STOP CALLER "
				},
				"gasEstimates": {
					"creation": {
						"codeDepositCost": "384400",
						"executionCost": "infinite",
						"totalCost": "infinite"
					},
					"external": {
						"changeName(string)": "infinite",
						"changeNumber(uint256)": "22543",
						"getName()": "infinite",
						"getNumber()": "2503",
						"myNumber()": "2451",
						"name()": "infinite",
						"sami()": "infinite"
					}
				},
				"methodIdentifiers": {
					"changeName(string)": "5353a2d8",
					"changeNumber(uint256)": "07391dd6",
					"getName()": "17d7de7c",
					"getNumber()": "f2c9ecd8",
					"myNumber()": "23fd0e40",
					"name()": "06fdde03",
					"sami()": "087a2f59"
				}
			},
			"storageLayout": {
				"storage": [
					{
						"astId": 3,
						"contract": "contracts/SimpleStorage.sol:SimpleStorage",
						"label": "myNumber",
						"offset": 0,
						"slot": "0",
						"type": "t_uint256"
					},
					{
						"astId": 5,
						"contract": "contracts/SimpleStorage.sol:SimpleStorage",
						"label": "name",
						"offset": 0,
						"slot": "1",
						"type": "t_string_storage"
					},
					{
						"astId": 12,
						"contract": "contracts/SimpleStorage.sol:SimpleStorage",
						"label": "sami",
						"offset": 0,
						"slot": "2",
						"type": "t_struct(People)17_storage"
					}
				],
				"types": {
					"t_string_storage": {
						"encoding": "bytes",
						"label": "string",
						"numberOfBytes": "32"
					},
					"t_struct(People)17_storage": {
						"encoding": "inplace",
						"label": "struct SimpleStorage.People",
						"members": [
							{
								"astId": 14,
								"contract": "contracts/SimpleStorage.sol:SimpleStorage",
								"label": "personAge",
								"offset": 0,
								"slot": "0",
								"type": "t_uint256"
							},
							{
								"astId": 16,
								"contract": "contracts/SimpleStorage.sol:SimpleStorage",
								"label": "personName",
								"offset": 0,
								"slot": "1",
								"type": "t_string_storage"
							}
						],
						"numberOfBytes": "64"
					},
					"t_uint256": {
						"encoding": "inplace",
						"label": "uint256",
						"numberOfBytes": "32"
					}
				}
			},
			"userdoc": {
				"kind": "user",
				"methods": {},
				"version": 1
			}
		}
	}
}