{
	"contracts/FundMe.sol": {
		"FundMe": {
			"abi": [
				{
					"inputs": [
						{
							"internalType": "uint256",
							"name": "ethAmount",
							"type": "uint256"
						}
					],
					"name": "conversion",
					"outputs": [
						{
							"internalType": "uint256",
							"name": "",
							"type": "uint256"
						}
					],
					"stateMutability": "view",
					"type": "function"
				},
				{
					"inputs": [],
					"name": "fund",
					"outputs": [],
					"stateMutability": "payable",
					"type": "function"
				},
				{
					"inputs": [],
					"name": "getPrice",
					"outputs": [
						{
							"internalType": "uint256",
							"name": "",
							"type": "uint256"
						}
					],
					"stateMutability": "view",
					"type": "function"
				},
				{
					"inputs": [],
					"name": "getVersion",
					"outputs": [
						{
							"internalType": "uint256",
							"name": "",
							"type": "uint256"
						}
					],
					"stateMutability": "view",
					"type": "function"
				}
			],
			"devdoc": {
				"kind": "dev",
				"methods": {},
				"version": 1
			},
			"evm": {
				"assembly": "    /* \"contracts/FundMe.sol\":241:1665  contract FundMe {... */\n  mstore(0x40, 0x80)\n  callvalue\n  dup1\n  iszero\n  tag_1\n  jumpi\n  0x00\n  dup1\n  revert\ntag_1:\n  pop\n  dataSize(sub_0)\n  dup1\n  dataOffset(sub_0)\n  0x00\n  codecopy\n  0x00\n  return\nstop\n\nsub_0: assembly {\n        /* \"contracts/FundMe.sol\":241:1665  contract FundMe {... */\n      mstore(0x40, 0x80)\n      jumpi(tag_1, lt(calldatasize, 0x04))\n      shr(0xe0, calldataload(0x00))\n      dup1\n      0x0d8e6e2c\n      eq\n      tag_2\n      jumpi\n      dup1\n      0x98d5fdca\n      eq\n      tag_3\n      jumpi\n      dup1\n      0xb60d4288\n      eq\n      tag_4\n      jumpi\n      dup1\n      0xba4d0c99\n      eq\n      tag_5\n      jumpi\n    tag_1:\n      0x00\n      dup1\n      revert\n        /* \"contracts/FundMe.sol\":1408:1614  function getVersion() public view returns(uint256) {... */\n    tag_2:\n      callvalue\n      dup1\n      iszero\n      tag_6\n      jumpi\n      0x00\n      dup1\n      revert\n    tag_6:\n      pop\n      tag_7\n      tag_8\n      jump\t// in\n    tag_7:\n      mload(0x40)\n      tag_9\n      swap2\n      swap1\n      tag_10\n      jump\t// in\n    tag_9:\n      mload(0x40)\n      dup1\n      swap2\n      sub\n      swap1\n      return\n        /* \"contracts/FundMe.sol\":772:1179  function getPrice() public view returns(uint256) {... */\n    tag_3:\n      callvalue\n      dup1\n      iszero\n      tag_11\n      jumpi\n      0x00\n      dup1\n      revert\n    tag_11:\n      pop\n      tag_12\n      tag_13\n      jump\t// in\n    tag_12:\n      mload(0x40)\n      tag_14\n      swap2\n      swap1\n      tag_10\n      jump\t// in\n    tag_14:\n      mload(0x40)\n      dup1\n      swap2\n      sub\n      swap1\n      return\n        /* \"contracts/FundMe.sol\":465:764  function fund() public payable {... */\n    tag_4:\n      tag_15\n      tag_16\n      jump\t// in\n    tag_15:\n      stop\n        /* \"contracts/FundMe.sol\":1187:1400  function conversion(uint256 ethAmount) public view returns(uint256) {... */\n    tag_5:\n      callvalue\n      dup1\n      iszero\n      tag_17\n      jumpi\n      0x00\n      dup1\n      revert\n    tag_17:\n      pop\n      tag_18\n      0x04\n      dup1\n      calldatasize\n      sub\n      dup2\n      add\n      swap1\n      tag_19\n      swap2\n      swap1\n      tag_20\n      jump\t// in\n    tag_19:\n      tag_21\n      jump\t// in\n    tag_18:\n      mload(0x40)\n      tag_22\n      swap2\n      swap1\n      tag_10\n      jump\t// in\n    tag_22:\n      mload(0x40)\n      dup1\n      swap2\n      sub\n      swap1\n      return\n        /* \"contracts/FundMe.sol\":1408:1614  function getVersion() public view returns(uint256) {... */\n    tag_8:\n        /* \"contracts/FundMe.sol\":1450:1457  uint256 */\n      0x00\n        /* \"contracts/FundMe.sol\":1470:1501  AggregatorV3Interface priceFeed */\n      dup1\n        /* \"contracts/FundMe.sol\":1526:1568  0xD4a33860578De61DBAbDc8BFdb98FD742fA7028e */\n      0xd4a33860578de61dbabdc8bfdb98fd742fa7028e\n        /* \"contracts/FundMe.sol\":1470:1569  AggregatorV3Interface priceFeed = AggregatorV3Interface(0xD4a33860578De61DBAbDc8BFdb98FD742fA7028e) */\n      swap1\n      pop\n        /* \"contracts/FundMe.sol\":1587:1596  priceFeed */\n      dup1\n        /* \"contracts/FundMe.sol\":1587:1604  priceFeed.version */\n      0xffffffffffffffffffffffffffffffffffffffff\n      and\n      0x54fd4d50\n        /* \"contracts/FundMe.sol\":1587:1606  priceFeed.version() */\n      mload(0x40)\n      dup2\n      0xffffffff\n      and\n      0xe0\n      shl\n      dup2\n      mstore\n      0x04\n      add\n      0x20\n      mload(0x40)\n      dup1\n      dup4\n      sub\n      dup2\n      dup7\n      dup1\n      extcodesize\n      iszero\n      dup1\n      iszero\n      tag_24\n      jumpi\n      0x00\n      dup1\n      revert\n    tag_24:\n      pop\n      gas\n      staticcall\n      iszero\n      dup1\n      iszero\n      tag_26\n      jumpi\n      returndatasize\n      0x00\n      dup1\n      returndatacopy\n      revert(0x00, returndatasize)\n    tag_26:\n      pop\n      pop\n      pop\n      pop\n      mload(0x40)\n      returndatasize\n      not(0x1f)\n      0x1f\n      dup3\n      add\n      and\n      dup3\n      add\n      dup1\n      0x40\n      mstore\n      pop\n      dup2\n      add\n      swap1\n      tag_27\n      swap2\n      swap1\n      tag_28\n      jump\t// in\n    tag_27:\n        /* \"contracts/FundMe.sol\":1580:1606  return priceFeed.version() */\n      swap2\n      pop\n      pop\n        /* \"contracts/FundMe.sol\":1408:1614  function getVersion() public view returns(uint256) {... */\n      swap1\n      jump\t// out\n        /* \"contracts/FundMe.sol\":772:1179  function getPrice() public view returns(uint256) {... */\n    tag_13:\n        /* \"contracts/FundMe.sol\":812:819  uint256 */\n      0x00\n        /* \"contracts/FundMe.sol\":931:962  AggregatorV3Interface priceFeed */\n      dup1\n        /* \"contracts/FundMe.sol\":987:1029  0xD4a33860578De61DBAbDc8BFdb98FD742fA7028e */\n      0xd4a33860578de61dbabdc8bfdb98fd742fa7028e\n        /* \"contracts/FundMe.sol\":931:1030  AggregatorV3Interface priceFeed = AggregatorV3Interface(0xD4a33860578De61DBAbDc8BFdb98FD742fA7028e) */\n      swap1\n      pop\n        /* \"contracts/FundMe.sol\":1045:1058  int256 answer */\n      0x00\n        /* \"contracts/FundMe.sol\":1068:1077  priceFeed */\n      dup2\n        /* \"contracts/FundMe.sol\":1068:1093  priceFeed.latestRoundData */\n      0xffffffffffffffffffffffffffffffffffffffff\n      and\n      0xfeaf968c\n        /* \"contracts/FundMe.sol\":1068:1095  priceFeed.latestRoundData() */\n      mload(0x40)\n      dup2\n      0xffffffff\n      and\n      0xe0\n      shl\n      dup2\n      mstore\n      0x04\n      add\n      0xa0\n      mload(0x40)\n      dup1\n      dup4\n      sub\n      dup2\n      dup7\n      dup1\n      extcodesize\n      iszero\n      dup1\n      iszero\n      tag_30\n      jumpi\n      0x00\n      dup1\n      revert\n    tag_30:\n      pop\n      gas\n      staticcall\n      iszero\n      dup1\n      iszero\n      tag_32\n      jumpi\n      returndatasize\n      0x00\n      dup1\n      returndatacopy\n      revert(0x00, returndatasize)\n    tag_32:\n      pop\n      pop\n      pop\n      pop\n      mload(0x40)\n      returndatasize\n      not(0x1f)\n      0x1f\n      dup3\n      add\n      and\n      dup3\n      add\n      dup1\n      0x40\n      mstore\n      pop\n      dup2\n      add\n      swap1\n      tag_33\n      swap2\n      swap1\n      tag_34\n      jump\t// in\n    tag_33:\n        /* \"contracts/FundMe.sol\":1042:1095  ( ,int256 answer, , , ) = priceFeed.latestRoundData() */\n      pop\n      pop\n      pop\n      swap2\n      pop\n      pop\n        /* \"contracts/FundMe.sol\":1166:1170  1e10 */\n      0x02540be400\n        /* \"contracts/FundMe.sol\":1157:1163  answer */\n      dup2\n        /* \"contracts/FundMe.sol\":1157:1170  answer * 1e10 */\n      tag_35\n      swap2\n      swap1\n      tag_36\n      jump\t// in\n    tag_35:\n        /* \"contracts/FundMe.sol\":1142:1171  return uint256(answer * 1e10) */\n      swap3\n      pop\n      pop\n      pop\n        /* \"contracts/FundMe.sol\":772:1179  function getPrice() public view returns(uint256) {... */\n      swap1\n      jump\t// out\n        /* \"contracts/FundMe.sol\":465:764  function fund() public payable {... */\n    tag_16:\n        /* \"contracts/FundMe.sol\":507:525  uint256 minimumUSD */\n      0x00\n        /* \"contracts/FundMe.sol\":528:537  50 * 1e18 */\n      0x02b5e3af16b1880000\n        /* \"contracts/FundMe.sol\":507:537  uint256 minimumUSD = 50 * 1e18 */\n      swap1\n      pop\n        /* \"contracts/FundMe.sol\":595:605  minimumUSD */\n      dup1\n        /* \"contracts/FundMe.sol\":570:591  conversion(msg.value) */\n      tag_38\n        /* \"contracts/FundMe.sol\":581:590  msg.value */\n      callvalue\n        /* \"contracts/FundMe.sol\":570:580  conversion */\n      tag_21\n        /* \"contracts/FundMe.sol\":570:591  conversion(msg.value) */\n      jump\t// in\n    tag_38:\n        /* \"contracts/FundMe.sol\":570:605  conversion(msg.value) >= minimumUSD */\n      lt\n      iszero\n        /* \"contracts/FundMe.sol\":548:660  require(... */\n      tag_39\n      jumpi\n      mload(0x40)\n      0x08c379a000000000000000000000000000000000000000000000000000000000\n      dup2\n      mstore\n      0x04\n      add\n      tag_40\n      swap1\n      tag_41\n      jump\t// in\n    tag_40:\n      mload(0x40)\n      dup1\n      swap2\n      sub\n      swap1\n      revert\n    tag_39:\n        /* \"contracts/FundMe.sol\":496:764  {... */\n      pop\n        /* \"contracts/FundMe.sol\":465:764  function fund() public payable {... */\n      jump\t// out\n        /* \"contracts/FundMe.sol\":1187:1400  function conversion(uint256 ethAmount) public view returns(uint256) {... */\n    tag_21:\n        /* \"contracts/FundMe.sol\":1246:1253  uint256 */\n      0x00\n        /* \"contracts/FundMe.sol\":1266:1282  uint256 ethPrice */\n      dup1\n        /* \"contracts/FundMe.sol\":1285:1295  getPrice() */\n      tag_43\n        /* \"contracts/FundMe.sol\":1285:1293  getPrice */\n      tag_13\n        /* \"contracts/FundMe.sol\":1285:1295  getPrice() */\n      jump\t// in\n    tag_43:\n        /* \"contracts/FundMe.sol\":1266:1295  uint256 ethPrice = getPrice() */\n      swap1\n      pop\n        /* \"contracts/FundMe.sol\":1306:1328  uint256 ethAmountToUsd */\n      0x00\n        /* \"contracts/FundMe.sol\":1356:1360  1e18 */\n      0x0de0b6b3a7640000\n        /* \"contracts/FundMe.sol\":1343:1352  ethAmount */\n      dup5\n        /* \"contracts/FundMe.sol\":1332:1340  ethPrice */\n      dup4\n        /* \"contracts/FundMe.sol\":1332:1352  ethPrice * ethAmount */\n      tag_44\n      swap2\n      swap1\n      tag_45\n      jump\t// in\n    tag_44:\n        /* \"contracts/FundMe.sol\":1331:1360  (ethPrice * ethAmount) / 1e18 */\n      tag_46\n      swap2\n      swap1\n      tag_47\n      jump\t// in\n    tag_46:\n        /* \"contracts/FundMe.sol\":1306:1360  uint256 ethAmountToUsd = (ethPrice * ethAmount) / 1e18 */\n      swap1\n      pop\n        /* \"contracts/FundMe.sol\":1378:1392  ethAmountToUsd */\n      dup1\n        /* \"contracts/FundMe.sol\":1371:1392  return ethAmountToUsd */\n      swap3\n      pop\n      pop\n      pop\n        /* \"contracts/FundMe.sol\":1187:1400  function conversion(uint256 ethAmount) public view returns(uint256) {... */\n      swap2\n      swap1\n      pop\n      jump\t// out\n        /* \"#utility.yul\":7:84   */\n    tag_48:\n        /* \"#utility.yul\":44:51   */\n      0x00\n        /* \"#utility.yul\":73:78   */\n      dup2\n        /* \"#utility.yul\":62:78   */\n      swap1\n      pop\n        /* \"#utility.yul\":7:84   */\n      swap2\n      swap1\n      pop\n      jump\t// out\n        /* \"#utility.yul\":90:208   */\n    tag_49:\n        /* \"#utility.yul\":177:201   */\n      tag_70\n        /* \"#utility.yul\":195:200   */\n      dup2\n        /* \"#utility.yul\":177:201   */\n      tag_48\n      jump\t// in\n    tag_70:\n        /* \"#utility.yul\":172:175   */\n      dup3\n        /* \"#utility.yul\":165:202   */\n      mstore\n        /* \"#utility.yul\":90:208   */\n      pop\n      pop\n      jump\t// out\n        /* \"#utility.yul\":214:436   */\n    tag_10:\n        /* \"#utility.yul\":307:311   */\n      0x00\n        /* \"#utility.yul\":345:347   */\n      0x20\n        /* \"#utility.yul\":334:343   */\n      dup3\n        /* \"#utility.yul\":330:348   */\n      add\n        /* \"#utility.yul\":322:348   */\n      swap1\n      pop\n        /* \"#utility.yul\":358:429   */\n      tag_72\n        /* \"#utility.yul\":426:427   */\n      0x00\n        /* \"#utility.yul\":415:424   */\n      dup4\n        /* \"#utility.yul\":411:428   */\n      add\n        /* \"#utility.yul\":402:408   */\n      dup5\n        /* \"#utility.yul\":358:429   */\n      tag_49\n      jump\t// in\n    tag_72:\n        /* \"#utility.yul\":214:436   */\n      swap3\n      swap2\n      pop\n      pop\n      jump\t// out\n        /* \"#utility.yul\":523:640   */\n    tag_51:\n        /* \"#utility.yul\":632:633   */\n      0x00\n        /* \"#utility.yul\":629:630   */\n      dup1\n        /* \"#utility.yul\":622:634   */\n      revert\n        /* \"#utility.yul\":769:891   */\n    tag_53:\n        /* \"#utility.yul\":842:866   */\n      tag_77\n        /* \"#utility.yul\":860:865   */\n      dup2\n        /* \"#utility.yul\":842:866   */\n      tag_48\n      jump\t// in\n    tag_77:\n        /* \"#utility.yul\":835:840   */\n      dup2\n        /* \"#utility.yul\":832:867   */\n      eq\n        /* \"#utility.yul\":822:885   */\n      tag_78\n      jumpi\n        /* \"#utility.yul\":881:882   */\n      0x00\n        /* \"#utility.yul\":878:879   */\n      dup1\n        /* \"#utility.yul\":871:883   */\n      revert\n        /* \"#utility.yul\":822:885   */\n    tag_78:\n        /* \"#utility.yul\":769:891   */\n      pop\n      jump\t// out\n        /* \"#utility.yul\":897:1036   */\n    tag_54:\n        /* \"#utility.yul\":943:948   */\n      0x00\n        /* \"#utility.yul\":981:987   */\n      dup2\n        /* \"#utility.yul\":968:988   */\n      calldataload\n        /* \"#utility.yul\":959:988   */\n      swap1\n      pop\n        /* \"#utility.yul\":997:1030   */\n      tag_80\n        /* \"#utility.yul\":1024:1029   */\n      dup2\n        /* \"#utility.yul\":997:1030   */\n      tag_53\n      jump\t// in\n    tag_80:\n        /* \"#utility.yul\":897:1036   */\n      swap3\n      swap2\n      pop\n      pop\n      jump\t// out\n        /* \"#utility.yul\":1042:1371   */\n    tag_20:\n        /* \"#utility.yul\":1101:1107   */\n      0x00\n        /* \"#utility.yul\":1150:1152   */\n      0x20\n        /* \"#utility.yul\":1138:1147   */\n      dup3\n        /* \"#utility.yul\":1129:1136   */\n      dup5\n        /* \"#utility.yul\":1125:1148   */\n      sub\n        /* \"#utility.yul\":1121:1153   */\n      slt\n        /* \"#utility.yul\":1118:1237   */\n      iszero\n      tag_82\n      jumpi\n        /* \"#utility.yul\":1156:1235   */\n      tag_83\n      tag_51\n      jump\t// in\n    tag_83:\n        /* \"#utility.yul\":1118:1237   */\n    tag_82:\n        /* \"#utility.yul\":1276:1277   */\n      0x00\n        /* \"#utility.yul\":1301:1354   */\n      tag_84\n        /* \"#utility.yul\":1346:1353   */\n      dup5\n        /* \"#utility.yul\":1337:1343   */\n      dup3\n        /* \"#utility.yul\":1326:1335   */\n      dup6\n        /* \"#utility.yul\":1322:1344   */\n      add\n        /* \"#utility.yul\":1301:1354   */\n      tag_54\n      jump\t// in\n    tag_84:\n        /* \"#utility.yul\":1291:1354   */\n      swap2\n      pop\n        /* \"#utility.yul\":1247:1364   */\n      pop\n        /* \"#utility.yul\":1042:1371   */\n      swap3\n      swap2\n      pop\n      pop\n      jump\t// out\n        /* \"#utility.yul\":1377:1520   */\n    tag_55:\n        /* \"#utility.yul\":1434:1439   */\n      0x00\n        /* \"#utility.yul\":1465:1471   */\n      dup2\n        /* \"#utility.yul\":1459:1472   */\n      mload\n        /* \"#utility.yul\":1450:1472   */\n      swap1\n      pop\n        /* \"#utility.yul\":1481:1514   */\n      tag_86\n        /* \"#utility.yul\":1508:1513   */\n      dup2\n        /* \"#utility.yul\":1481:1514   */\n      tag_53\n      jump\t// in\n    tag_86:\n        /* \"#utility.yul\":1377:1520   */\n      swap3\n      swap2\n      pop\n      pop\n      jump\t// out\n        /* \"#utility.yul\":1526:1877   */\n    tag_28:\n        /* \"#utility.yul\":1596:1602   */\n      0x00\n        /* \"#utility.yul\":1645:1647   */\n      0x20\n        /* \"#utility.yul\":1633:1642   */\n      dup3\n        /* \"#utility.yul\":1624:1631   */\n      dup5\n        /* \"#utility.yul\":1620:1643   */\n      sub\n        /* \"#utility.yul\":1616:1648   */\n      slt\n        /* \"#utility.yul\":1613:1732   */\n      iszero\n      tag_88\n      jumpi\n        /* \"#utility.yul\":1651:1730   */\n      tag_89\n      tag_51\n      jump\t// in\n    tag_89:\n        /* \"#utility.yul\":1613:1732   */\n    tag_88:\n        /* \"#utility.yul\":1771:1772   */\n      0x00\n        /* \"#utility.yul\":1796:1860   */\n      tag_90\n        /* \"#utility.yul\":1852:1859   */\n      dup5\n        /* \"#utility.yul\":1843:1849   */\n      dup3\n        /* \"#utility.yul\":1832:1841   */\n      dup6\n        /* \"#utility.yul\":1828:1850   */\n      add\n        /* \"#utility.yul\":1796:1860   */\n      tag_55\n      jump\t// in\n    tag_90:\n        /* \"#utility.yul\":1786:1860   */\n      swap2\n      pop\n        /* \"#utility.yul\":1742:1870   */\n      pop\n        /* \"#utility.yul\":1526:1877   */\n      swap3\n      swap2\n      pop\n      pop\n      jump\t// out\n        /* \"#utility.yul\":1883:1988   */\n    tag_56:\n        /* \"#utility.yul\":1919:1926   */\n      0x00\n        /* \"#utility.yul\":1959:1981   */\n      0xffffffffffffffffffff\n        /* \"#utility.yul\":1952:1957   */\n      dup3\n        /* \"#utility.yul\":1948:1982   */\n      and\n        /* \"#utility.yul\":1937:1982   */\n      swap1\n      pop\n        /* \"#utility.yul\":1883:1988   */\n      swap2\n      swap1\n      pop\n      jump\t// out\n        /* \"#utility.yul\":1994:2114   */\n    tag_57:\n        /* \"#utility.yul\":2066:2089   */\n      tag_93\n        /* \"#utility.yul\":2083:2088   */\n      dup2\n        /* \"#utility.yul\":2066:2089   */\n      tag_56\n      jump\t// in\n    tag_93:\n        /* \"#utility.yul\":2059:2064   */\n      dup2\n        /* \"#utility.yul\":2056:2090   */\n      eq\n        /* \"#utility.yul\":2046:2108   */\n      tag_94\n      jumpi\n        /* \"#utility.yul\":2104:2105   */\n      0x00\n        /* \"#utility.yul\":2101:2102   */\n      dup1\n        /* \"#utility.yul\":2094:2106   */\n      revert\n        /* \"#utility.yul\":2046:2108   */\n    tag_94:\n        /* \"#utility.yul\":1994:2114   */\n      pop\n      jump\t// out\n        /* \"#utility.yul\":2120:2261   */\n    tag_58:\n        /* \"#utility.yul\":2176:2181   */\n      0x00\n        /* \"#utility.yul\":2207:2213   */\n      dup2\n        /* \"#utility.yul\":2201:2214   */\n      mload\n        /* \"#utility.yul\":2192:2214   */\n      swap1\n      pop\n        /* \"#utility.yul\":2223:2255   */\n      tag_96\n        /* \"#utility.yul\":2249:2254   */\n      dup2\n        /* \"#utility.yul\":2223:2255   */\n      tag_57\n      jump\t// in\n    tag_96:\n        /* \"#utility.yul\":2120:2261   */\n      swap3\n      swap2\n      pop\n      pop\n      jump\t// out\n        /* \"#utility.yul\":2267:2343   */\n    tag_59:\n        /* \"#utility.yul\":2303:2310   */\n      0x00\n        /* \"#utility.yul\":2332:2337   */\n      dup2\n        /* \"#utility.yul\":2321:2337   */\n      swap1\n      pop\n        /* \"#utility.yul\":2267:2343   */\n      swap2\n      swap1\n      pop\n      jump\t// out\n        /* \"#utility.yul\":2349:2469   */\n    tag_60:\n        /* \"#utility.yul\":2421:2444   */\n      tag_99\n        /* \"#utility.yul\":2438:2443   */\n      dup2\n        /* \"#utility.yul\":2421:2444   */\n      tag_59\n      jump\t// in\n    tag_99:\n        /* \"#utility.yul\":2414:2419   */\n      dup2\n        /* \"#utility.yul\":2411:2445   */\n      eq\n        /* \"#utility.yul\":2401:2463   */\n      tag_100\n      jumpi\n        /* \"#utility.yul\":2459:2460   */\n      0x00\n        /* \"#utility.yul\":2456:2457   */\n      dup1\n        /* \"#utility.yul\":2449:2461   */\n      revert\n        /* \"#utility.yul\":2401:2463   */\n    tag_100:\n        /* \"#utility.yul\":2349:2469   */\n      pop\n      jump\t// out\n        /* \"#utility.yul\":2475:2616   */\n    tag_61:\n        /* \"#utility.yul\":2531:2536   */\n      0x00\n        /* \"#utility.yul\":2562:2568   */\n      dup2\n        /* \"#utility.yul\":2556:2569   */\n      mload\n        /* \"#utility.yul\":2547:2569   */\n      swap1\n      pop\n        /* \"#utility.yul\":2578:2610   */\n      tag_102\n        /* \"#utility.yul\":2604:2609   */\n      dup2\n        /* \"#utility.yul\":2578:2610   */\n      tag_60\n      jump\t// in\n    tag_102:\n        /* \"#utility.yul\":2475:2616   */\n      swap3\n      swap2\n      pop\n      pop\n      jump\t// out\n        /* \"#utility.yul\":2622:3593   */\n    tag_34:\n        /* \"#utility.yul\":2725:2731   */\n      0x00\n        /* \"#utility.yul\":2733:2739   */\n      dup1\n        /* \"#utility.yul\":2741:2747   */\n      0x00\n        /* \"#utility.yul\":2749:2755   */\n      dup1\n        /* \"#utility.yul\":2757:2763   */\n      0x00\n        /* \"#utility.yul\":2806:2809   */\n      0xa0\n        /* \"#utility.yul\":2794:2803   */\n      dup7\n        /* \"#utility.yul\":2785:2792   */\n      dup9\n        /* \"#utility.yul\":2781:2804   */\n      sub\n        /* \"#utility.yul\":2777:2810   */\n      slt\n        /* \"#utility.yul\":2774:2894   */\n      iszero\n      tag_104\n      jumpi\n        /* \"#utility.yul\":2813:2892   */\n      tag_105\n      tag_51\n      jump\t// in\n    tag_105:\n        /* \"#utility.yul\":2774:2894   */\n    tag_104:\n        /* \"#utility.yul\":2933:2934   */\n      0x00\n        /* \"#utility.yul\":2958:3021   */\n      tag_106\n        /* \"#utility.yul\":3013:3020   */\n      dup9\n        /* \"#utility.yul\":3004:3010   */\n      dup3\n        /* \"#utility.yul\":2993:3002   */\n      dup10\n        /* \"#utility.yul\":2989:3011   */\n      add\n        /* \"#utility.yul\":2958:3021   */\n      tag_58\n      jump\t// in\n    tag_106:\n        /* \"#utility.yul\":2948:3021   */\n      swap6\n      pop\n        /* \"#utility.yul\":2904:3031   */\n      pop\n        /* \"#utility.yul\":3070:3072   */\n      0x20\n        /* \"#utility.yul\":3096:3159   */\n      tag_107\n        /* \"#utility.yul\":3151:3158   */\n      dup9\n        /* \"#utility.yul\":3142:3148   */\n      dup3\n        /* \"#utility.yul\":3131:3140   */\n      dup10\n        /* \"#utility.yul\":3127:3149   */\n      add\n        /* \"#utility.yul\":3096:3159   */\n      tag_61\n      jump\t// in\n    tag_107:\n        /* \"#utility.yul\":3086:3159   */\n      swap5\n      pop\n        /* \"#utility.yul\":3041:3169   */\n      pop\n        /* \"#utility.yul\":3208:3210   */\n      0x40\n        /* \"#utility.yul\":3234:3298   */\n      tag_108\n        /* \"#utility.yul\":3290:3297   */\n      dup9\n        /* \"#utility.yul\":3281:3287   */\n      dup3\n        /* \"#utility.yul\":3270:3279   */\n      dup10\n        /* \"#utility.yul\":3266:3288   */\n      add\n        /* \"#utility.yul\":3234:3298   */\n      tag_55\n      jump\t// in\n    tag_108:\n        /* \"#utility.yul\":3224:3298   */\n      swap4\n      pop\n        /* \"#utility.yul\":3179:3308   */\n      pop\n        /* \"#utility.yul\":3347:3349   */\n      0x60\n        /* \"#utility.yul\":3373:3437   */\n      tag_109\n        /* \"#utility.yul\":3429:3436   */\n      dup9\n        /* \"#utility.yul\":3420:3426   */\n      dup3\n        /* \"#utility.yul\":3409:3418   */\n      dup10\n        /* \"#utility.yul\":3405:3427   */\n      add\n        /* \"#utility.yul\":3373:3437   */\n      tag_55\n      jump\t// in\n    tag_109:\n        /* \"#utility.yul\":3363:3437   */\n      swap3\n      pop\n        /* \"#utility.yul\":3318:3447   */\n      pop\n        /* \"#utility.yul\":3486:3489   */\n      0x80\n        /* \"#utility.yul\":3513:3576   */\n      tag_110\n        /* \"#utility.yul\":3568:3575   */\n      dup9\n        /* \"#utility.yul\":3559:3565   */\n      dup3\n        /* \"#utility.yul\":3548:3557   */\n      dup10\n        /* \"#utility.yul\":3544:3566   */\n      add\n        /* \"#utility.yul\":3513:3576   */\n      tag_58\n      jump\t// in\n    tag_110:\n        /* \"#utility.yul\":3503:3576   */\n      swap2\n      pop\n        /* \"#utility.yul\":3457:3586   */\n      pop\n        /* \"#utility.yul\":2622:3593   */\n      swap3\n      swap6\n      pop\n      swap3\n      swap6\n      swap1\n      swap4\n      pop\n      jump\t// out\n        /* \"#utility.yul\":3599:3779   */\n    tag_62:\n        /* \"#utility.yul\":3647:3724   */\n      0x4e487b7100000000000000000000000000000000000000000000000000000000\n        /* \"#utility.yul\":3644:3645   */\n      0x00\n        /* \"#utility.yul\":3637:3725   */\n      mstore\n        /* \"#utility.yul\":3744:3748   */\n      0x11\n        /* \"#utility.yul\":3741:3742   */\n      0x04\n        /* \"#utility.yul\":3734:3749   */\n      mstore\n        /* \"#utility.yul\":3768:3772   */\n      0x24\n        /* \"#utility.yul\":3765:3766   */\n      0x00\n        /* \"#utility.yul\":3758:3773   */\n      revert\n        /* \"#utility.yul\":3785:4776   */\n    tag_36:\n        /* \"#utility.yul\":3824:3831   */\n      0x00\n        /* \"#utility.yul\":3847:3866   */\n      tag_113\n        /* \"#utility.yul\":3864:3865   */\n      dup3\n        /* \"#utility.yul\":3847:3866   */\n      tag_59\n      jump\t// in\n    tag_113:\n        /* \"#utility.yul\":3842:3866   */\n      swap2\n      pop\n        /* \"#utility.yul\":3880:3899   */\n      tag_114\n        /* \"#utility.yul\":3897:3898   */\n      dup4\n        /* \"#utility.yul\":3880:3899   */\n      tag_59\n      jump\t// in\n    tag_114:\n        /* \"#utility.yul\":3875:3899   */\n      swap3\n      pop\n        /* \"#utility.yul\":4081:4082   */\n      dup3\n        /* \"#utility.yul\":4013:4079   */\n      0x7fffffffffffffffffffffffffffffffffffffffffffffffffffffffffffffff\n        /* \"#utility.yul\":4009:4083   */\n      div\n        /* \"#utility.yul\":4006:4007   */\n      dup3\n        /* \"#utility.yul\":4003:4084   */\n      gt\n        /* \"#utility.yul\":3998:3999   */\n      0x00\n        /* \"#utility.yul\":3995:3996   */\n      dup5\n        /* \"#utility.yul\":3991:4000   */\n      sgt\n        /* \"#utility.yul\":3987:3988   */\n      0x00\n        /* \"#utility.yul\":3984:3985   */\n      dup5\n        /* \"#utility.yul\":3980:3989   */\n      sgt\n        /* \"#utility.yul\":3976:4001   */\n      and\n        /* \"#utility.yul\":3972:4085   */\n      and\n        /* \"#utility.yul\":3969:4108   */\n      iszero\n      tag_115\n      jumpi\n        /* \"#utility.yul\":4088:4106   */\n      tag_116\n      tag_62\n      jump\t// in\n    tag_116:\n        /* \"#utility.yul\":3969:4108   */\n    tag_115:\n        /* \"#utility.yul\":4292:4293   */\n      dup2\n        /* \"#utility.yul\":4224:4290   */\n      0x8000000000000000000000000000000000000000000000000000000000000000\n        /* \"#utility.yul\":4219:4294   */\n      sdiv\n        /* \"#utility.yul\":4216:4217   */\n      dup4\n        /* \"#utility.yul\":4212:4295   */\n      slt\n        /* \"#utility.yul\":4207:4208   */\n      0x00\n        /* \"#utility.yul\":4204:4205   */\n      dup5\n        /* \"#utility.yul\":4200:4209   */\n      slt\n        /* \"#utility.yul\":4196:4197   */\n      0x00\n        /* \"#utility.yul\":4193:4194   */\n      dup5\n        /* \"#utility.yul\":4189:4198   */\n      sgt\n        /* \"#utility.yul\":4185:4210   */\n      and\n        /* \"#utility.yul\":4181:4296   */\n      and\n        /* \"#utility.yul\":4178:4319   */\n      iszero\n      tag_117\n      jumpi\n        /* \"#utility.yul\":4299:4317   */\n      tag_118\n      tag_62\n      jump\t// in\n    tag_118:\n        /* \"#utility.yul\":4178:4319   */\n    tag_117:\n        /* \"#utility.yul\":4503:4504   */\n      dup3\n        /* \"#utility.yul\":4435:4501   */\n      0x8000000000000000000000000000000000000000000000000000000000000000\n        /* \"#utility.yul\":4430:4505   */\n      sdiv\n        /* \"#utility.yul\":4427:4428   */\n      dup3\n        /* \"#utility.yul\":4423:4506   */\n      slt\n        /* \"#utility.yul\":4418:4419   */\n      0x00\n        /* \"#utility.yul\":4415:4416   */\n      dup5\n        /* \"#utility.yul\":4411:4420   */\n      sgt\n        /* \"#utility.yul\":4407:4408   */\n      0x00\n        /* \"#utility.yul\":4404:4405   */\n      dup5\n        /* \"#utility.yul\":4400:4409   */\n      slt\n        /* \"#utility.yul\":4396:4421   */\n      and\n        /* \"#utility.yul\":4392:4507   */\n      and\n        /* \"#utility.yul\":4389:4530   */\n      iszero\n      tag_119\n      jumpi\n        /* \"#utility.yul\":4510:4528   */\n      tag_120\n      tag_62\n      jump\t// in\n    tag_120:\n        /* \"#utility.yul\":4389:4530   */\n    tag_119:\n        /* \"#utility.yul\":4713:4714   */\n      dup3\n        /* \"#utility.yul\":4645:4711   */\n      0x7fffffffffffffffffffffffffffffffffffffffffffffffffffffffffffffff\n        /* \"#utility.yul\":4640:4715   */\n      sdiv\n        /* \"#utility.yul\":4637:4638   */\n      dup3\n        /* \"#utility.yul\":4633:4716   */\n      slt\n        /* \"#utility.yul\":4628:4629   */\n      0x00\n        /* \"#utility.yul\":4625:4626   */\n      dup5\n        /* \"#utility.yul\":4621:4630   */\n      slt\n        /* \"#utility.yul\":4617:4618   */\n      0x00\n        /* \"#utility.yul\":4614:4615   */\n      dup5\n        /* \"#utility.yul\":4610:4619   */\n      slt\n        /* \"#utility.yul\":4606:4631   */\n      and\n        /* \"#utility.yul\":4602:4717   */\n      and\n        /* \"#utility.yul\":4599:4740   */\n      iszero\n      tag_121\n      jumpi\n        /* \"#utility.yul\":4720:4738   */\n      tag_122\n      tag_62\n      jump\t// in\n    tag_122:\n        /* \"#utility.yul\":4599:4740   */\n    tag_121:\n        /* \"#utility.yul\":4768:4769   */\n      dup3\n        /* \"#utility.yul\":4765:4766   */\n      dup3\n        /* \"#utility.yul\":4761:4770   */\n      mul\n        /* \"#utility.yul\":4750:4770   */\n      swap1\n      pop\n        /* \"#utility.yul\":3785:4776   */\n      swap3\n      swap2\n      pop\n      pop\n      jump\t// out\n        /* \"#utility.yul\":4782:4951   */\n    tag_63:\n        /* \"#utility.yul\":4866:4877   */\n      0x00\n        /* \"#utility.yul\":4900:4906   */\n      dup3\n        /* \"#utility.yul\":4895:4898   */\n      dup3\n        /* \"#utility.yul\":4888:4907   */\n      mstore\n        /* \"#utility.yul\":4940:4944   */\n      0x20\n        /* \"#utility.yul\":4935:4938   */\n      dup3\n        /* \"#utility.yul\":4931:4945   */\n      add\n        /* \"#utility.yul\":4916:4945   */\n      swap1\n      pop\n        /* \"#utility.yul\":4782:4951   */\n      swap3\n      swap2\n      pop\n      pop\n      jump\t// out\n        /* \"#utility.yul\":4957:5134   */\n    tag_64:\n        /* \"#utility.yul\":5097:5126   */\n      0x596f75206e65656420746f207370656e64206d6f726520455448210000000000\n        /* \"#utility.yul\":5093:5094   */\n      0x00\n        /* \"#utility.yul\":5085:5091   */\n      dup3\n        /* \"#utility.yul\":5081:5095   */\n      add\n        /* \"#utility.yul\":5074:5127   */\n      mstore\n        /* \"#utility.yul\":4957:5134   */\n      pop\n      jump\t// out\n        /* \"#utility.yul\":5140:5506   */\n    tag_65:\n        /* \"#utility.yul\":5282:5285   */\n      0x00\n        /* \"#utility.yul\":5303:5370   */\n      tag_126\n        /* \"#utility.yul\":5367:5369   */\n      0x1b\n        /* \"#utility.yul\":5362:5365   */\n      dup4\n        /* \"#utility.yul\":5303:5370   */\n      tag_63\n      jump\t// in\n    tag_126:\n        /* \"#utility.yul\":5296:5370   */\n      swap2\n      pop\n        /* \"#utility.yul\":5379:5472   */\n      tag_127\n        /* \"#utility.yul\":5468:5471   */\n      dup3\n        /* \"#utility.yul\":5379:5472   */\n      tag_64\n      jump\t// in\n    tag_127:\n        /* \"#utility.yul\":5497:5499   */\n      0x20\n        /* \"#utility.yul\":5492:5495   */\n      dup3\n        /* \"#utility.yul\":5488:5500   */\n      add\n        /* \"#utility.yul\":5481:5500   */\n      swap1\n      pop\n        /* \"#utility.yul\":5140:5506   */\n      swap2\n      swap1\n      pop\n      jump\t// out\n        /* \"#utility.yul\":5512:5931   */\n    tag_41:\n        /* \"#utility.yul\":5678:5682   */\n      0x00\n        /* \"#utility.yul\":5716:5718   */\n      0x20\n        /* \"#utility.yul\":5705:5714   */\n      dup3\n        /* \"#utility.yul\":5701:5719   */\n      add\n        /* \"#utility.yul\":5693:5719   */\n      swap1\n      pop\n        /* \"#utility.yul\":5765:5774   */\n      dup2\n        /* \"#utility.yul\":5759:5763   */\n      dup2\n        /* \"#utility.yul\":5755:5775   */\n      sub\n        /* \"#utility.yul\":5751:5752   */\n      0x00\n        /* \"#utility.yul\":5740:5749   */\n      dup4\n        /* \"#utility.yul\":5736:5753   */\n      add\n        /* \"#utility.yul\":5729:5776   */\n      mstore\n        /* \"#utility.yul\":5793:5924   */\n      tag_129\n        /* \"#utility.yul\":5919:5923   */\n      dup2\n        /* \"#utility.yul\":5793:5924   */\n      tag_65\n      jump\t// in\n    tag_129:\n        /* \"#utility.yul\":5785:5924   */\n      swap1\n      pop\n        /* \"#utility.yul\":5512:5931   */\n      swap2\n      swap1\n      pop\n      jump\t// out\n        /* \"#utility.yul\":5937:6285   */\n    tag_45:\n        /* \"#utility.yul\":5977:5984   */\n      0x00\n        /* \"#utility.yul\":6000:6020   */\n      tag_131\n        /* \"#utility.yul\":6018:6019   */\n      dup3\n        /* \"#utility.yul\":6000:6020   */\n      tag_48\n      jump\t// in\n    tag_131:\n        /* \"#utility.yul\":5995:6020   */\n      swap2\n      pop\n        /* \"#utility.yul\":6034:6054   */\n      tag_132\n        /* \"#utility.yul\":6052:6053   */\n      dup4\n        /* \"#utility.yul\":6034:6054   */\n      tag_48\n      jump\t// in\n    tag_132:\n        /* \"#utility.yul\":6029:6054   */\n      swap3\n      pop\n        /* \"#utility.yul\":6222:6223   */\n      dup2\n        /* \"#utility.yul\":6154:6220   */\n      0xffffffffffffffffffffffffffffffffffffffffffffffffffffffffffffffff\n        /* \"#utility.yul\":6150:6224   */\n      div\n        /* \"#utility.yul\":6147:6148   */\n      dup4\n        /* \"#utility.yul\":6144:6225   */\n      gt\n        /* \"#utility.yul\":6139:6140   */\n      dup3\n        /* \"#utility.yul\":6132:6141   */\n      iszero\n        /* \"#utility.yul\":6125:6142   */\n      iszero\n        /* \"#utility.yul\":6121:6226   */\n      and\n        /* \"#utility.yul\":6118:6249   */\n      iszero\n      tag_133\n      jumpi\n        /* \"#utility.yul\":6229:6247   */\n      tag_134\n      tag_62\n      jump\t// in\n    tag_134:\n        /* \"#utility.yul\":6118:6249   */\n    tag_133:\n        /* \"#utility.yul\":6277:6278   */\n      dup3\n        /* \"#utility.yul\":6274:6275   */\n      dup3\n        /* \"#utility.yul\":6270:6279   */\n      mul\n        /* \"#utility.yul\":6259:6279   */\n      swap1\n      pop\n        /* \"#utility.yul\":5937:6285   */\n      swap3\n      swap2\n      pop\n      pop\n      jump\t// out\n        /* \"#utility.yul\":6291:6471   */\n    tag_66:\n        /* \"#utility.yul\":6339:6416   */\n      0x4e487b7100000000000000000000000000000000000000000000000000000000\n        /* \"#utility.yul\":6336:6337   */\n      0x00\n        /* \"#utility.yul\":6329:6417   */\n      mstore\n        /* \"#utility.yul\":6436:6440   */\n      0x12\n        /* \"#utility.yul\":6433:6434   */\n      0x04\n        /* \"#utility.yul\":6426:6441   */\n      mstore\n        /* \"#utility.yul\":6460:6464   */\n      0x24\n        /* \"#utility.yul\":6457:6458   */\n      0x00\n        /* \"#utility.yul\":6450:6465   */\n      revert\n        /* \"#utility.yul\":6477:6662   */\n    tag_47:\n        /* \"#utility.yul\":6517:6518   */\n      0x00\n        /* \"#utility.yul\":6534:6554   */\n      tag_137\n        /* \"#utility.yul\":6552:6553   */\n      dup3\n        /* \"#utility.yul\":6534:6554   */\n      tag_48\n      jump\t// in\n    tag_137:\n        /* \"#utility.yul\":6529:6554   */\n      swap2\n      pop\n        /* \"#utility.yul\":6568:6588   */\n      tag_138\n        /* \"#utility.yul\":6586:6587   */\n      dup4\n        /* \"#utility.yul\":6568:6588   */\n      tag_48\n      jump\t// in\n    tag_138:\n        /* \"#utility.yul\":6563:6588   */\n      swap3\n      pop\n        /* \"#utility.yul\":6607:6608   */\n      dup3\n        /* \"#utility.yul\":6597:6632   */\n      tag_139\n      jumpi\n        /* \"#utility.yul\":6612:6630   */\n      tag_140\n      tag_66\n      jump\t// in\n    tag_140:\n        /* \"#utility.yul\":6597:6632   */\n    tag_139:\n        /* \"#utility.yul\":6654:6655   */\n      dup3\n        /* \"#utility.yul\":6651:6652   */\n      dup3\n        /* \"#utility.yul\":6647:6656   */\n      div\n        /* \"#utility.yul\":6642:6656   */\n      swap1\n      pop\n        /* \"#utility.yul\":6477:6662   */\n      swap3\n      swap2\n      pop\n      pop\n      jump\t// out\n\n    auxdata: 0xa26469706673582212209b3478015338881077c5331caf8b2d2617dfc291ff9c3d1e720f0a36226fae6364736f6c63430008080033\n}\n",
				"bytecode": {
					"linkReferences": {},
					"object": "608060405234801561001057600080fd5b50610747806100206000396000f3fe60806040526004361061003f5760003560e01c80630d8e6e2c1461004457806398d5fdca1461006f578063b60d42881461009a578063ba4d0c99146100a4575b600080fd5b34801561005057600080fd5b506100596100e1565b60405161006691906102e6565b60405180910390f35b34801561007b57600080fd5b5061008461017f565b60405161009191906102e6565b60405180910390f35b6100a2610237565b005b3480156100b057600080fd5b506100cb60048036038101906100c69190610332565b610293565b6040516100d891906102e6565b60405180910390f35b60008073d4a33860578de61dbabdc8bfdb98fd742fa7028e90508073ffffffffffffffffffffffffffffffffffffffff166354fd4d506040518163ffffffff1660e01b815260040160206040518083038186803b15801561014157600080fd5b505afa158015610155573d6000803e3d6000fd5b505050506040513d601f19601f820116820180604052508101906101799190610374565b91505090565b60008073d4a33860578de61dbabdc8bfdb98fd742fa7028e905060008173ffffffffffffffffffffffffffffffffffffffff1663feaf968c6040518163ffffffff1660e01b815260040160a06040518083038186803b1580156101e157600080fd5b505afa1580156101f5573d6000803e3d6000fd5b505050506040513d601f19601f820116820180604052508101906102199190610419565b5050509150506402540be4008161023091906104c3565b9250505090565b60006802b5e3af16b188000090508061024f34610293565b1015610290576040517f08c379a000000000000000000000000000000000000000000000000000000000815260040161028790610637565b60405180910390fd5b50565b60008061029e61017f565b90506000670de0b6b3a764000084836102b79190610657565b6102c191906106e0565b90508092505050919050565b6000819050919050565b6102e0816102cd565b82525050565b60006020820190506102fb60008301846102d7565b92915050565b600080fd5b61030f816102cd565b811461031a57600080fd5b50565b60008135905061032c81610306565b92915050565b60006020828403121561034857610347610301565b5b60006103568482850161031d565b91505092915050565b60008151905061036e81610306565b92915050565b60006020828403121561038a57610389610301565b5b60006103988482850161035f565b91505092915050565b600069ffffffffffffffffffff82169050919050565b6103c0816103a1565b81146103cb57600080fd5b50565b6000815190506103dd816103b7565b92915050565b6000819050919050565b6103f6816103e3565b811461040157600080fd5b50565b600081519050610413816103ed565b92915050565b600080600080600060a0868803121561043557610434610301565b5b6000610443888289016103ce565b955050602061045488828901610404565b94505060406104658882890161035f565b93505060606104768882890161035f565b9250506080610487888289016103ce565b9150509295509295909350565b7f4e487b7100000000000000000000000000000000000000000000000000000000600052601160045260246000fd5b60006104ce826103e3565b91506104d9836103e3565b9250827f7fffffffffffffffffffffffffffffffffffffffffffffffffffffffffffffff048211600084136000841316161561051857610517610494565b5b817f8000000000000000000000000000000000000000000000000000000000000000058312600084126000841316161561055557610554610494565b5b827f8000000000000000000000000000000000000000000000000000000000000000058212600084136000841216161561059257610591610494565b5b827f7fffffffffffffffffffffffffffffffffffffffffffffffffffffffffffffff05821260008412600084121616156105cf576105ce610494565b5b828202905092915050565b600082825260208201905092915050565b7f596f75206e65656420746f207370656e64206d6f726520455448210000000000600082015250565b6000610621601b836105da565b915061062c826105eb565b602082019050919050565b6000602082019050818103600083015261065081610614565b9050919050565b6000610662826102cd565b915061066d836102cd565b9250817fffffffffffffffffffffffffffffffffffffffffffffffffffffffffffffffff04831182151516156106a6576106a5610494565b5b828202905092915050565b7f4e487b7100000000000000000000000000000000000000000000000000000000600052601260045260246000fd5b60006106eb826102cd565b91506106f6836102cd565b925082610706576107056106b1565b5b82820490509291505056fea26469706673582212209b3478015338881077c5331caf8b2d2617dfc291ff9c3d1e720f0a36226fae6364736f6c63430008080033",
					"opcodes": "PUSH1 0x80 PUSH1 0x40 MSTORE CALLVALUE DUP1 ISZERO PUSH2 0x10 JUMPI PUSH1 0x0 DUP1 REVERT JUMPDEST POP PUSH2 0x747 DUP1 PUSH2 0x20 PUSH1 0x0 CODECOPY PUSH1 0x0 RETURN INVALID PUSH1 0x80 PUSH1 0x40 MSTORE PUSH1 0x4 CALLDATASIZE LT PUSH2 0x3F JUMPI PUSH1 0x0 CALLDATALOAD PUSH1 0xE0 SHR DUP1 PUSH4 0xD8E6E2C EQ PUSH2 0x44 JUMPI DUP1 PUSH4 0x98D5FDCA EQ PUSH2 0x6F JUMPI DUP1 PUSH4 0xB60D4288 EQ PUSH2 0x9A JUMPI DUP1 PUSH4 0xBA4D0C99 EQ PUSH2 0xA4 JUMPI JUMPDEST PUSH1 0x0 DUP1 REVERT JUMPDEST CALLVALUE DUP1 ISZERO PUSH2 0x50 JUMPI PUSH1 0x0 DUP1 REVERT JUMPDEST POP PUSH2 0x59 PUSH2 0xE1 JUMP JUMPDEST PUSH1 0x40 MLOAD PUSH2 0x66 SWAP2 SWAP1 PUSH2 0x2E6 JUMP JUMPDEST PUSH1 0x40 MLOAD DUP1 SWAP2 SUB SWAP1 RETURN JUMPDEST CALLVALUE DUP1 ISZERO PUSH2 0x7B JUMPI PUSH1 0x0 DUP1 REVERT JUMPDEST POP PUSH2 0x84 PUSH2 0x17F JUMP JUMPDEST PUSH1 0x40 MLOAD PUSH2 0x91 SWAP2 SWAP1 PUSH2 0x2E6 JUMP JUMPDEST PUSH1 0x40 MLOAD DUP1 SWAP2 SUB SWAP1 RETURN JUMPDEST PUSH2 0xA2 PUSH2 0x237 JUMP JUMPDEST STOP JUMPDEST CALLVALUE DUP1 ISZERO PUSH2 0xB0 JUMPI PUSH1 0x0 DUP1 REVERT JUMPDEST POP PUSH2 0xCB PUSH1 0x4 DUP1 CALLDATASIZE SUB DUP2 ADD SWAP1 PUSH2 0xC6 SWAP2 SWAP1 PUSH2 0x332 JUMP JUMPDEST PUSH2 0x293 JUMP JUMPDEST PUSH1 0x40 MLOAD PUSH2 0xD8 SWAP2 SWAP1 PUSH2 0x2E6 JUMP JUMPDEST PUSH1 0x40 MLOAD DUP1 SWAP2 SUB SWAP1 RETURN JUMPDEST PUSH1 0x0 DUP1 PUSH20 0xD4A33860578DE61DBABDC8BFDB98FD742FA7028E SWAP1 POP DUP1 PUSH20 0xFFFFFFFFFFFFFFFFFFFFFFFFFFFFFFFFFFFFFFFF AND PUSH4 0x54FD4D50 PUSH1 0x40 MLOAD DUP2 PUSH4 0xFFFFFFFF AND PUSH1 0xE0 SHL DUP2 MSTORE PUSH1 0x4 ADD PUSH1 0x20 PUSH1 0x40 MLOAD DUP1 DUP4 SUB DUP2 DUP7 DUP1 EXTCODESIZE ISZERO DUP1 ISZERO PUSH2 0x141 JUMPI PUSH1 0x0 DUP1 REVERT JUMPDEST POP GAS STATICCALL ISZERO DUP1 ISZERO PUSH2 0x155 JUMPI RETURNDATASIZE PUSH1 0x0 DUP1 RETURNDATACOPY RETURNDATASIZE PUSH1 0x0 REVERT JUMPDEST POP POP POP POP PUSH1 0x40 MLOAD RETURNDATASIZE PUSH1 0x1F NOT PUSH1 0x1F DUP3 ADD AND DUP3 ADD DUP1 PUSH1 0x40 MSTORE POP DUP2 ADD SWAP1 PUSH2 0x179 SWAP2 SWAP1 PUSH2 0x374 JUMP JUMPDEST SWAP2 POP POP SWAP1 JUMP JUMPDEST PUSH1 0x0 DUP1 PUSH20 0xD4A33860578DE61DBABDC8BFDB98FD742FA7028E SWAP1 POP PUSH1 0x0 DUP2 PUSH20 0xFFFFFFFFFFFFFFFFFFFFFFFFFFFFFFFFFFFFFFFF AND PUSH4 0xFEAF968C PUSH1 0x40 MLOAD DUP2 PUSH4 0xFFFFFFFF AND PUSH1 0xE0 SHL DUP2 MSTORE PUSH1 0x4 ADD PUSH1 0xA0 PUSH1 0x40 MLOAD DUP1 DUP4 SUB DUP2 DUP7 DUP1 EXTCODESIZE ISZERO DUP1 ISZERO PUSH2 0x1E1 JUMPI PUSH1 0x0 DUP1 REVERT JUMPDEST POP GAS STATICCALL ISZERO DUP1 ISZERO PUSH2 0x1F5 JUMPI RETURNDATASIZE PUSH1 0x0 DUP1 RETURNDATACOPY RETURNDATASIZE PUSH1 0x0 REVERT JUMPDEST POP POP POP POP PUSH1 0x40 MLOAD RETURNDATASIZE PUSH1 0x1F NOT PUSH1 0x1F DUP3 ADD AND DUP3 ADD DUP1 PUSH1 0x40 MSTORE POP DUP2 ADD SWAP1 PUSH2 0x219 SWAP2 SWAP1 PUSH2 0x419 JUMP JUMPDEST POP POP POP SWAP2 POP POP PUSH5 0x2540BE400 DUP2 PUSH2 0x230 SWAP2 SWAP1 PUSH2 0x4C3 JUMP JUMPDEST SWAP3 POP POP POP SWAP1 JUMP JUMPDEST PUSH1 0x0 PUSH9 0x2B5E3AF16B1880000 SWAP1 POP DUP1 PUSH2 0x24F CALLVALUE PUSH2 0x293 JUMP JUMPDEST LT ISZERO PUSH2 0x290 JUMPI PUSH1 0x40 MLOAD PUSH32 0x8C379A000000000000000000000000000000000000000000000000000000000 DUP2 MSTORE PUSH1 0x4 ADD PUSH2 0x287 SWAP1 PUSH2 0x637 JUMP JUMPDEST PUSH1 0x40 MLOAD DUP1 SWAP2 SUB SWAP1 REVERT JUMPDEST POP JUMP JUMPDEST PUSH1 0x0 DUP1 PUSH2 0x29E PUSH2 0x17F JUMP JUMPDEST SWAP1 POP PUSH1 0x0 PUSH8 0xDE0B6B3A7640000 DUP5 DUP4 PUSH2 0x2B7 SWAP2 SWAP1 PUSH2 0x657 JUMP JUMPDEST PUSH2 0x2C1 SWAP2 SWAP1 PUSH2 0x6E0 JUMP JUMPDEST SWAP1 POP DUP1 SWAP3 POP POP POP SWAP2 SWAP1 POP JUMP JUMPDEST PUSH1 0x0 DUP2 SWAP1 POP SWAP2 SWAP1 POP JUMP JUMPDEST PUSH2 0x2E0 DUP2 PUSH2 0x2CD JUMP JUMPDEST DUP3 MSTORE POP POP JUMP JUMPDEST PUSH1 0x0 PUSH1 0x20 DUP3 ADD SWAP1 POP PUSH2 0x2FB PUSH1 0x0 DUP4 ADD DUP5 PUSH2 0x2D7 JUMP JUMPDEST SWAP3 SWAP2 POP POP JUMP JUMPDEST PUSH1 0x0 DUP1 REVERT JUMPDEST PUSH2 0x30F DUP2 PUSH2 0x2CD JUMP JUMPDEST DUP2 EQ PUSH2 0x31A JUMPI PUSH1 0x0 DUP1 REVERT JUMPDEST POP JUMP JUMPDEST PUSH1 0x0 DUP2 CALLDATALOAD SWAP1 POP PUSH2 0x32C DUP2 PUSH2 0x306 JUMP JUMPDEST SWAP3 SWAP2 POP POP JUMP JUMPDEST PUSH1 0x0 PUSH1 0x20 DUP3 DUP5 SUB SLT ISZERO PUSH2 0x348 JUMPI PUSH2 0x347 PUSH2 0x301 JUMP JUMPDEST JUMPDEST PUSH1 0x0 PUSH2 0x356 DUP5 DUP3 DUP6 ADD PUSH2 0x31D JUMP JUMPDEST SWAP2 POP POP SWAP3 SWAP2 POP POP JUMP JUMPDEST PUSH1 0x0 DUP2 MLOAD SWAP1 POP PUSH2 0x36E DUP2 PUSH2 0x306 JUMP JUMPDEST SWAP3 SWAP2 POP POP JUMP JUMPDEST PUSH1 0x0 PUSH1 0x20 DUP3 DUP5 SUB SLT ISZERO PUSH2 0x38A JUMPI PUSH2 0x389 PUSH2 0x301 JUMP JUMPDEST JUMPDEST PUSH1 0x0 PUSH2 0x398 DUP5 DUP3 DUP6 ADD PUSH2 0x35F JUMP JUMPDEST SWAP2 POP POP SWAP3 SWAP2 POP POP JUMP JUMPDEST PUSH1 0x0 PUSH10 0xFFFFFFFFFFFFFFFFFFFF DUP3 AND SWAP1 POP SWAP2 SWAP1 POP JUMP JUMPDEST PUSH2 0x3C0 DUP2 PUSH2 0x3A1 JUMP JUMPDEST DUP2 EQ PUSH2 0x3CB JUMPI PUSH1 0x0 DUP1 REVERT JUMPDEST POP JUMP JUMPDEST PUSH1 0x0 DUP2 MLOAD SWAP1 POP PUSH2 0x3DD DUP2 PUSH2 0x3B7 JUMP JUMPDEST SWAP3 SWAP2 POP POP JUMP JUMPDEST PUSH1 0x0 DUP2 SWAP1 POP SWAP2 SWAP1 POP JUMP JUMPDEST PUSH2 0x3F6 DUP2 PUSH2 0x3E3 JUMP JUMPDEST DUP2 EQ PUSH2 0x401 JUMPI PUSH1 0x0 DUP1 REVERT JUMPDEST POP JUMP JUMPDEST PUSH1 0x0 DUP2 MLOAD SWAP1 POP PUSH2 0x413 DUP2 PUSH2 0x3ED JUMP JUMPDEST SWAP3 SWAP2 POP POP JUMP JUMPDEST PUSH1 0x0 DUP1 PUSH1 0x0 DUP1 PUSH1 0x0 PUSH1 0xA0 DUP7 DUP9 SUB SLT ISZERO PUSH2 0x435 JUMPI PUSH2 0x434 PUSH2 0x301 JUMP JUMPDEST JUMPDEST PUSH1 0x0 PUSH2 0x443 DUP9 DUP3 DUP10 ADD PUSH2 0x3CE JUMP JUMPDEST SWAP6 POP POP PUSH1 0x20 PUSH2 0x454 DUP9 DUP3 DUP10 ADD PUSH2 0x404 JUMP JUMPDEST SWAP5 POP POP PUSH1 0x40 PUSH2 0x465 DUP9 DUP3 DUP10 ADD PUSH2 0x35F JUMP JUMPDEST SWAP4 POP POP PUSH1 0x60 PUSH2 0x476 DUP9 DUP3 DUP10 ADD PUSH2 0x35F JUMP JUMPDEST SWAP3 POP POP PUSH1 0x80 PUSH2 0x487 DUP9 DUP3 DUP10 ADD PUSH2 0x3CE JUMP JUMPDEST SWAP2 POP POP SWAP3 SWAP6 POP SWAP3 SWAP6 SWAP1 SWAP4 POP JUMP JUMPDEST PUSH32 0x4E487B7100000000000000000000000000000000000000000000000000000000 PUSH1 0x0 MSTORE PUSH1 0x11 PUSH1 0x4 MSTORE PUSH1 0x24 PUSH1 0x0 REVERT JUMPDEST PUSH1 0x0 PUSH2 0x4CE DUP3 PUSH2 0x3E3 JUMP JUMPDEST SWAP2 POP PUSH2 0x4D9 DUP4 PUSH2 0x3E3 JUMP JUMPDEST SWAP3 POP DUP3 PUSH32 0x7FFFFFFFFFFFFFFFFFFFFFFFFFFFFFFFFFFFFFFFFFFFFFFFFFFFFFFFFFFFFFFF DIV DUP3 GT PUSH1 0x0 DUP5 SGT PUSH1 0x0 DUP5 SGT AND AND ISZERO PUSH2 0x518 JUMPI PUSH2 0x517 PUSH2 0x494 JUMP JUMPDEST JUMPDEST DUP2 PUSH32 0x8000000000000000000000000000000000000000000000000000000000000000 SDIV DUP4 SLT PUSH1 0x0 DUP5 SLT PUSH1 0x0 DUP5 SGT AND AND ISZERO PUSH2 0x555 JUMPI PUSH2 0x554 PUSH2 0x494 JUMP JUMPDEST JUMPDEST DUP3 PUSH32 0x8000000000000000000000000000000000000000000000000000000000000000 SDIV DUP3 SLT PUSH1 0x0 DUP5 SGT PUSH1 0x0 DUP5 SLT AND AND ISZERO PUSH2 0x592 JUMPI PUSH2 0x591 PUSH2 0x494 JUMP JUMPDEST JUMPDEST DUP3 PUSH32 0x7FFFFFFFFFFFFFFFFFFFFFFFFFFFFFFFFFFFFFFFFFFFFFFFFFFFFFFFFFFFFFFF SDIV DUP3 SLT PUSH1 0x0 DUP5 SLT PUSH1 0x0 DUP5 SLT AND AND ISZERO PUSH2 0x5CF JUMPI PUSH2 0x5CE PUSH2 0x494 JUMP JUMPDEST JUMPDEST DUP3 DUP3 MUL SWAP1 POP SWAP3 SWAP2 POP POP JUMP JUMPDEST PUSH1 0x0 DUP3 DUP3 MSTORE PUSH1 0x20 DUP3 ADD SWAP1 POP SWAP3 SWAP2 POP POP JUMP JUMPDEST PUSH32 0x596F75206E65656420746F207370656E64206D6F726520455448210000000000 PUSH1 0x0 DUP3 ADD MSTORE POP JUMP JUMPDEST PUSH1 0x0 PUSH2 0x621 PUSH1 0x1B DUP4 PUSH2 0x5DA JUMP JUMPDEST SWAP2 POP PUSH2 0x62C DUP3 PUSH2 0x5EB JUMP JUMPDEST PUSH1 0x20 DUP3 ADD SWAP1 POP SWAP2 SWAP1 POP JUMP JUMPDEST PUSH1 0x0 PUSH1 0x20 DUP3 ADD SWAP1 POP DUP2 DUP2 SUB PUSH1 0x0 DUP4 ADD MSTORE PUSH2 0x650 DUP2 PUSH2 0x614 JUMP JUMPDEST SWAP1 POP SWAP2 SWAP1 POP JUMP JUMPDEST PUSH1 0x0 PUSH2 0x662 DUP3 PUSH2 0x2CD JUMP JUMPDEST SWAP2 POP PUSH2 0x66D DUP4 PUSH2 0x2CD JUMP JUMPDEST SWAP3 POP DUP2 PUSH32 0xFFFFFFFFFFFFFFFFFFFFFFFFFFFFFFFFFFFFFFFFFFFFFFFFFFFFFFFFFFFFFFFF DIV DUP4 GT DUP3 ISZERO ISZERO AND ISZERO PUSH2 0x6A6 JUMPI PUSH2 0x6A5 PUSH2 0x494 JUMP JUMPDEST JUMPDEST DUP3 DUP3 MUL SWAP1 POP SWAP3 SWAP2 POP POP JUMP JUMPDEST PUSH32 0x4E487B7100000000000000000000000000000000000000000000000000000000 PUSH1 0x0 MSTORE PUSH1 0x12 PUSH1 0x4 MSTORE PUSH1 0x24 PUSH1 0x0 REVERT JUMPDEST PUSH1 0x0 PUSH2 0x6EB DUP3 PUSH2 0x2CD JUMP JUMPDEST SWAP2 POP PUSH2 0x6F6 DUP4 PUSH2 0x2CD JUMP JUMPDEST SWAP3 POP DUP3 PUSH2 0x706 JUMPI PUSH2 0x705 PUSH2 0x6B1 JUMP JUMPDEST JUMPDEST DUP3 DUP3 DIV SWAP1 POP SWAP3 SWAP2 POP POP JUMP INVALID LOG2 PUSH5 0x6970667358 0x22 SLT KECCAK256 SWAP12 CALLVALUE PUSH25 0x15338881077C5331CAF8B2D2617DFC291FF9C3D1E720F0A36 0x22 PUSH16 0xAE6364736F6C63430008080033000000 "
				},
				"gasEstimates": {
					"creation": {
						"codeDepositCost": "372600",
						"executionCost": "411",
						"totalCost": "373011"
					},
					"external": {
						"conversion(uint256)": "infinite",
						"fund()": "infinite",
						"getPrice()": "infinite",
						"getVersion()": "infinite"
					}
				},
				"methodIdentifiers": {
					"conversion(uint256)": "ba4d0c99",
					"fund()": "b60d4288",
					"getPrice()": "98d5fdca",
					"getVersion()": "0d8e6e2c"
				}
			},
			"storageLayout": {
				"storage": [],
				"types": null
			},
			"userdoc": {
				"kind": "user",
				"methods": {},
				"version": 1
			}
		}
	}
}