{
	"contracts/SimpleStorage.sol": {
		"SimpleStorage": {
			"abi": [
				{
					"inputs": [
						{
							"internalType": "string",
							"name": "_newName",
							"type": "string"
						}
					],
					"name": "changeName",
					"outputs": [],
					"stateMutability": "nonpayable",
					"type": "function"
				},
				{
					"inputs": [
						{
							"internalType": "uint256",
							"name": "_num",
							"type": "uint256"
						}
					],
					"name": "changeNumber",
					"outputs": [],
					"stateMutability": "nonpayable",
					"type": "function"
				},
				{
					"inputs": [],
					"name": "getName",
					"outputs": [
						{
							"internalType": "string",
							"name": "",
							"type": "string"
						}
					],
					"stateMutability": "view",
					"type": "function"
				},
				{
					"inputs": [],
					"name": "getNumber",
					"outputs": [
						{
							"internalType": "uint256",
							"name": "",
							"type": "uint256"
						}
					],
					"stateMutability": "view",
					"type": "function"
				},
				{
					"inputs": [],
					"name": "myNumber",
					"outputs": [
						{
							"internalType": "uint256",
							"name": "",
							"type": "uint256"
						}
					],
					"stateMutability": "view",
					"type": "function"
				},
				{
					"inputs": [],
					"name": "name",
					"outputs": [
						{
							"internalType": "string",
							"name": "",
							"type": "string"
						}
					],
					"stateMutability": "view",
					"type": "function"
				}
			],
			"devdoc": {
				"kind": "dev",
				"methods": {},
				"version": 1
			},
			"evm": {
				"assembly": "    /* \"contracts/SimpleStorage.sol\":59:507  contract SimpleStorage {... */\n  mstore(0x40, 0x80)\n  callvalue\n  dup1\n  iszero\n  tag_1\n  jumpi\n  0x00\n  dup1\n  revert\ntag_1:\n  pop\n  dataSize(sub_0)\n  dup1\n  dataOffset(sub_0)\n  0x00\n  codecopy\n  0x00\n  return\nstop\n\nsub_0: assembly {\n        /* \"contracts/SimpleStorage.sol\":59:507  contract SimpleStorage {... */\n      mstore(0x40, 0x80)\n      callvalue\n      dup1\n      iszero\n      tag_1\n      jumpi\n      0x00\n      dup1\n      revert\n    tag_1:\n      pop\n      jumpi(tag_2, lt(calldatasize, 0x04))\n      shr(0xe0, calldataload(0x00))\n      dup1\n      0x06fdde03\n      eq\n      tag_3\n      jumpi\n      dup1\n      0x07391dd6\n      eq\n      tag_4\n      jumpi\n      dup1\n      0x17d7de7c\n      eq\n      tag_5\n      jumpi\n      dup1\n      0x23fd0e40\n      eq\n      tag_6\n      jumpi\n      dup1\n      0x5353a2d8\n      eq\n      tag_7\n      jumpi\n      dup1\n      0xf2c9ecd8\n      eq\n      tag_8\n      jumpi\n    tag_2:\n      0x00\n      dup1\n      revert\n        /* \"contracts/SimpleStorage.sol\":119:137  string public name */\n    tag_3:\n      tag_9\n      tag_10\n      jump\t// in\n    tag_9:\n      mload(0x40)\n      tag_11\n      swap2\n      swap1\n      tag_12\n      jump\t// in\n    tag_11:\n      mload(0x40)\n      dup1\n      swap2\n      sub\n      swap1\n      return\n        /* \"contracts/SimpleStorage.sol\":146:223  function changeNumber(uint256 _num) public {... */\n    tag_4:\n      tag_13\n      0x04\n      dup1\n      calldatasize\n      sub\n      dup2\n      add\n      swap1\n      tag_14\n      swap2\n      swap1\n      tag_15\n      jump\t// in\n    tag_14:\n      tag_16\n      jump\t// in\n    tag_13:\n      stop\n        /* \"contracts/SimpleStorage.sol\":324:408  function getName() public view returns(string memory) {... */\n    tag_5:\n      tag_17\n      tag_18\n      jump\t// in\n    tag_17:\n      mload(0x40)\n      tag_19\n      swap2\n      swap1\n      tag_12\n      jump\t// in\n    tag_19:\n      mload(0x40)\n      dup1\n      swap2\n      sub\n      swap1\n      return\n        /* \"contracts/SimpleStorage.sol\":89:112  uint256 public myNumber */\n    tag_6:\n      tag_20\n      tag_21\n      jump\t// in\n    tag_20:\n      mload(0x40)\n      tag_22\n      swap2\n      swap1\n      tag_23\n      jump\t// in\n    tag_22:\n      mload(0x40)\n      dup1\n      swap2\n      sub\n      swap1\n      return\n        /* \"contracts/SimpleStorage.sol\":231:316  function changeName(string memory _newName) public {... */\n    tag_7:\n      tag_24\n      0x04\n      dup1\n      calldatasize\n      sub\n      dup2\n      add\n      swap1\n      tag_25\n      swap2\n      swap1\n      tag_26\n      jump\t// in\n    tag_25:\n      tag_27\n      jump\t// in\n    tag_24:\n      stop\n        /* \"contracts/SimpleStorage.sol\":420:504  function getNumber() public view returns(uint256) {... */\n    tag_8:\n      tag_28\n      tag_29\n      jump\t// in\n    tag_28:\n      mload(0x40)\n      tag_30\n      swap2\n      swap1\n      tag_23\n      jump\t// in\n    tag_30:\n      mload(0x40)\n      dup1\n      swap2\n      sub\n      swap1\n      return\n        /* \"contracts/SimpleStorage.sol\":119:137  string public name */\n    tag_10:\n      0x01\n      dup1\n      sload\n      tag_31\n      swap1\n      tag_32\n      jump\t// in\n    tag_31:\n      dup1\n      0x1f\n      add\n      0x20\n      dup1\n      swap2\n      div\n      mul\n      0x20\n      add\n      mload(0x40)\n      swap1\n      dup2\n      add\n      0x40\n      mstore\n      dup1\n      swap3\n      swap2\n      swap1\n      dup2\n      dup2\n      mstore\n      0x20\n      add\n      dup3\n      dup1\n      sload\n      tag_33\n      swap1\n      tag_32\n      jump\t// in\n    tag_33:\n      dup1\n      iszero\n      tag_34\n      jumpi\n      dup1\n      0x1f\n      lt\n      tag_35\n      jumpi\n      0x0100\n      dup1\n      dup4\n      sload\n      div\n      mul\n      dup4\n      mstore\n      swap2\n      0x20\n      add\n      swap2\n      jump(tag_34)\n    tag_35:\n      dup3\n      add\n      swap2\n      swap1\n      0x00\n      mstore\n      keccak256(0x00, 0x20)\n      swap1\n    tag_36:\n      dup2\n      sload\n      dup2\n      mstore\n      swap1\n      0x01\n      add\n      swap1\n      0x20\n      add\n      dup1\n      dup4\n      gt\n      tag_36\n      jumpi\n      dup3\n      swap1\n      sub\n      0x1f\n      and\n      dup3\n      add\n      swap2\n    tag_34:\n      pop\n      pop\n      pop\n      pop\n      pop\n      dup2\n      jump\t// out\n        /* \"contracts/SimpleStorage.sol\":146:223  function changeNumber(uint256 _num) public {... */\n    tag_16:\n        /* \"contracts/SimpleStorage.sol\":211:215  _num */\n      dup1\n        /* \"contracts/SimpleStorage.sol\":200:208  myNumber */\n      0x00\n        /* \"contracts/SimpleStorage.sol\":200:215  myNumber = _num */\n      dup2\n      swap1\n      sstore\n      pop\n        /* \"contracts/SimpleStorage.sol\":146:223  function changeNumber(uint256 _num) public {... */\n      pop\n      jump\t// out\n        /* \"contracts/SimpleStorage.sol\":324:408  function getName() public view returns(string memory) {... */\n    tag_18:\n        /* \"contracts/SimpleStorage.sol\":363:376  string memory */\n      0x60\n        /* \"contracts/SimpleStorage.sol\":396:400  name */\n      0x01\n        /* \"contracts/SimpleStorage.sol\":389:400  return name */\n      dup1\n      sload\n      tag_39\n      swap1\n      tag_32\n      jump\t// in\n    tag_39:\n      dup1\n      0x1f\n      add\n      0x20\n      dup1\n      swap2\n      div\n      mul\n      0x20\n      add\n      mload(0x40)\n      swap1\n      dup2\n      add\n      0x40\n      mstore\n      dup1\n      swap3\n      swap2\n      swap1\n      dup2\n      dup2\n      mstore\n      0x20\n      add\n      dup3\n      dup1\n      sload\n      tag_40\n      swap1\n      tag_32\n      jump\t// in\n    tag_40:\n      dup1\n      iszero\n      tag_41\n      jumpi\n      dup1\n      0x1f\n      lt\n      tag_42\n      jumpi\n      0x0100\n      dup1\n      dup4\n      sload\n      div\n      mul\n      dup4\n      mstore\n      swap2\n      0x20\n      add\n      swap2\n      jump(tag_41)\n    tag_42:\n      dup3\n      add\n      swap2\n      swap1\n      0x00\n      mstore\n      keccak256(0x00, 0x20)\n      swap1\n    tag_43:\n      dup2\n      sload\n      dup2\n      mstore\n      swap1\n      0x01\n      add\n      swap1\n      0x20\n      add\n      dup1\n      dup4\n      gt\n      tag_43\n      jumpi\n      dup3\n      swap1\n      sub\n      0x1f\n      and\n      dup3\n      add\n      swap2\n    tag_41:\n      pop\n      pop\n      pop\n      pop\n      pop\n      swap1\n      pop\n        /* \"contracts/SimpleStorage.sol\":324:408  function getName() public view returns(string memory) {... */\n      swap1\n      jump\t// out\n        /* \"contracts/SimpleStorage.sol\":89:112  uint256 public myNumber */\n    tag_21:\n      sload(0x00)\n      dup2\n      jump\t// out\n        /* \"contracts/SimpleStorage.sol\":231:316  function changeName(string memory _newName) public {... */\n    tag_27:\n        /* \"contracts/SimpleStorage.sol\":300:308  _newName */\n      dup1\n        /* \"contracts/SimpleStorage.sol\":293:297  name */\n      0x01\n        /* \"contracts/SimpleStorage.sol\":293:308  name = _newName */\n      swap1\n      dup1\n      mload\n      swap1\n      0x20\n      add\n      swap1\n      tag_45\n      swap3\n      swap2\n      swap1\n      tag_46\n      jump\t// in\n    tag_45:\n      pop\n        /* \"contracts/SimpleStorage.sol\":231:316  function changeName(string memory _newName) public {... */\n      pop\n      jump\t// out\n        /* \"contracts/SimpleStorage.sol\":420:504  function getNumber() public view returns(uint256) {... */\n    tag_29:\n        /* \"contracts/SimpleStorage.sol\":461:468  uint256 */\n      0x00\n        /* \"contracts/SimpleStorage.sol\":488:496  myNumber */\n      dup1\n      sload\n        /* \"contracts/SimpleStorage.sol\":481:496  return myNumber */\n      swap1\n      pop\n        /* \"contracts/SimpleStorage.sol\":420:504  function getNumber() public view returns(uint256) {... */\n      swap1\n      jump\t// out\n    tag_46:\n      dup3\n      dup1\n      sload\n      tag_48\n      swap1\n      tag_32\n      jump\t// in\n    tag_48:\n      swap1\n      0x00\n      mstore\n      keccak256(0x00, 0x20)\n      swap1\n      0x1f\n      add\n      0x20\n      swap1\n      div\n      dup2\n      add\n      swap3\n      dup3\n      tag_50\n      jumpi\n      0x00\n      dup6\n      sstore\n      jump(tag_49)\n    tag_50:\n      dup3\n      0x1f\n      lt\n      tag_51\n      jumpi\n      dup1\n      mload\n      not(0xff)\n      and\n      dup4\n      dup1\n      add\n      or\n      dup6\n      sstore\n      jump(tag_49)\n    tag_51:\n      dup3\n      dup1\n      add\n      0x01\n      add\n      dup6\n      sstore\n      dup3\n      iszero\n      tag_49\n      jumpi\n      swap2\n      dup3\n      add\n    tag_52:\n      dup3\n      dup2\n      gt\n      iszero\n      tag_53\n      jumpi\n      dup3\n      mload\n      dup3\n      sstore\n      swap2\n      0x20\n      add\n      swap2\n      swap1\n      0x01\n      add\n      swap1\n      jump(tag_52)\n    tag_53:\n    tag_49:\n      pop\n      swap1\n      pop\n      tag_54\n      swap2\n      swap1\n      tag_55\n      jump\t// in\n    tag_54:\n      pop\n      swap1\n      jump\t// out\n    tag_55:\n    tag_56:\n      dup1\n      dup3\n      gt\n      iszero\n      tag_57\n      jumpi\n      0x00\n      dup2\n      0x00\n      swap1\n      sstore\n      pop\n      0x01\n      add\n      jump(tag_56)\n    tag_57:\n      pop\n      swap1\n      jump\t// out\n        /* \"#utility.yul\":7:106   */\n    tag_58:\n        /* \"#utility.yul\":59:65   */\n      0x00\n        /* \"#utility.yul\":93:98   */\n      dup2\n        /* \"#utility.yul\":87:99   */\n      mload\n        /* \"#utility.yul\":77:99   */\n      swap1\n      pop\n        /* \"#utility.yul\":7:106   */\n      swap2\n      swap1\n      pop\n      jump\t// out\n        /* \"#utility.yul\":112:281   */\n    tag_59:\n        /* \"#utility.yul\":196:207   */\n      0x00\n        /* \"#utility.yul\":230:236   */\n      dup3\n        /* \"#utility.yul\":225:228   */\n      dup3\n        /* \"#utility.yul\":218:237   */\n      mstore\n        /* \"#utility.yul\":270:274   */\n      0x20\n        /* \"#utility.yul\":265:268   */\n      dup3\n        /* \"#utility.yul\":261:275   */\n      add\n        /* \"#utility.yul\":246:275   */\n      swap1\n      pop\n        /* \"#utility.yul\":112:281   */\n      swap3\n      swap2\n      pop\n      pop\n      jump\t// out\n        /* \"#utility.yul\":287:594   */\n    tag_60:\n        /* \"#utility.yul\":355:356   */\n      0x00\n        /* \"#utility.yul\":365:478   */\n    tag_84:\n        /* \"#utility.yul\":379:385   */\n      dup4\n        /* \"#utility.yul\":376:377   */\n      dup2\n        /* \"#utility.yul\":373:386   */\n      lt\n        /* \"#utility.yul\":365:478   */\n      iszero\n      tag_86\n      jumpi\n        /* \"#utility.yul\":464:465   */\n      dup1\n        /* \"#utility.yul\":459:462   */\n      dup3\n        /* \"#utility.yul\":455:466   */\n      add\n        /* \"#utility.yul\":449:467   */\n      mload\n        /* \"#utility.yul\":445:446   */\n      dup2\n        /* \"#utility.yul\":440:443   */\n      dup5\n        /* \"#utility.yul\":436:447   */\n      add\n        /* \"#utility.yul\":429:468   */\n      mstore\n        /* \"#utility.yul\":401:403   */\n      0x20\n        /* \"#utility.yul\":398:399   */\n      dup2\n        /* \"#utility.yul\":394:404   */\n      add\n        /* \"#utility.yul\":389:404   */\n      swap1\n      pop\n        /* \"#utility.yul\":365:478   */\n      jump(tag_84)\n    tag_86:\n        /* \"#utility.yul\":496:502   */\n      dup4\n        /* \"#utility.yul\":493:494   */\n      dup2\n        /* \"#utility.yul\":490:503   */\n      gt\n        /* \"#utility.yul\":487:588   */\n      iszero\n      tag_87\n      jumpi\n        /* \"#utility.yul\":576:577   */\n      0x00\n        /* \"#utility.yul\":567:573   */\n      dup5\n        /* \"#utility.yul\":562:565   */\n      dup5\n        /* \"#utility.yul\":558:574   */\n      add\n        /* \"#utility.yul\":551:578   */\n      mstore\n        /* \"#utility.yul\":487:588   */\n    tag_87:\n        /* \"#utility.yul\":336:594   */\n      pop\n        /* \"#utility.yul\":287:594   */\n      pop\n      pop\n      pop\n      jump\t// out\n        /* \"#utility.yul\":600:702   */\n    tag_61:\n        /* \"#utility.yul\":641:647   */\n      0x00\n        /* \"#utility.yul\":692:694   */\n      0x1f\n        /* \"#utility.yul\":688:695   */\n      not\n        /* \"#utility.yul\":683:685   */\n      0x1f\n        /* \"#utility.yul\":676:681   */\n      dup4\n        /* \"#utility.yul\":672:686   */\n      add\n        /* \"#utility.yul\":668:696   */\n      and\n        /* \"#utility.yul\":658:696   */\n      swap1\n      pop\n        /* \"#utility.yul\":600:702   */\n      swap2\n      swap1\n      pop\n      jump\t// out\n        /* \"#utility.yul\":708:1072   */\n    tag_62:\n        /* \"#utility.yul\":796:799   */\n      0x00\n        /* \"#utility.yul\":824:863   */\n      tag_90\n        /* \"#utility.yul\":857:862   */\n      dup3\n        /* \"#utility.yul\":824:863   */\n      tag_58\n      jump\t// in\n    tag_90:\n        /* \"#utility.yul\":879:950   */\n      tag_91\n        /* \"#utility.yul\":943:949   */\n      dup2\n        /* \"#utility.yul\":938:941   */\n      dup6\n        /* \"#utility.yul\":879:950   */\n      tag_59\n      jump\t// in\n    tag_91:\n        /* \"#utility.yul\":872:950   */\n      swap4\n      pop\n        /* \"#utility.yul\":959:1011   */\n      tag_92\n        /* \"#utility.yul\":1004:1010   */\n      dup2\n        /* \"#utility.yul\":999:1002   */\n      dup6\n        /* \"#utility.yul\":992:996   */\n      0x20\n        /* \"#utility.yul\":985:990   */\n      dup7\n        /* \"#utility.yul\":981:997   */\n      add\n        /* \"#utility.yul\":959:1011   */\n      tag_60\n      jump\t// in\n    tag_92:\n        /* \"#utility.yul\":1036:1065   */\n      tag_93\n        /* \"#utility.yul\":1058:1064   */\n      dup2\n        /* \"#utility.yul\":1036:1065   */\n      tag_61\n      jump\t// in\n    tag_93:\n        /* \"#utility.yul\":1031:1034   */\n      dup5\n        /* \"#utility.yul\":1027:1066   */\n      add\n        /* \"#utility.yul\":1020:1066   */\n      swap2\n      pop\n        /* \"#utility.yul\":800:1072   */\n      pop\n        /* \"#utility.yul\":708:1072   */\n      swap3\n      swap2\n      pop\n      pop\n      jump\t// out\n        /* \"#utility.yul\":1078:1391   */\n    tag_12:\n        /* \"#utility.yul\":1191:1195   */\n      0x00\n        /* \"#utility.yul\":1229:1231   */\n      0x20\n        /* \"#utility.yul\":1218:1227   */\n      dup3\n        /* \"#utility.yul\":1214:1232   */\n      add\n        /* \"#utility.yul\":1206:1232   */\n      swap1\n      pop\n        /* \"#utility.yul\":1278:1287   */\n      dup2\n        /* \"#utility.yul\":1272:1276   */\n      dup2\n        /* \"#utility.yul\":1268:1288   */\n      sub\n        /* \"#utility.yul\":1264:1265   */\n      0x00\n        /* \"#utility.yul\":1253:1262   */\n      dup4\n        /* \"#utility.yul\":1249:1266   */\n      add\n        /* \"#utility.yul\":1242:1289   */\n      mstore\n        /* \"#utility.yul\":1306:1384   */\n      tag_95\n        /* \"#utility.yul\":1379:1383   */\n      dup2\n        /* \"#utility.yul\":1370:1376   */\n      dup5\n        /* \"#utility.yul\":1306:1384   */\n      tag_62\n      jump\t// in\n    tag_95:\n        /* \"#utility.yul\":1298:1384   */\n      swap1\n      pop\n        /* \"#utility.yul\":1078:1391   */\n      swap3\n      swap2\n      pop\n      pop\n      jump\t// out\n        /* \"#utility.yul\":1397:1472   */\n    tag_63:\n        /* \"#utility.yul\":1430:1436   */\n      0x00\n        /* \"#utility.yul\":1463:1465   */\n      0x40\n        /* \"#utility.yul\":1457:1466   */\n      mload\n        /* \"#utility.yul\":1447:1466   */\n      swap1\n      pop\n        /* \"#utility.yul\":1397:1472   */\n      swap1\n      jump\t// out\n        /* \"#utility.yul\":1478:1595   */\n    tag_64:\n        /* \"#utility.yul\":1587:1588   */\n      0x00\n        /* \"#utility.yul\":1584:1585   */\n      dup1\n        /* \"#utility.yul\":1577:1589   */\n      revert\n        /* \"#utility.yul\":1601:1718   */\n    tag_65:\n        /* \"#utility.yul\":1710:1711   */\n      0x00\n        /* \"#utility.yul\":1707:1708   */\n      dup1\n        /* \"#utility.yul\":1700:1712   */\n      revert\n        /* \"#utility.yul\":1724:1801   */\n    tag_66:\n        /* \"#utility.yul\":1761:1768   */\n      0x00\n        /* \"#utility.yul\":1790:1795   */\n      dup2\n        /* \"#utility.yul\":1779:1795   */\n      swap1\n      pop\n        /* \"#utility.yul\":1724:1801   */\n      swap2\n      swap1\n      pop\n      jump\t// out\n        /* \"#utility.yul\":1807:1929   */\n    tag_67:\n        /* \"#utility.yul\":1880:1904   */\n      tag_101\n        /* \"#utility.yul\":1898:1903   */\n      dup2\n        /* \"#utility.yul\":1880:1904   */\n      tag_66\n      jump\t// in\n    tag_101:\n        /* \"#utility.yul\":1873:1878   */\n      dup2\n        /* \"#utility.yul\":1870:1905   */\n      eq\n        /* \"#utility.yul\":1860:1923   */\n      tag_102\n      jumpi\n        /* \"#utility.yul\":1919:1920   */\n      0x00\n        /* \"#utility.yul\":1916:1917   */\n      dup1\n        /* \"#utility.yul\":1909:1921   */\n      revert\n        /* \"#utility.yul\":1860:1923   */\n    tag_102:\n        /* \"#utility.yul\":1807:1929   */\n      pop\n      jump\t// out\n        /* \"#utility.yul\":1935:2074   */\n    tag_68:\n        /* \"#utility.yul\":1981:1986   */\n      0x00\n        /* \"#utility.yul\":2019:2025   */\n      dup2\n        /* \"#utility.yul\":2006:2026   */\n      calldataload\n        /* \"#utility.yul\":1997:2026   */\n      swap1\n      pop\n        /* \"#utility.yul\":2035:2068   */\n      tag_104\n        /* \"#utility.yul\":2062:2067   */\n      dup2\n        /* \"#utility.yul\":2035:2068   */\n      tag_67\n      jump\t// in\n    tag_104:\n        /* \"#utility.yul\":1935:2074   */\n      swap3\n      swap2\n      pop\n      pop\n      jump\t// out\n        /* \"#utility.yul\":2080:2409   */\n    tag_15:\n        /* \"#utility.yul\":2139:2145   */\n      0x00\n        /* \"#utility.yul\":2188:2190   */\n      0x20\n        /* \"#utility.yul\":2176:2185   */\n      dup3\n        /* \"#utility.yul\":2167:2174   */\n      dup5\n        /* \"#utility.yul\":2163:2186   */\n      sub\n        /* \"#utility.yul\":2159:2191   */\n      slt\n        /* \"#utility.yul\":2156:2275   */\n      iszero\n      tag_106\n      jumpi\n        /* \"#utility.yul\":2194:2273   */\n      tag_107\n      tag_64\n      jump\t// in\n    tag_107:\n        /* \"#utility.yul\":2156:2275   */\n    tag_106:\n        /* \"#utility.yul\":2314:2315   */\n      0x00\n        /* \"#utility.yul\":2339:2392   */\n      tag_108\n        /* \"#utility.yul\":2384:2391   */\n      dup5\n        /* \"#utility.yul\":2375:2381   */\n      dup3\n        /* \"#utility.yul\":2364:2373   */\n      dup6\n        /* \"#utility.yul\":2360:2382   */\n      add\n        /* \"#utility.yul\":2339:2392   */\n      tag_68\n      jump\t// in\n    tag_108:\n        /* \"#utility.yul\":2329:2392   */\n      swap2\n      pop\n        /* \"#utility.yul\":2285:2402   */\n      pop\n        /* \"#utility.yul\":2080:2409   */\n      swap3\n      swap2\n      pop\n      pop\n      jump\t// out\n        /* \"#utility.yul\":2415:2533   */\n    tag_69:\n        /* \"#utility.yul\":2502:2526   */\n      tag_110\n        /* \"#utility.yul\":2520:2525   */\n      dup2\n        /* \"#utility.yul\":2502:2526   */\n      tag_66\n      jump\t// in\n    tag_110:\n        /* \"#utility.yul\":2497:2500   */\n      dup3\n        /* \"#utility.yul\":2490:2527   */\n      mstore\n        /* \"#utility.yul\":2415:2533   */\n      pop\n      pop\n      jump\t// out\n        /* \"#utility.yul\":2539:2761   */\n    tag_23:\n        /* \"#utility.yul\":2632:2636   */\n      0x00\n        /* \"#utility.yul\":2670:2672   */\n      0x20\n        /* \"#utility.yul\":2659:2668   */\n      dup3\n        /* \"#utility.yul\":2655:2673   */\n      add\n        /* \"#utility.yul\":2647:2673   */\n      swap1\n      pop\n        /* \"#utility.yul\":2683:2754   */\n      tag_112\n        /* \"#utility.yul\":2751:2752   */\n      0x00\n        /* \"#utility.yul\":2740:2749   */\n      dup4\n        /* \"#utility.yul\":2736:2753   */\n      add\n        /* \"#utility.yul\":2727:2733   */\n      dup5\n        /* \"#utility.yul\":2683:2754   */\n      tag_69\n      jump\t// in\n    tag_112:\n        /* \"#utility.yul\":2539:2761   */\n      swap3\n      swap2\n      pop\n      pop\n      jump\t// out\n        /* \"#utility.yul\":2767:2884   */\n    tag_70:\n        /* \"#utility.yul\":2876:2877   */\n      0x00\n        /* \"#utility.yul\":2873:2874   */\n      dup1\n        /* \"#utility.yul\":2866:2878   */\n      revert\n        /* \"#utility.yul\":2890:3007   */\n    tag_71:\n        /* \"#utility.yul\":2999:3000   */\n      0x00\n        /* \"#utility.yul\":2996:2997   */\n      dup1\n        /* \"#utility.yul\":2989:3001   */\n      revert\n        /* \"#utility.yul\":3013:3193   */\n    tag_72:\n        /* \"#utility.yul\":3061:3138   */\n      0x4e487b7100000000000000000000000000000000000000000000000000000000\n        /* \"#utility.yul\":3058:3059   */\n      0x00\n        /* \"#utility.yul\":3051:3139   */\n      mstore\n        /* \"#utility.yul\":3158:3162   */\n      0x41\n        /* \"#utility.yul\":3155:3156   */\n      0x04\n        /* \"#utility.yul\":3148:3163   */\n      mstore\n        /* \"#utility.yul\":3182:3186   */\n      0x24\n        /* \"#utility.yul\":3179:3180   */\n      0x00\n        /* \"#utility.yul\":3172:3187   */\n      revert\n        /* \"#utility.yul\":3199:3480   */\n    tag_73:\n        /* \"#utility.yul\":3282:3309   */\n      tag_117\n        /* \"#utility.yul\":3304:3308   */\n      dup3\n        /* \"#utility.yul\":3282:3309   */\n      tag_61\n      jump\t// in\n    tag_117:\n        /* \"#utility.yul\":3274:3280   */\n      dup2\n        /* \"#utility.yul\":3270:3310   */\n      add\n        /* \"#utility.yul\":3412:3418   */\n      dup2\n        /* \"#utility.yul\":3400:3410   */\n      dup2\n        /* \"#utility.yul\":3397:3419   */\n      lt\n        /* \"#utility.yul\":3376:3394   */\n      0xffffffffffffffff\n        /* \"#utility.yul\":3364:3374   */\n      dup3\n        /* \"#utility.yul\":3361:3395   */\n      gt\n        /* \"#utility.yul\":3358:3420   */\n      or\n        /* \"#utility.yul\":3355:3443   */\n      iszero\n      tag_118\n      jumpi\n        /* \"#utility.yul\":3423:3441   */\n      tag_119\n      tag_72\n      jump\t// in\n    tag_119:\n        /* \"#utility.yul\":3355:3443   */\n    tag_118:\n        /* \"#utility.yul\":3463:3473   */\n      dup1\n        /* \"#utility.yul\":3459:3461   */\n      0x40\n        /* \"#utility.yul\":3452:3474   */\n      mstore\n        /* \"#utility.yul\":3242:3480   */\n      pop\n        /* \"#utility.yul\":3199:3480   */\n      pop\n      pop\n      jump\t// out\n        /* \"#utility.yul\":3486:3615   */\n    tag_74:\n        /* \"#utility.yul\":3520:3526   */\n      0x00\n        /* \"#utility.yul\":3547:3567   */\n      tag_121\n      tag_63\n      jump\t// in\n    tag_121:\n        /* \"#utility.yul\":3537:3567   */\n      swap1\n      pop\n        /* \"#utility.yul\":3576:3609   */\n      tag_122\n        /* \"#utility.yul\":3604:3608   */\n      dup3\n        /* \"#utility.yul\":3596:3602   */\n      dup3\n        /* \"#utility.yul\":3576:3609   */\n      tag_73\n      jump\t// in\n    tag_122:\n        /* \"#utility.yul\":3486:3615   */\n      swap2\n      swap1\n      pop\n      jump\t// out\n        /* \"#utility.yul\":3621:3929   */\n    tag_75:\n        /* \"#utility.yul\":3683:3687   */\n      0x00\n        /* \"#utility.yul\":3773:3791   */\n      0xffffffffffffffff\n        /* \"#utility.yul\":3765:3771   */\n      dup3\n        /* \"#utility.yul\":3762:3792   */\n      gt\n        /* \"#utility.yul\":3759:3815   */\n      iszero\n      tag_124\n      jumpi\n        /* \"#utility.yul\":3795:3813   */\n      tag_125\n      tag_72\n      jump\t// in\n    tag_125:\n        /* \"#utility.yul\":3759:3815   */\n    tag_124:\n        /* \"#utility.yul\":3833:3862   */\n      tag_126\n        /* \"#utility.yul\":3855:3861   */\n      dup3\n        /* \"#utility.yul\":3833:3862   */\n      tag_61\n      jump\t// in\n    tag_126:\n        /* \"#utility.yul\":3825:3862   */\n      swap1\n      pop\n        /* \"#utility.yul\":3917:3921   */\n      0x20\n        /* \"#utility.yul\":3911:3915   */\n      dup2\n        /* \"#utility.yul\":3907:3922   */\n      add\n        /* \"#utility.yul\":3899:3922   */\n      swap1\n      pop\n        /* \"#utility.yul\":3621:3929   */\n      swap2\n      swap1\n      pop\n      jump\t// out\n        /* \"#utility.yul\":3935:4089   */\n    tag_76:\n        /* \"#utility.yul\":4019:4025   */\n      dup3\n        /* \"#utility.yul\":4014:4017   */\n      dup2\n        /* \"#utility.yul\":4009:4012   */\n      dup4\n        /* \"#utility.yul\":3996:4026   */\n      calldatacopy\n        /* \"#utility.yul\":4081:4082   */\n      0x00\n        /* \"#utility.yul\":4072:4078   */\n      dup4\n        /* \"#utility.yul\":4067:4070   */\n      dup4\n        /* \"#utility.yul\":4063:4079   */\n      add\n        /* \"#utility.yul\":4056:4083   */\n      mstore\n        /* \"#utility.yul\":3935:4089   */\n      pop\n      pop\n      pop\n      jump\t// out\n        /* \"#utility.yul\":4095:4507   */\n    tag_77:\n        /* \"#utility.yul\":4173:4178   */\n      0x00\n        /* \"#utility.yul\":4198:4264   */\n      tag_129\n        /* \"#utility.yul\":4214:4263   */\n      tag_130\n        /* \"#utility.yul\":4256:4262   */\n      dup5\n        /* \"#utility.yul\":4214:4263   */\n      tag_75\n      jump\t// in\n    tag_130:\n        /* \"#utility.yul\":4198:4264   */\n      tag_74\n      jump\t// in\n    tag_129:\n        /* \"#utility.yul\":4189:4264   */\n      swap1\n      pop\n        /* \"#utility.yul\":4287:4293   */\n      dup3\n        /* \"#utility.yul\":4280:4285   */\n      dup2\n        /* \"#utility.yul\":4273:4294   */\n      mstore\n        /* \"#utility.yul\":4325:4329   */\n      0x20\n        /* \"#utility.yul\":4318:4323   */\n      dup2\n        /* \"#utility.yul\":4314:4330   */\n      add\n        /* \"#utility.yul\":4363:4366   */\n      dup5\n        /* \"#utility.yul\":4354:4360   */\n      dup5\n        /* \"#utility.yul\":4349:4352   */\n      dup5\n        /* \"#utility.yul\":4345:4361   */\n      add\n        /* \"#utility.yul\":4342:4367   */\n      gt\n        /* \"#utility.yul\":4339:4451   */\n      iszero\n      tag_131\n      jumpi\n        /* \"#utility.yul\":4370:4449   */\n      tag_132\n      tag_71\n      jump\t// in\n    tag_132:\n        /* \"#utility.yul\":4339:4451   */\n    tag_131:\n        /* \"#utility.yul\":4460:4501   */\n      tag_133\n        /* \"#utility.yul\":4494:4500   */\n      dup5\n        /* \"#utility.yul\":4489:4492   */\n      dup3\n        /* \"#utility.yul\":4484:4487   */\n      dup6\n        /* \"#utility.yul\":4460:4501   */\n      tag_76\n      jump\t// in\n    tag_133:\n        /* \"#utility.yul\":4179:4507   */\n      pop\n        /* \"#utility.yul\":4095:4507   */\n      swap4\n      swap3\n      pop\n      pop\n      pop\n      jump\t// out\n        /* \"#utility.yul\":4527:4867   */\n    tag_78:\n        /* \"#utility.yul\":4583:4588   */\n      0x00\n        /* \"#utility.yul\":4632:4635   */\n      dup3\n        /* \"#utility.yul\":4625:4629   */\n      0x1f\n        /* \"#utility.yul\":4617:4623   */\n      dup4\n        /* \"#utility.yul\":4613:4630   */\n      add\n        /* \"#utility.yul\":4609:4636   */\n      slt\n        /* \"#utility.yul\":4599:4721   */\n      tag_135\n      jumpi\n        /* \"#utility.yul\":4640:4719   */\n      tag_136\n      tag_70\n      jump\t// in\n    tag_136:\n        /* \"#utility.yul\":4599:4721   */\n    tag_135:\n        /* \"#utility.yul\":4757:4763   */\n      dup2\n        /* \"#utility.yul\":4744:4764   */\n      calldataload\n        /* \"#utility.yul\":4782:4861   */\n      tag_137\n        /* \"#utility.yul\":4857:4860   */\n      dup5\n        /* \"#utility.yul\":4849:4855   */\n      dup3\n        /* \"#utility.yul\":4842:4846   */\n      0x20\n        /* \"#utility.yul\":4834:4840   */\n      dup7\n        /* \"#utility.yul\":4830:4847   */\n      add\n        /* \"#utility.yul\":4782:4861   */\n      tag_77\n      jump\t// in\n    tag_137:\n        /* \"#utility.yul\":4773:4861   */\n      swap2\n      pop\n        /* \"#utility.yul\":4589:4867   */\n      pop\n        /* \"#utility.yul\":4527:4867   */\n      swap3\n      swap2\n      pop\n      pop\n      jump\t// out\n        /* \"#utility.yul\":4873:5382   */\n    tag_26:\n        /* \"#utility.yul\":4942:4948   */\n      0x00\n        /* \"#utility.yul\":4991:4993   */\n      0x20\n        /* \"#utility.yul\":4979:4988   */\n      dup3\n        /* \"#utility.yul\":4970:4977   */\n      dup5\n        /* \"#utility.yul\":4966:4989   */\n      sub\n        /* \"#utility.yul\":4962:4994   */\n      slt\n        /* \"#utility.yul\":4959:5078   */\n      iszero\n      tag_139\n      jumpi\n        /* \"#utility.yul\":4997:5076   */\n      tag_140\n      tag_64\n      jump\t// in\n    tag_140:\n        /* \"#utility.yul\":4959:5078   */\n    tag_139:\n        /* \"#utility.yul\":5145:5146   */\n      0x00\n        /* \"#utility.yul\":5134:5143   */\n      dup3\n        /* \"#utility.yul\":5130:5147   */\n      add\n        /* \"#utility.yul\":5117:5148   */\n      calldataload\n        /* \"#utility.yul\":5175:5193   */\n      0xffffffffffffffff\n        /* \"#utility.yul\":5167:5173   */\n      dup2\n        /* \"#utility.yul\":5164:5194   */\n      gt\n        /* \"#utility.yul\":5161:5278   */\n      iszero\n      tag_141\n      jumpi\n        /* \"#utility.yul\":5197:5276   */\n      tag_142\n      tag_65\n      jump\t// in\n    tag_142:\n        /* \"#utility.yul\":5161:5278   */\n    tag_141:\n        /* \"#utility.yul\":5302:5365   */\n      tag_143\n        /* \"#utility.yul\":5357:5364   */\n      dup5\n        /* \"#utility.yul\":5348:5354   */\n      dup3\n        /* \"#utility.yul\":5337:5346   */\n      dup6\n        /* \"#utility.yul\":5333:5355   */\n      add\n        /* \"#utility.yul\":5302:5365   */\n      tag_78\n      jump\t// in\n    tag_143:\n        /* \"#utility.yul\":5292:5365   */\n      swap2\n      pop\n        /* \"#utility.yul\":5088:5375   */\n      pop\n        /* \"#utility.yul\":4873:5382   */\n      swap3\n      swap2\n      pop\n      pop\n      jump\t// out\n        /* \"#utility.yul\":5388:5568   */\n    tag_79:\n        /* \"#utility.yul\":5436:5513   */\n      0x4e487b7100000000000000000000000000000000000000000000000000000000\n        /* \"#utility.yul\":5433:5434   */\n      0x00\n        /* \"#utility.yul\":5426:5514   */\n      mstore\n        /* \"#utility.yul\":5533:5537   */\n      0x22\n        /* \"#utility.yul\":5530:5531   */\n      0x04\n        /* \"#utility.yul\":5523:5538   */\n      mstore\n        /* \"#utility.yul\":5557:5561   */\n      0x24\n        /* \"#utility.yul\":5554:5555   */\n      0x00\n        /* \"#utility.yul\":5547:5562   */\n      revert\n        /* \"#utility.yul\":5574:5894   */\n    tag_32:\n        /* \"#utility.yul\":5618:5624   */\n      0x00\n        /* \"#utility.yul\":5655:5656   */\n      0x02\n        /* \"#utility.yul\":5649:5653   */\n      dup3\n        /* \"#utility.yul\":5645:5657   */\n      div\n        /* \"#utility.yul\":5635:5657   */\n      swap1\n      pop\n        /* \"#utility.yul\":5702:5703   */\n      0x01\n        /* \"#utility.yul\":5696:5700   */\n      dup3\n        /* \"#utility.yul\":5692:5704   */\n      and\n        /* \"#utility.yul\":5723:5741   */\n      dup1\n        /* \"#utility.yul\":5713:5794   */\n      tag_146\n      jumpi\n        /* \"#utility.yul\":5779:5783   */\n      0x7f\n        /* \"#utility.yul\":5771:5777   */\n      dup3\n        /* \"#utility.yul\":5767:5784   */\n      and\n        /* \"#utility.yul\":5757:5784   */\n      swap2\n      pop\n        /* \"#utility.yul\":5713:5794   */\n    tag_146:\n        /* \"#utility.yul\":5841:5843   */\n      0x20\n        /* \"#utility.yul\":5833:5839   */\n      dup3\n        /* \"#utility.yul\":5830:5844   */\n      lt\n        /* \"#utility.yul\":5810:5828   */\n      dup2\n        /* \"#utility.yul\":5807:5845   */\n      eq\n        /* \"#utility.yul\":5804:5888   */\n      iszero\n      tag_147\n      jumpi\n        /* \"#utility.yul\":5860:5878   */\n      tag_148\n      tag_79\n      jump\t// in\n    tag_148:\n        /* \"#utility.yul\":5804:5888   */\n    tag_147:\n        /* \"#utility.yul\":5625:5894   */\n      pop\n        /* \"#utility.yul\":5574:5894   */\n      swap2\n      swap1\n      pop\n      jump\t// out\n\n    auxdata: 0xa2646970667358221220acbc04f68a28f0d193e668192060a28b8aca966c0df49eb9e837bf4d263ea5a864736f6c63430008080033\n}\n",
				"bytecode": {
					"linkReferences": {},
					"object": "608060405234801561001057600080fd5b5061067e806100206000396000f3fe608060405234801561001057600080fd5b50600436106100625760003560e01c806306fdde031461006757806307391dd61461008557806317d7de7c146100a157806323fd0e40146100bf5780635353a2d8146100dd578063f2c9ecd8146100f9575b600080fd5b61006f610117565b60405161007c91906103a6565b60405180910390f35b61009f600480360381019061009a9190610412565b6101a5565b005b6100a96101af565b6040516100b691906103a6565b60405180910390f35b6100c7610241565b6040516100d4919061044e565b60405180910390f35b6100f760048036038101906100f2919061059e565b610247565b005b610101610261565b60405161010e919061044e565b60405180910390f35b6001805461012490610616565b80601f016020809104026020016040519081016040528092919081815260200182805461015090610616565b801561019d5780601f106101725761010080835404028352916020019161019d565b820191906000526020600020905b81548152906001019060200180831161018057829003601f168201915b505050505081565b8060008190555050565b6060600180546101be90610616565b80601f01602080910402602001604051908101604052809291908181526020018280546101ea90610616565b80156102375780601f1061020c57610100808354040283529160200191610237565b820191906000526020600020905b81548152906001019060200180831161021a57829003601f168201915b5050505050905090565b60005481565b806001908051906020019061025d92919061026a565b5050565b60008054905090565b82805461027690610616565b90600052602060002090601f01602090048101928261029857600085556102df565b82601f106102b157805160ff19168380011785556102df565b828001600101855582156102df579182015b828111156102de5782518255916020019190600101906102c3565b5b5090506102ec91906102f0565b5090565b5b808211156103095760008160009055506001016102f1565b5090565b600081519050919050565b600082825260208201905092915050565b60005b8381101561034757808201518184015260208101905061032c565b83811115610356576000848401525b50505050565b6000601f19601f8301169050919050565b60006103788261030d565b6103828185610318565b9350610392818560208601610329565b61039b8161035c565b840191505092915050565b600060208201905081810360008301526103c0818461036d565b905092915050565b6000604051905090565b600080fd5b600080fd5b6000819050919050565b6103ef816103dc565b81146103fa57600080fd5b50565b60008135905061040c816103e6565b92915050565b600060208284031215610428576104276103d2565b5b6000610436848285016103fd565b91505092915050565b610448816103dc565b82525050565b6000602082019050610463600083018461043f565b92915050565b600080fd5b600080fd5b7f4e487b7100000000000000000000000000000000000000000000000000000000600052604160045260246000fd5b6104ab8261035c565b810181811067ffffffffffffffff821117156104ca576104c9610473565b5b80604052505050565b60006104dd6103c8565b90506104e982826104a2565b919050565b600067ffffffffffffffff82111561050957610508610473565b5b6105128261035c565b9050602081019050919050565b82818337600083830152505050565b600061054161053c846104ee565b6104d3565b90508281526020810184848401111561055d5761055c61046e565b5b61056884828561051f565b509392505050565b600082601f83011261058557610584610469565b5b813561059584826020860161052e565b91505092915050565b6000602082840312156105b4576105b36103d2565b5b600082013567ffffffffffffffff8111156105d2576105d16103d7565b5b6105de84828501610570565b91505092915050565b7f4e487b7100000000000000000000000000000000000000000000000000000000600052602260045260246000fd5b6000600282049050600182168061062e57607f821691505b60208210811415610642576106416105e7565b5b5091905056fea2646970667358221220acbc04f68a28f0d193e668192060a28b8aca966c0df49eb9e837bf4d263ea5a864736f6c63430008080033",
					"opcodes": "PUSH1 0x80 PUSH1 0x40 MSTORE CALLVALUE DUP1 ISZERO PUSH2 0x10 JUMPI PUSH1 0x0 DUP1 REVERT JUMPDEST POP PUSH2 0x67E DUP1 PUSH2 0x20 PUSH1 0x0 CODECOPY PUSH1 0x0 RETURN INVALID PUSH1 0x80 PUSH1 0x40 MSTORE CALLVALUE DUP1 ISZERO PUSH2 0x10 JUMPI PUSH1 0x0 DUP1 REVERT JUMPDEST POP PUSH1 0x4 CALLDATASIZE LT PUSH2 0x62 JUMPI PUSH1 0x0 CALLDATALOAD PUSH1 0xE0 SHR DUP1 PUSH4 0x6FDDE03 EQ PUSH2 0x67 JUMPI DUP1 PUSH4 0x7391DD6 EQ PUSH2 0x85 JUMPI DUP1 PUSH4 0x17D7DE7C EQ PUSH2 0xA1 JUMPI DUP1 PUSH4 0x23FD0E40 EQ PUSH2 0xBF JUMPI DUP1 PUSH4 0x5353A2D8 EQ PUSH2 0xDD JUMPI DUP1 PUSH4 0xF2C9ECD8 EQ PUSH2 0xF9 JUMPI JUMPDEST PUSH1 0x0 DUP1 REVERT JUMPDEST PUSH2 0x6F PUSH2 0x117 JUMP JUMPDEST PUSH1 0x40 MLOAD PUSH2 0x7C SWAP2 SWAP1 PUSH2 0x3A6 JUMP JUMPDEST PUSH1 0x40 MLOAD DUP1 SWAP2 SUB SWAP1 RETURN JUMPDEST PUSH2 0x9F PUSH1 0x4 DUP1 CALLDATASIZE SUB DUP2 ADD SWAP1 PUSH2 0x9A SWAP2 SWAP1 PUSH2 0x412 JUMP JUMPDEST PUSH2 0x1A5 JUMP JUMPDEST STOP JUMPDEST PUSH2 0xA9 PUSH2 0x1AF JUMP JUMPDEST PUSH1 0x40 MLOAD PUSH2 0xB6 SWAP2 SWAP1 PUSH2 0x3A6 JUMP JUMPDEST PUSH1 0x40 MLOAD DUP1 SWAP2 SUB SWAP1 RETURN JUMPDEST PUSH2 0xC7 PUSH2 0x241 JUMP JUMPDEST PUSH1 0x40 MLOAD PUSH2 0xD4 SWAP2 SWAP1 PUSH2 0x44E JUMP JUMPDEST PUSH1 0x40 MLOAD DUP1 SWAP2 SUB SWAP1 RETURN JUMPDEST PUSH2 0xF7 PUSH1 0x4 DUP1 CALLDATASIZE SUB DUP2 ADD SWAP1 PUSH2 0xF2 SWAP2 SWAP1 PUSH2 0x59E JUMP JUMPDEST PUSH2 0x247 JUMP JUMPDEST STOP JUMPDEST PUSH2 0x101 PUSH2 0x261 JUMP JUMPDEST PUSH1 0x40 MLOAD PUSH2 0x10E SWAP2 SWAP1 PUSH2 0x44E JUMP JUMPDEST PUSH1 0x40 MLOAD DUP1 SWAP2 SUB SWAP1 RETURN JUMPDEST PUSH1 0x1 DUP1 SLOAD PUSH2 0x124 SWAP1 PUSH2 0x616 JUMP JUMPDEST DUP1 PUSH1 0x1F ADD PUSH1 0x20 DUP1 SWAP2 DIV MUL PUSH1 0x20 ADD PUSH1 0x40 MLOAD SWAP1 DUP2 ADD PUSH1 0x40 MSTORE DUP1 SWAP3 SWAP2 SWAP1 DUP2 DUP2 MSTORE PUSH1 0x20 ADD DUP3 DUP1 SLOAD PUSH2 0x150 SWAP1 PUSH2 0x616 JUMP JUMPDEST DUP1 ISZERO PUSH2 0x19D JUMPI DUP1 PUSH1 0x1F LT PUSH2 0x172 JUMPI PUSH2 0x100 DUP1 DUP4 SLOAD DIV MUL DUP4 MSTORE SWAP2 PUSH1 0x20 ADD SWAP2 PUSH2 0x19D JUMP JUMPDEST DUP3 ADD SWAP2 SWAP1 PUSH1 0x0 MSTORE PUSH1 0x20 PUSH1 0x0 KECCAK256 SWAP1 JUMPDEST DUP2 SLOAD DUP2 MSTORE SWAP1 PUSH1 0x1 ADD SWAP1 PUSH1 0x20 ADD DUP1 DUP4 GT PUSH2 0x180 JUMPI DUP3 SWAP1 SUB PUSH1 0x1F AND DUP3 ADD SWAP2 JUMPDEST POP POP POP POP POP DUP2 JUMP JUMPDEST DUP1 PUSH1 0x0 DUP2 SWAP1 SSTORE POP POP JUMP JUMPDEST PUSH1 0x60 PUSH1 0x1 DUP1 SLOAD PUSH2 0x1BE SWAP1 PUSH2 0x616 JUMP JUMPDEST DUP1 PUSH1 0x1F ADD PUSH1 0x20 DUP1 SWAP2 DIV MUL PUSH1 0x20 ADD PUSH1 0x40 MLOAD SWAP1 DUP2 ADD PUSH1 0x40 MSTORE DUP1 SWAP3 SWAP2 SWAP1 DUP2 DUP2 MSTORE PUSH1 0x20 ADD DUP3 DUP1 SLOAD PUSH2 0x1EA SWAP1 PUSH2 0x616 JUMP JUMPDEST DUP1 ISZERO PUSH2 0x237 JUMPI DUP1 PUSH1 0x1F LT PUSH2 0x20C JUMPI PUSH2 0x100 DUP1 DUP4 SLOAD DIV MUL DUP4 MSTORE SWAP2 PUSH1 0x20 ADD SWAP2 PUSH2 0x237 JUMP JUMPDEST DUP3 ADD SWAP2 SWAP1 PUSH1 0x0 MSTORE PUSH1 0x20 PUSH1 0x0 KECCAK256 SWAP1 JUMPDEST DUP2 SLOAD DUP2 MSTORE SWAP1 PUSH1 0x1 ADD SWAP1 PUSH1 0x20 ADD DUP1 DUP4 GT PUSH2 0x21A JUMPI DUP3 SWAP1 SUB PUSH1 0x1F AND DUP3 ADD SWAP2 JUMPDEST POP POP POP POP POP SWAP1 POP SWAP1 JUMP JUMPDEST PUSH1 0x0 SLOAD DUP2 JUMP JUMPDEST DUP1 PUSH1 0x1 SWAP1 DUP1 MLOAD SWAP1 PUSH1 0x20 ADD SWAP1 PUSH2 0x25D SWAP3 SWAP2 SWAP1 PUSH2 0x26A JUMP JUMPDEST POP POP JUMP JUMPDEST PUSH1 0x0 DUP1 SLOAD SWAP1 POP SWAP1 JUMP JUMPDEST DUP3 DUP1 SLOAD PUSH2 0x276 SWAP1 PUSH2 0x616 JUMP JUMPDEST SWAP1 PUSH1 0x0 MSTORE PUSH1 0x20 PUSH1 0x0 KECCAK256 SWAP1 PUSH1 0x1F ADD PUSH1 0x20 SWAP1 DIV DUP2 ADD SWAP3 DUP3 PUSH2 0x298 JUMPI PUSH1 0x0 DUP6 SSTORE PUSH2 0x2DF JUMP JUMPDEST DUP3 PUSH1 0x1F LT PUSH2 0x2B1 JUMPI DUP1 MLOAD PUSH1 0xFF NOT AND DUP4 DUP1 ADD OR DUP6 SSTORE PUSH2 0x2DF JUMP JUMPDEST DUP3 DUP1 ADD PUSH1 0x1 ADD DUP6 SSTORE DUP3 ISZERO PUSH2 0x2DF JUMPI SWAP2 DUP3 ADD JUMPDEST DUP3 DUP2 GT ISZERO PUSH2 0x2DE JUMPI DUP3 MLOAD DUP3 SSTORE SWAP2 PUSH1 0x20 ADD SWAP2 SWAP1 PUSH1 0x1 ADD SWAP1 PUSH2 0x2C3 JUMP JUMPDEST JUMPDEST POP SWAP1 POP PUSH2 0x2EC SWAP2 SWAP1 PUSH2 0x2F0 JUMP JUMPDEST POP SWAP1 JUMP JUMPDEST JUMPDEST DUP1 DUP3 GT ISZERO PUSH2 0x309 JUMPI PUSH1 0x0 DUP2 PUSH1 0x0 SWAP1 SSTORE POP PUSH1 0x1 ADD PUSH2 0x2F1 JUMP JUMPDEST POP SWAP1 JUMP JUMPDEST PUSH1 0x0 DUP2 MLOAD SWAP1 POP SWAP2 SWAP1 POP JUMP JUMPDEST PUSH1 0x0 DUP3 DUP3 MSTORE PUSH1 0x20 DUP3 ADD SWAP1 POP SWAP3 SWAP2 POP POP JUMP JUMPDEST PUSH1 0x0 JUMPDEST DUP4 DUP2 LT ISZERO PUSH2 0x347 JUMPI DUP1 DUP3 ADD MLOAD DUP2 DUP5 ADD MSTORE PUSH1 0x20 DUP2 ADD SWAP1 POP PUSH2 0x32C JUMP JUMPDEST DUP4 DUP2 GT ISZERO PUSH2 0x356 JUMPI PUSH1 0x0 DUP5 DUP5 ADD MSTORE JUMPDEST POP POP POP POP JUMP JUMPDEST PUSH1 0x0 PUSH1 0x1F NOT PUSH1 0x1F DUP4 ADD AND SWAP1 POP SWAP2 SWAP1 POP JUMP JUMPDEST PUSH1 0x0 PUSH2 0x378 DUP3 PUSH2 0x30D JUMP JUMPDEST PUSH2 0x382 DUP2 DUP6 PUSH2 0x318 JUMP JUMPDEST SWAP4 POP PUSH2 0x392 DUP2 DUP6 PUSH1 0x20 DUP7 ADD PUSH2 0x329 JUMP JUMPDEST PUSH2 0x39B DUP2 PUSH2 0x35C JUMP JUMPDEST DUP5 ADD SWAP2 POP POP SWAP3 SWAP2 POP POP JUMP JUMPDEST PUSH1 0x0 PUSH1 0x20 DUP3 ADD SWAP1 POP DUP2 DUP2 SUB PUSH1 0x0 DUP4 ADD MSTORE PUSH2 0x3C0 DUP2 DUP5 PUSH2 0x36D JUMP JUMPDEST SWAP1 POP SWAP3 SWAP2 POP POP JUMP JUMPDEST PUSH1 0x0 PUSH1 0x40 MLOAD SWAP1 POP SWAP1 JUMP JUMPDEST PUSH1 0x0 DUP1 REVERT JUMPDEST PUSH1 0x0 DUP1 REVERT JUMPDEST PUSH1 0x0 DUP2 SWAP1 POP SWAP2 SWAP1 POP JUMP JUMPDEST PUSH2 0x3EF DUP2 PUSH2 0x3DC JUMP JUMPDEST DUP2 EQ PUSH2 0x3FA JUMPI PUSH1 0x0 DUP1 REVERT JUMPDEST POP JUMP JUMPDEST PUSH1 0x0 DUP2 CALLDATALOAD SWAP1 POP PUSH2 0x40C DUP2 PUSH2 0x3E6 JUMP JUMPDEST SWAP3 SWAP2 POP POP JUMP JUMPDEST PUSH1 0x0 PUSH1 0x20 DUP3 DUP5 SUB SLT ISZERO PUSH2 0x428 JUMPI PUSH2 0x427 PUSH2 0x3D2 JUMP JUMPDEST JUMPDEST PUSH1 0x0 PUSH2 0x436 DUP5 DUP3 DUP6 ADD PUSH2 0x3FD JUMP JUMPDEST SWAP2 POP POP SWAP3 SWAP2 POP POP JUMP JUMPDEST PUSH2 0x448 DUP2 PUSH2 0x3DC JUMP JUMPDEST DUP3 MSTORE POP POP JUMP JUMPDEST PUSH1 0x0 PUSH1 0x20 DUP3 ADD SWAP1 POP PUSH2 0x463 PUSH1 0x0 DUP4 ADD DUP5 PUSH2 0x43F JUMP JUMPDEST SWAP3 SWAP2 POP POP JUMP JUMPDEST PUSH1 0x0 DUP1 REVERT JUMPDEST PUSH1 0x0 DUP1 REVERT JUMPDEST PUSH32 0x4E487B7100000000000000000000000000000000000000000000000000000000 PUSH1 0x0 MSTORE PUSH1 0x41 PUSH1 0x4 MSTORE PUSH1 0x24 PUSH1 0x0 REVERT JUMPDEST PUSH2 0x4AB DUP3 PUSH2 0x35C JUMP JUMPDEST DUP2 ADD DUP2 DUP2 LT PUSH8 0xFFFFFFFFFFFFFFFF DUP3 GT OR ISZERO PUSH2 0x4CA JUMPI PUSH2 0x4C9 PUSH2 0x473 JUMP JUMPDEST JUMPDEST DUP1 PUSH1 0x40 MSTORE POP POP POP JUMP JUMPDEST PUSH1 0x0 PUSH2 0x4DD PUSH2 0x3C8 JUMP JUMPDEST SWAP1 POP PUSH2 0x4E9 DUP3 DUP3 PUSH2 0x4A2 JUMP JUMPDEST SWAP2 SWAP1 POP JUMP JUMPDEST PUSH1 0x0 PUSH8 0xFFFFFFFFFFFFFFFF DUP3 GT ISZERO PUSH2 0x509 JUMPI PUSH2 0x508 PUSH2 0x473 JUMP JUMPDEST JUMPDEST PUSH2 0x512 DUP3 PUSH2 0x35C JUMP JUMPDEST SWAP1 POP PUSH1 0x20 DUP2 ADD SWAP1 POP SWAP2 SWAP1 POP JUMP JUMPDEST DUP3 DUP2 DUP4 CALLDATACOPY PUSH1 0x0 DUP4 DUP4 ADD MSTORE POP POP POP JUMP JUMPDEST PUSH1 0x0 PUSH2 0x541 PUSH2 0x53C DUP5 PUSH2 0x4EE JUMP JUMPDEST PUSH2 0x4D3 JUMP JUMPDEST SWAP1 POP DUP3 DUP2 MSTORE PUSH1 0x20 DUP2 ADD DUP5 DUP5 DUP5 ADD GT ISZERO PUSH2 0x55D JUMPI PUSH2 0x55C PUSH2 0x46E JUMP JUMPDEST JUMPDEST PUSH2 0x568 DUP5 DUP3 DUP6 PUSH2 0x51F JUMP JUMPDEST POP SWAP4 SWAP3 POP POP POP JUMP JUMPDEST PUSH1 0x0 DUP3 PUSH1 0x1F DUP4 ADD SLT PUSH2 0x585 JUMPI PUSH2 0x584 PUSH2 0x469 JUMP JUMPDEST JUMPDEST DUP2 CALLDATALOAD PUSH2 0x595 DUP5 DUP3 PUSH1 0x20 DUP7 ADD PUSH2 0x52E JUMP JUMPDEST SWAP2 POP POP SWAP3 SWAP2 POP POP JUMP JUMPDEST PUSH1 0x0 PUSH1 0x20 DUP3 DUP5 SUB SLT ISZERO PUSH2 0x5B4 JUMPI PUSH2 0x5B3 PUSH2 0x3D2 JUMP JUMPDEST JUMPDEST PUSH1 0x0 DUP3 ADD CALLDATALOAD PUSH8 0xFFFFFFFFFFFFFFFF DUP2 GT ISZERO PUSH2 0x5D2 JUMPI PUSH2 0x5D1 PUSH2 0x3D7 JUMP JUMPDEST JUMPDEST PUSH2 0x5DE DUP5 DUP3 DUP6 ADD PUSH2 0x570 JUMP JUMPDEST SWAP2 POP POP SWAP3 SWAP2 POP POP JUMP JUMPDEST PUSH32 0x4E487B7100000000000000000000000000000000000000000000000000000000 PUSH1 0x0 MSTORE PUSH1 0x22 PUSH1 0x4 MSTORE PUSH1 0x24 PUSH1 0x0 REVERT JUMPDEST PUSH1 0x0 PUSH1 0x2 DUP3 DIV SWAP1 POP PUSH1 0x1 DUP3 AND DUP1 PUSH2 0x62E JUMPI PUSH1 0x7F DUP3 AND SWAP2 POP JUMPDEST PUSH1 0x20 DUP3 LT DUP2 EQ ISZERO PUSH2 0x642 JUMPI PUSH2 0x641 PUSH2 0x5E7 JUMP JUMPDEST JUMPDEST POP SWAP2 SWAP1 POP JUMP INVALID LOG2 PUSH5 0x6970667358 0x22 SLT KECCAK256 0xAC 0xBC DIV 0xF6 DUP11 0x28 CREATE 0xD1 SWAP4 0xE6 PUSH9 0x192060A28B8ACA966C 0xD DELEGATECALL SWAP15 0xB9 0xE8 CALLDATACOPY 0xBF 0x4D 0x26 RETURNDATACOPY 0xA5 0xA8 PUSH5 0x736F6C6343 STOP ADDMOD ADDMOD STOP CALLER "
				},
				"gasEstimates": {
					"creation": {
						"codeDepositCost": "332400",
						"executionCost": "368",
						"totalCost": "332768"
					},
					"external": {
						"changeName(string)": "infinite",
						"changeNumber(uint256)": "22520",
						"getName()": "infinite",
						"getNumber()": "2525",
						"myNumber()": "2473",
						"name()": "infinite"
					}
				},
				"methodIdentifiers": {
					"changeName(string)": "5353a2d8",
					"changeNumber(uint256)": "07391dd6",
					"getName()": "17d7de7c",
					"getNumber()": "f2c9ecd8",
					"myNumber()": "23fd0e40",
					"name()": "06fdde03"
				}
			},
			"storageLayout": {
				"storage": [
					{
						"astId": 3,
						"contract": "contracts/SimpleStorage.sol:SimpleStorage",
						"label": "myNumber",
						"offset": 0,
						"slot": "0",
						"type": "t_uint256"
					},
					{
						"astId": 5,
						"contract": "contracts/SimpleStorage.sol:SimpleStorage",
						"label": "name",
						"offset": 0,
						"slot": "1",
						"type": "t_string_storage"
					}
				],
				"types": {
					"t_string_storage": {
						"encoding": "bytes",
						"label": "string",
						"numberOfBytes": "32"
					},
					"t_uint256": {
						"encoding": "inplace",
						"label": "uint256",
						"numberOfBytes": "32"
					}
				}
			},
			"userdoc": {
				"kind": "user",
				"methods": {},
				"version": 1
			}
		}
	}
}